:020000022000DC
:1060000000000120756302005D6302005F6302000F
:106010006163020063630200656302000000000028
:1060200000000000000000000000000067630200A4
:1060300069630200000000006B6302006D630200F0
:1060400021AA02006F630200D1B6020039E002000B
:106050006F6302006F630200F1B302006F6302001E
:106060006F6302006F6302006F6302006F630200E0
:106070006F6302006F6302006F6302006F630200D0
:106080006F630200498402006F6302006F630200C5
:10609000898402006F630200ED2E03006F6302002B
:1060A0006F6302006F6302006F6302006F630200A0
:1060B0006F6302006F630200000000000000000038
:1060C0006F6302006F6302006F6302006F63020080
:1060D0006F6302006F6302006F6302000000000044
:1060E00000000000000000000000000000000000B0
:1060F00000000000000000000000000000000000A0
:10610000000000000000000000000000000000008F
:10611000000000000000000000000000000000007F
:10612000000000000000000000000000000000006F
:10613000000000000000000000000000000000005F
:10614000000000000000000000000000000000004F
:10615000000000000000000000000000000000003F
:10616000000000000000000000000000000000002F
:10617000000000000000000000000000000000001F
:10618000000000000000000000000000000000000F
:1061900000000000000000000000000000000000FF
:1061A00000000000000000000000000000000000EF
:1061B00000000000000000000000000000000000DF
:1061C00000000000000000000000000000000000CF
:1061D00000000000000000000000000000000000BF
:1061E00000000000000000000000000000000000AF
:1061F000000000000000000000000000000000009F
:10620000354936480A1A02D0072291438D4634494F
:1062100034480A1A06D00722914381F309880222E2
:1062200082F3148830483149314A00F044F831484B
:106230003149324A00F03FF831483249324A00F0E1
:106240003AF832483249334A00F035F83248334997
:10625000334A00F030F833483349344A00F02BF821
:1062600033483449344A00F026F83448344900228F
:1062700000F02CF833483449002200F027F8334866
:106280003349091A082902DB002202604160314AC1
:1062900090471F481F49884205D00268043003B464
:1062A000904703BCF7E700208646EC46002000211B
:1062B000294A9047FEE7884207D0521A05D0037852
:1062C00001300B700131013AF9D17047884202D098
:1062D00002700130FAE770470000012000E0002062
:1062E0000000012000000120C04C0300982A00207B
:1062F000582B0020D4630200D4630200203D030029
:10630000C04C0300982A0020982A00201C3E03005D
:106310001C3E03001C3E03001C3E03001C3E030009
:106320001C3E03001C3E03001C3E0300BF4C030048
:10633000804D0300582B0020582B0020582B0020A4
:10634000343A0020343A0020343A0020343A002015
:10635000345A00209D630200BDEB0200FEE7FEE719
:10636000FEE7FEE7FEE7FEE7FEE7FEE7FEE7FEE705
:10637000704700BF1048804710484FF0070188431E
:1063800085460F4880470F48016841F4700101605D
:10639000BFF34F8FBFF36F8FFFF732BF0A480B4930
:1063A0000B4A884207D0521A05D0037801300B708F
:1063B0000131013AF9D170477163020000000120F8
:1063C000F199020088ED00E01C3E0300982A0020AD
:0463D000982A0020E7
:1063D40000B5A1B00590049103920293049803F0D0
:1063E40018F9039B1593029B16930023179300231C
:1063F4008DF8603000231993229B1A9300231F9376
:106404000FA91F9B0822049803F0C1F908231F93C6
:10641400119B1293BDF84030ADF84C30BDF84230BA
:10642400ADF84E3000238DF851309DF83C3003F028
:106434000303DBB2012B26D10F9BC3F395231C93DB
:106444009DF83C30C3F3C203DBB28DF85030BDF885
:106454003C30C3F38313DBB21B931B9B9A0009A943
:106464001F9B049803F093F91B9B9B001F9A1344F2
:106474001F9312AA09A915AB009313461B9A1C98E3
:1064840000F0C6FD2FE09DF83C3003F00303DBB2BF
:10649400022B28D1BDF83E30C3F389139BB21E935F
:1064A4009DF83C30C3F3C203DBB28DF850301E9B21
:1064B400082B28BF08231D9307A91F9B1D9A049826
:1064C40003F065F91F9A1D9B13441F931E9A1D9B8D
:1064D400D31A1E9315AB12AA07A81D9900F03AFE11
:1064E4001E9B002BE3D1049803F0A2F800BF21B057
:1064F4005DF804FB00B583B001900091019B1B681B
:106504001B6800990198984700BF03B05DF804FB2D
:1065140000B583B00190019B1B685B6801989847A4
:1065240000BF03B05DF804FB00B583B00190019B8C
:106534001B689B680198984700BF03B05DF804FB93
:1065440082B00190019BDB6801225A7100BF02B046
:10655400704782B00190019BDB685B79184602B0FA
:1065640070470000024A034BD31ADB0818467047F1
:106574000C3E03009C3D030000B587B001900B4620
:106584008DF803309DF80330002B1FD0FFF7EAFF8E
:1065940004900023059313E0059B9B000E4A1344CB
:1065A4000393039B1B881A46019B1B689A4204D1E0
:1065B400019B059A1A60002309E0059B01330593AA
:1065C400059A049B9A42E7D3052300E0002318466A
:1065D40007B05DF804FB00BF982A002000B585B021
:1065E40001900B468DF803309DF8032001AB114652
:1065F4001846FFF7C1FF0346002B07D1019BDB00C0
:10660400054A13440393039B1B6800E000231846C8
:1066140005B05DF804FB00BF9C3D030084B001900D
:106624000B468DF80330019BDB00174A1344029399
:106634009DF80330013B032B1CD801A252F823F030
:10664400556602005D660200656602006F66020020
:1066540002238DF80F3011E004238DF80F300DE084
:10666400029B1B798DF80F3008E0029B5B798DF853
:106674000F3003E000238DF80F3000BF9DF80F307A
:10668400184604B0704700BF9C3D030084B00190DD
:10669400009100238DF80F30019B1B7803F0040355
:1066A400DBB2002B24D0019B1B78C3F30103DBB2C4
:1066B400012B02D0022B0CD017E0009B1B68019A1F
:1066C4001288C2F38312D2B213449A1C009B1A603C
:1066D4000BE0009B1B68019A5288C2F3891292B2A4
:1066E40013449A1C009B1A6000BF01238DF80F30DD
:1066F4009DF80F30184604B07047000000B58BB009
:106704000023ADF826303B4802F0E8FA3A4802F09C
:10671400E5FA3A4B5B680493384B9B680693049AFA
:10672400069B134002339B00344A134404330893FA
:1067340004AB19460898FFF7A9FF0346002B09D0BC
:10674400049A069B134002339B002C4A13440433DF
:106754000893EDE700BF0023079311E0049B5A1C44
:106764000492069A1340079A920001A90A44234905
:1067740002339B000B445B681360079B0133079350
:10678400079B012BEAD99DF80430C3F30103DBB264
:10679400012B10D0022B1CD1BDF80A30ADF82630E5
:1067A400BDF80630C3F389139BB203339A08049BE4
:1067B400134404930EE0BDF80A30ADF82630BDF85A
:1067C4000430C3F38313DBB21A46049B13440493CB
:1067D40000E000BF084802F08DFA0590059B002BED
:1067E40002D0049B054A5360BDF8263018460BB00E
:1067F4005DF804FB403000203C300020282C0020B1
:1068040000B585B00021074802F0D9F90390039B35
:106814000293029B83F310030193019B184605B076
:106824005DF804FB4430002000B589B00390029168
:1068340001920093039B1B0C0693FFF7E1FF079063
:10684400079B1904009B5A1C0A9B1340069A0A438F
:106854001B4902339B000B445A60009A0A9B134065
:1068640002339B00164A134404330593039B03F03D
:106874000703D9B2059A137861F3C5031370019B1A
:1068840003F00F03D9B2059A138861F389131380B7
:10689400029BC3F31501059A136861F39F231360E8
:1068A400059A1378012161F301031370059A137893
:1068B4006FF38203137000BF09B05DF804FB00BFDF
:1068C400282C002000B58DB00390029113468DF85A
:1068D4000730039B02330A9301238DF827300023EA
:1068E4008DF81B300DF11B03184602F007F9404BDD
:1068F4001A68029B1A603E4B9A683D4B59683C4BA0
:106904001B68CB1A134401330B9314E0012139485B
:1069140002F0B4F9FFF7F2FE07900799354802F048
:10692400ADF9334B9A68324B5968314B1B68CB1A1B
:10693400134401330B930A9A0B9B9A42E6D89DF8B1
:106944002730002B48D0002305939DF80730002BF7
:1069540017D09DF81430012262F301038DF814302E
:106964009DF8143043F004038DF81430039B03F0B6
:106974000F03DAB2BDF8143062F38913ADF81430A2
:1069840016E09DF81430022262F301038DF81430EE
:106994009DF8143043F004038DF81430039BC3F3C3
:1069A40009039AB2BDF8163062F38F13ADF81630AE
:1069B4000F4B1A680E4B9B68134002339B000C4A22
:1069C400134404330893059A089B1A60084B1A6809
:1069D4000A9B1344064A13609DF81B30184602F0C4
:1069E40097F89DF8273018460DB05DF804FB00BFFA
:1069F400282C00204430002000B58BB00590049171
:106A0400039202931F4B9B68079306AB012219461E
:106A14000298FFF757FF0346002B24D0069B02334E
:106A240009930023089311E0089B9B00039A1A44DE
:106A3400099B591C099107990B40126811490233AB
:106A44009B000B445A60089B01330893089A029BED
:106A54009A42E9D3069A079B00931346029A049933
:106A64000598FFF7E1FE074B93F82034002B05D07F
:106A740000BF00F04BF80346002BFAD100BF0BB067
:106A84005DF804FB282C002000B583B00190009130
:106A94000023002200990198FFF7AEFF00BF03B066
:106AA4005DF804FB00B587B0039002910192019B4D
:106AB400059305AA012302990398FFF79DFF00BFE0
:106AC40007B05DF804FB00B587B003900291019212
:106AD4000093019B0493009B059304AA022302994B
:106AE4000398FFF789FF00BF07B05DF804FB0000BF
:106AF400054B5A68044B1B689A420CBF01230023C0
:106B0400DBB21846704700BF282C002000B599B0AE
:106B1400FFF7EEFF0346002B01D00023BEE19B4BA1
:106B24000022C3F81824BFF34F8F00BF974B5B6854
:106B34000493964B9B681093049A109B1340023362
:106B44009B00924A134404331193002317930023A8
:106B5400169300230F9304AB19461198FFF796FD83
:106B64000346002B19D0894BD3F81834002B14D1C9
:106B7400864B1A68049B9A4205D8844B1B68834A47
:106B8400536000238AE1049A109B134002339B0054
:106B94007E4A134404331193DDE70023159311E077
:106BA400049B5A1C0492109A1340159A920001A94E
:106BB4000A44764902339B000B445B681360159BBF
:106BC40001331593159B012BEAD99DF8043003F08A
:106BD4000303DBB2022B40F09C80BDF80630C3F304
:106BE40089139BB20D93BDF80630C3F389139BB28E
:106BF400502B28BF50239BB20C930C9BC3F3090367
:106C04009AB2BDF8063062F38F13ADF806300C9BD0
:106C140008330B939DF80430C3F3C203DBB20F9324
:106C24000B995B4802F064FC1790179B002B00F053
:106C3400D180179802F0EDFC01A9169B0822179841
:106C440002F091FD169B08331693049BDA43109BC4
:106C5400134001339B000A930C9A0A9B9A4242D92F
:106C64000A9B002B08D0049A109B134002339B000C
:106C7400464A1344043300E0464B08930A9B002B16
:106C840002D00A9BDBB201E00C9BDBB28DF81F3013
:106C94000A9B002B01D03F4B00E0002306930A9B84
:106CA400002B06D00C9BDAB20A9BDBB2D31ADBB200
:106CB40000E000238DF817309DF81F20169B0899DB
:106CC400179802F050FD9DF81F30169A134416933E
:106CD400069B002B16D09DF81720169B0699179833
:106CE40002F041FD0EE0049A109B134002339B0016
:106CF400264A134404330993169B0C9A099917984E
:106D040002F031FD0D9B03339A08049B1344049352
:106D140060E09DF8043003F00303DBB2012B59D18A
:106D2400BDF80430C3F38313DBB2062B28BF06235C
:106D3400DAB2BDF8043062F38913ADF80430BDF85B
:106D44000430C3F38313DBB202330E939DF8043093
:106D5400C3F3C203DBB20F930E9B9B0019460C488E
:106D640002F0C6FB1790179B002B33D0179802F044
:106D740050FC01A9169B0822179802F0F4FC169BFC
:106D840008331693002315931BE000BF282C002022
:106D9400883D0300342C0020049B5A1C0492109A52
:106DA400134002339B003F4A1344191D169B0422CF
:106DB400179802F0D8FC169B04331693159B0133E5
:106DC4001593BDF80430C3F38313DBB21A46159B45
:106DD4009342E1D3179B002B40D0324BD3F81034AD
:106DE4001493304BD3F81834002B1BD0179802F0AF
:106DF4001FFC4DE000238DF84F301498FFF7A9FBDA
:106E04000346002B02D001238DF84F309DF84F30FC
:106E1400002B03D017991498FFF76CFB149BDB68C5
:106E24001B681493149B002BE4D1179802F000FC08
:106E340000238DF803300DF10303184601F05EFEC4
:106E4400184BD3F81834002B02D1049B154A536015
:106E54009DF80330184601F05BFE19E0114BD3F89E
:106E64001034129306E01298FFF75EFB129BDB6866
:106E74001B681293129B002BF5D10B4A0B4BD31AB0
:106E8400DB081B0443F0020309491846FFF7FCFD25
:106E9400FFF72EFE034683F00103DBB2184619B058
:106EA4005DF804FB282C0020CC3D03009C3D03002E
:106EB400343E030000B583B00D4BD3F81034019376
:106EC4000B4B012283F8202409E00198FFF738FBDB
:106ED4000198FFF71DFB019BDB681B680193019B75
:106EE400002BF2D100BF00BF03B05DF804FB00BF6C
:106EF400282C002082B00190009100BF02B070479E
:106F040010B584B003900291039BDB88002B0AD058
:106F1400039BDB881A461F4B009313461E4A1F49E6
:106F2400029801F08AFF039B1B7A052B2ED0039B4A
:106F34005B7A002B12D0039B9B881A46039B1B7A17
:106F440019461046FFF76AFB03461A46144B53F8DA
:106F540022301A461349029801F06FFF039B1B6805
:106F640019460298FFF7C6FF039B1B7A1A460E4B7D
:106F740053F82240039B9B8800211846FFF72EFB01
:106F8400034622460949029801F057FF00BF04B0A6
:106F940010BD00BF683E0300783E0300B03E03000E
:106FA400B42A0020C83E0300A02A0020CC3E0300DF
:106FB40000B585B00390029113468DF80730039B0A
:106FC4001B7A052B0FD0039B5B7A002B06D00D4B4D
:106FD4001B681A460C49029801F02FFF0B490298CE
:106FE40001F02BFF07E09DF80730002B03D0074981
:106FF400029801F022FF029801F007FF00BF05B0DC
:107004005DF804FBB42A0020C83E0300D83E030008
:1070140030B58BB007900691059204930E9B1B7BB1
:107024008DF827300E9B00221A730E990498FFF7EF
:1070340067FF059B062B7FD801A252F823F000BFFF
:10704400617002006B7002007B7002008F7002009E
:10705400AD700200D57002000571020007990E9808
:1070640001F0EBFE69E0069B1B681A4607990E982F
:1070740001F0E3FE61E0069B1A68069B04331B687B
:1070840007990E9801F0D9FE57E0069B1A68069BF3
:1070940004331968069B08331B6800930B46079951
:1070A4000E9801F0CAFE48E0069B1968069B04335B
:1070B4001868069B08331B68069A0C321268019202
:1070C400009303460A4607990E9801F0B6FE34E091
:1070D400069B1868069B04331C68069B08331B68D0
:1070E400069A0C32126806991031096802910192CD
:1070F40000932346024607990E9801F09EFE1CE079
:10710400069B1C68069B04331D68069B08331B689A
:10711400069A0C32126806991031096806981430E0
:10712400006803900291019200932B46224607992E
:107134000E9801F082FE00E000BF00220E99049830
:10714400FFF736FF0E9B9DF827201A7300BF0BB084
:1071540030BD00BF00B587B0039002910192009347
:10716400029B082B5CD8009B1B7B8DF81330009B83
:1071740000221A7300990198FFF7C2FE00230593B9
:1071840014E0059A029B9A4209D2039A059B134480
:107194001B781A462449009801F04FFE03E0234966
:1071A400009801F04AFE059B01330593059B072BCC
:1071B400E7D91F49009801F040FE0023059322E01F
:1071C400059A029B9A4217D2039A059B13441B7893
:1071D4008DF812309DF8123018460CF0B5F90346BC
:1071E400002B02D09DF8123000E02E231A461149DC
:1071F400009801F022FE03E00F49009801F01DFE03
:10720400059B01330593059B072BD9D901220099CE
:107214000198FFF7CDFE009B9DF813201A7300E040
:1072240000BF07B05DF804FBDC3E0300E43E03004E
:10723400E83E0300EC3E0300F03E030000B583B0DB
:107244000190019B1B781A460C4B9B5C002B05D0CC
:10725400019B0433184605F05BFD0BE0019B1B7892
:107264001A46064B9B5C002B04D1019B0C33184639
:1072740004F028FE00BF03B05DF804FB5432002084
:1072840000B587B00390029113468DF807300023B0
:107294000593039B1B781A46114B9B5C002B09D06A
:1072A400039B04339DF807200299184605F05EFD00
:1072B40005900FE0039B1B781A46094B9B5C002B3F
:1072C40008D1039B0C339DF807200299184604F05B
:1072D4006FFE0590059B184607B05DF804FB00BFE0
:1072E4005432002082B001900091034B01221A70A5
:1072F40000BF02B0704700BF8C30002030B58DB0A5
:1073040003468DF80730194B02AC1D460FCD0FC450
:1073140095E80F0084E80F00062302934FF0FF3333
:1073240003934FF0FF3304934FF0FF3305934FF073
:10733400EB7308939DF80730002B01D00C4A00E052
:10734400002202AB19460B4803F0C4F90B900B9BC7
:107354000A930A9B002B02D00A9800F063FA064AAB
:107364009DF80730137000BF0DB030BDF43E03002C
:10737400E9720200D82A00208D30002000B589B0BF
:10738400039002910192019B8DF81F30114B002252
:107394001A709DF81F301A4602990F48FFF770FFC4
:1073A4000690069B0593059B002B02D0059800F0E0
:1073B40039FA00BF094B1B78002B07D0054B1B780B
:1073C400DBB283F00103DBB2002BF3D100BF09B0C1
:1073D4005DF804FB8C300020D82A00208D3000207A
:1073E40000B585B003900291054B00934023054AF4
:1073F40002990398FEF7ECFF00BF05B05DF804FBAB
:10740400817302004C30002082B0019000BF02B0B2
:107414007047000000B583B001900548FFF70EFFE8
:107424000020FFF76BFF00BF03B05DF804FB00BF53
:10743400D82A00202DE9F04F91B0099000238DF84F
:107444003F30A6E0594B1A689DF83F30DB001344E7
:107454000E930E9B1B781C464FF001024FF0000365
:10746400A4F12001C4F1200003FA04FB02FA01F1A3
:107474004BEA010B22FA00F04BEA000B02FA04FA81
:10748400CDE90CAB4A4BD3E90001DDE90C2300EA5A
:10749400020400940B400193DDE90034234373D0CC
:1074A400DDE90C23D1430291DB430393404BD3E941
:1074B4000023DDE9024521461140049129460B4091
:1074C40005933B4BDDE90412C3E900120E9B1B78C4
:1074D400184603F07BFF03468DF82F300E9B1B7874
:1074E4001C464FF001024FF00003A4F12001C4F147
:1074F400200003FA04F702FA01F10F4322FA00F024
:10750400074302FA04F62B4BD3E9002306EA0201EF
:1075140006913B4007939DF82F004FF000010E9B0E
:107524001B781C46A4F12003C4F1200201FA04F9DB
:1075340000FA03F349EA030920FA02F249EA0209CC
:1075440000FA04F8DDE906344C4508BF43451BD175
:107554009DF82F200E9B5B78012B0CBF0123002389
:10756400DBB29A420CBF01230023DBB20A930E9BC9
:107574005B68002B08D00E9B5C680E9B1A780A9BF4
:10758400DBB219461046A0479DF83F3001338DF811
:107594003F30094B1A789DF83F309342FFF452AFC5
:1075A40000BF00BF11B0BDE8F08F00BF90300020D5
:1075B400C8300020C0300020943000202DE9704FE6
:1075C40090B00B900B468DF82B304FF001024FF02A
:1075D40000030B9EA6F12001C6F1200003FA06F574
:1075E40002FA01F10D4322FA00F0054302FA06F40F
:1075F400CDE90E45384B184600F0E0FF0D900D9B89
:10760400002B64D1354BD3E90001DDE90E2300EAF8
:10761400020400940B400193DDE90034234341D17B
:107624000B9803F0D3FE0346002B0FD02C4BD3E969
:107634000001DDE90E2340EA020402940B430393A4
:10764400274BDDE90212C3E9001213E0DDE90E2342
:107654006FEA020A6FEA030B214BD3E900230AEA1B
:10766400020104910BEA030305931D4BDDE90412A7
:10767400C3E90012194BD3E90001DDE90E2340EA06
:10768400020406940B430793144BDDE90612C3E985
:1076940000121148134B1B680022194600F05CFFCE
:1076A4000D9015E0DDE90E236FEA02086FEA030985
:1076B4000A4BD3E9002308EA0201089109EA03030B
:1076C4000993064BDDE90812C3E9001200E000BF8C
:1076D40010B0BDE8708F00BF9C300020C83000207F
:1076E400C03000209830002000B58BB003900B46CA
:1076F40001928DF80B30019B042B01D807235AE02B
:1077040003F074FD034683F00103DBB2002B09D0C0
:1077140003F01AFD0990099B0893089B002B01D0E4
:10772400089B48E0264A039B1360264A9DF80B30C9
:107734001370254A019B136024494FF000024FF057
:107744000003C1E9002322494FF000024FF0000377
:10775400C1E9002322E09DF80B30DB00039A1344B7
:10776400079305AB00210A461A800A469A70032340
:107774008DF81430079B9B788DF81530079B1B7888
:10778400184605AB134A194603F03CFD0990099BC2
:107794000693069B002B01D0069B0CE09DF80B3052
:1077A4005A1E8DF80B20002BD5D10B4A00210B4813
:1077B40000F0A2FE034618460BB05DF804FB00BFC0
:1077C400903000209430002098300020C0300020F9
:1077D400C8300020C175020039740200203F030044
:1077E40000B583B0002301930CE00C4B1A68019B95
:1077F400DB0013441B780121184603F073FD019B41
:1078040001330193064B1B781A46019B9342ECD338
:107814000023184603B05DF804FB00BF903000203D
:107824009430002000B587B0019000230393002317
:107834000493019B059303AB1A46002144F2010013
:1078440000F01AF800BF07B05DF804FBBFF34F8FD8
:1078540000BF074BDB6803F4E0620549054B1343A3
:10786400CB60BFF34F8F00BF00BF00BFFCE700BF7A
:1078740000ED00E00400FA0500B585B00390029124
:10788400019272B600BFFFF715FB00BFFFF73EF988
:107894000346002BFAD1114A114BD31ADB081B04FF
:1078A40043F001030F491846FFF7EEF80E4B1B682F
:1078B40003F00103002B00D000BE084A084BD31A82
:1078C400DB081B0443F0020308491846FFF7DCF801
:1078D400FFF7BCFF00BF05B05DF804FBCC3D03001F
:1078E4009C3D0300243F0300F0ED00E0303F030023
:1078F40084B00190019B9B680393019BDA68039B0E
:10790400D31A184604B0704782B001900B468DF824
:107914000330019B1A68019BDB68019989880B403D
:1079240013449DF803201A70019BDB685A1C019BC9
:10793400DA6000BF02B0704784B003900B46019236
:10794400ADF80A30039B1A68039B9968BDF80A30A6
:107954000B44039989880B4013441A78019B1A70CD
:1079640000BF04B0704700B583B001900091009A45
:1079740000210198FFF7E0FF019B9B685A1C019BC3
:107984009A6000BF03B05DF804FB84B003900291D9
:107994001346ADF80630029B002B01D10E231DE0E7
:1079A400BDF80630002B07D0BDF806305A1EBDF8CE
:1079B40006301340002B01D009230FE0039B029AE9
:1079C4001A60BDF80630013B9AB2039B9A80039B70
:1079D40000229A60039B0022DA600023184604B058
:1079E400704700B583B001900B468DF803300198C1
:1079F400FFF77EFF0246019B9B889A4207D89DF8B9
:107A0400033019460198FFF77FFF002300E00423A9
:107A1400184603B05DF804FB00B583B001900091F3
:107A24000198FFF765FF0346002B05D000990198E4
:107A3400FFF799FF002300E00523184603B05DF823
:107A440004FB000082B003468DF807309DF8073030
:107A540003F01F0205499DF907305B09012000FA74
:107A640002F241F8232000BF02B0704700E100E0B9
:107A740082B003468DF807309DF8073003F01F02EB
:107A840006499DF907305B09012000FA02F2203310
:107A940041F8232000BF02B0704700BF00E100E0BE
:107AA40082B003468DF807309DF8073003F01F02BB
:107AB40006499DF907305B09012000FA02F24033C0
:107AC40041F8232000BF02B0704700BF00E100E08E
:107AD40082B003468DF807309DF8073003F01F028B
:107AE40006499DF907305B09012000FA02F2603370
:107AF40041F8232000BF02B0704700BF00E100E05E
:107B040082B0034600918DF807309DF90730002BB1
:107B14000CDA009BDAB20C499DF8073003F00F032E
:107B2400043B5201D2B20B441A7609E0009BDAB24C
:107B340006499DF907305201D2B20B4483F8002361
:107B440000BF02B0704700BF00ED00E000E100E0BC
:107B540000B585B00190019B002B0AD0074B43F080
:107B640001030393019B9B010293039B0298984793
:107B740000E000BF05B05DF804FB00BF403F030018
:107B840000B583B00190064A019BC2F8083506216E
:107B94001120FFF7B5FF00BF03B05DF804FB00BF81
:107BA4000010014008B50D4B4FF48032C3F8442354
:107BB4000A4B4FF48032C3F804231120FFF788FFE7
:107BC4001120FFF73FFF054B01221A602F20FFF71A
:107BD400BFFF034B01221A7000BF08BD0010014013
:107BE400EE31002008B51120FFF742FF0E4B4FF491
:107BF4008032C3F848230C4B4FF48032C3F8082377
:107C0400094B01225A602F20FFF7A2FF064B0122E5
:107C14009A60064B00221A602F20FFF799FF044B4D
:107C240000221A7000BF08BD00100140E03100209E
:107C3400EE310020024BD3F804351846704700BFDC
:107C44000010014082B001900091019A009BD31A68
:107C540023F07F43184602B07047000082B00190C1
:107C6400034A019BC2F8403500BF02B0704700BF11
:107C74000010014086B00190284B1B68002B03D1F3
:107C8400264A019B136045E0019B1A68234B1B683D
:107C94001B689A4210D8214B1B681968019B1A680B
:107CA4001E4B1B688A1A1A601C4B1A68019BDA6106
:107CB4001A4A019B13602DE0019B1B680393174B29
:107CC4001B680593154B1B68049309E0049B1B6810
:107CD400039AD31A0393049B0593049BDB690493CF
:107CE400049B002B04D0049B1B68039A9A42EDD892
:107CF400049B002B05D0049B1A68039BD21A049B97
:107D04001A60019B039A1A60019B049ADA61059B2D
:107D1400019ADA6100BF06B0704700BFDC31002071
:107D240000B587B001902A4B1B680393284B1B684E
:107D34000593059B049308E0049A019B9A4208D09A
:107D4400049B0593049BDB690493049B002BF3D1F0
:107D540000E000BF049B002B01D1002333E0059A0F
:107D6400049B9A4214D11A4B1B68DB69184A1360AE
:107D7400174B1B68002B0BD1164B01229A60164B34
:107D840000221A60154B01221A702F20FFF7E0FE23
:107D9400049B1B680293049BDA69059BDA61059BCB
:107DA400DB690493049B002B05D0049B1A68029B97
:107DB4001A44049B1A60064B1B68039A9A4214BF28
:107DC40001230023DBB2184607B05DF804FB00BFB3
:107DD400DC31002000100140E0310020EF310020B0
:107DE40008B51120FFF75CFE00BF08BD08B51420DC
:107DF400FFF756FE00BF08BD00B583B00190019B9C
:107E04005B69019A92691046984700BF03B05DF818
:107E140004FB000000B585B02B4B1B68002B4ED033
:107E240000230193FFF706FF0246284B1B681946FF
:107E34001046FFF707FF0290234B1B6803931DE0D6
:107E4400039B1B68029A9A421CD3039B1B68029AE9
:107E5400D31A0293039B1B68019A13440193039B57
:107E64000093039BDB690393009B1B7C002B05D0D1
:107E7400009B00221A740098FFF7BEFF039B002B9F
:107E8400DED100E000BF124B1A78124B1B789A42E5
:107E94000CD1104B1B780133DAB20E4B1A700D4B18
:107EA4001B78022B02D10B4B00221A70094B1B7852
:107EB4001946094A019B42F82130FFF797FF00BF9A
:107EC40005B05DF804FB00BFDC310020E031002088
:107ED400EC310020ED310020E431002082B001902B
:107EE400184B1A78184B1B789A4223D0154B1B78E1
:107EF4000133DAB2134B1A70124B1B78022B02D1E6
:107F0400104B00221A700F4B1B781A460F4B53F874
:107F14002220019B1A60019B1A680D4B1B681344B5
:107F24000B4A13600A4B1B6823F07F43084A136013
:107F3400012303E0019B00221A600023184602B0CB
:107F4400704700BFEC310020ED310020E431002007
:107F5400E031002088B0039002910192002307933E
:107F640038E0204B1B680693069B1B68039A9A42D1
:107F740006D2069B1A68039BD21A069B1A602EE04F
:107F8400069B1B68039AD31A0393069B1B68079AE4
:107F940013440793069B00221A60124B1B68059337
:107FA400069BDB690F4A1360069BDB68002B11D02C
:107FB400029A079B134423F07F42069B5A60069B58
:107FC400DA68069B9A60019B1A68069BDA61019B3A
:107FD400059A1A60034B1B68002BC2D100BF00BF77
:107FE40008B07047DC31002000B589B0019000234F
:107FF4008DF81F30664B1B680593AAE0019B002B8C
:1080040005D0019B0693069BDB69019361E0614BFC
:108014001B781A4613465B001344DB005D4A134485
:10802400043304935B4B1B780133DAB2594B1A7057
:10803400584B1A78574B9B789A4202D1554B0022E1
:108044001A70049B5B680693049B1B78032B1ED059
:10805400032B7EDC012B1FD0022B7AD1049B5B689F
:108064001846FFF75DFE0346002B02D001238DF86E
:108074001F30069B00221A746BE0454B1B68039368
:10808400039B00221A74039BDB69414A1360404B33
:108094001B68002BF1D15CE000BF069B1B7C002B0E
:1080A40000D056E0049B9A68069B5A60049BDA68E9
:1080B400069B9A60049B1A69069BDA60049B5A69C2
:1080C400069B9A61344B1B78002B02D0069B00223E
:1080D4005A60069B5A68314B1B68D31A23F07F43BE
:1080E4002F4A93420ED8069B5B682C4A12681146AD
:1080F4001846FFF7A7FD0246069B9B681A44069B99
:108104001A6017E0254B1A68069B5B6819461046EF
:10811400FFF798FD0290069B9B68029A9A4206D24A
:10812400069B9A68029BD21A069B1A6002E0069B81
:1081340000221A60069B00225A60069B00229A6065
:10814400069B01221A74069B0022DA610698FFF747
:1081540091FD019B002B7FF451AF0E4B1A780D4B10
:108164005B789A427FF44AAF9DF81F30002B04D10C
:10817400074B1B68059A9A4201D0012300E00023B3
:1081840003F00103DBB2184609B05DF804FB00BF3D
:10819400DC310020D0300020EF310020E03100201D
:1081A400FEFF7F0010B588B00190274B1B68002BA1
:1081B40044D0254B1B681B680793FFF73BFD0690D3
:1081C400224B1B68059305990698FFF73BFD034670
:1081D400033304931E4B1B7883F00103DBB2002BA3
:1081E40001D0FFF7DFFC049A079B934238BF134684
:1081F400059A13440593059B23F07F430593059843
:10820400FFF72CFDFFF716FD039006990398FFF77F
:1082140019FD0346DC1C06990598FFF713FD034678
:108224009C420DD9FFF706FD03461846FFF716FDDD
:108234002F20FFF78DFCFFF7D3FD01E0FFF7D2FC01
:1082440000BF08B010BD00BFDC310020E0310020C9
:10825400EE31002000B587B00023019300238DF890
:108264001730194B1B680493184B1B6803936B4618
:108274001846FFF733FE03468DF80B309DF80B309C
:10828400002B08D0009B01AA04991846FFF762FE50
:1082940001238DF81730019B1846FFF7A5FE03460E
:1082A400002B02D001238DF817309DF81730002BD6
:1082B40002D00398FFF776FF054B00221A7000BF27
:1082C40007B05DF804FB00BFE0310020DC31002082
:1082D400EF31002082B003468DF80730034A9DF841
:1082E4000730537000BF02B0704700BFD030002089
:1082F40084B00190144B5B7801338DF80F30124B2E
:108304009B789DF80F209A4202D100238DF80F30FC
:108314000D4B1B789DF80F209A4201D100230FE0EA
:10832400019B9DF80F201A70074B5B781A46134681
:108334005B001344DB00044A134404330293029B9E
:10834400184604B0704700BFD030002000B589B093
:1083540003900291019200930023079300238DF868
:1083640016300DF11603184600F0C8FB0DF1170383
:108374001846FFF7BDFF0690069B002B02D104238D
:10838400079318E0069B01221A70069B039A5A6011
:10839400FFF750FC0246069B9A60069B029ADA603D
:1083A400069B019A1A61069B009A5A619DF8173040
:1083B4001846FFF78FFF9DF81630184600F0A8FB0B
:1083C400079B002B01D1FFF711FD079B184609B04D
:1083D4005DF804FB00B587B001900B468DF80330BF
:1083E4000023059300238DF80E300DF10E0318467B
:1083F40000F084FB0DF10F031846FFF779FF04909A
:10840400049B002B02D1042305930BE0049B9DF8ED
:1084140003201A70049B019A5A609DF80F30184685
:10842400FFF758FF9DF80E30184600F071FB059BCE
:10843400002B01D1FFF7DAFC059B184607B05DF865
:1084440004FB000008B50E4B0022C3F840210C4B7E
:108454000022C3F844210A4B0022C3F84821084BE8
:108464000022C3F84C21064B0022C3F80021044B20
:108474000022C3F80421FFF7CDFC00BF08BD00BFF4
:108484000010014008B5FFF7E5FE00BF08BD00007D
:1084940008B5FFF7A7FB134B00221A70114B0022FB
:1084A4005A70104B0B229A700F4B00221A600F4B1C
:1084B40000221A700E4B00221A701420FFF708FBDA
:1084C40006211420FFF71CFB1420FFF7BBFA002041
:1084D400FFF756FBFFF7AEFB0346064A1360002383
:1084E400184608BDD0300020DC310020EC310020DB
:1084F400ED310020E031002086B003900B4601925C
:108504008DF80B30134B9B78002B01D108231EE010
:10851400019B002B01D1072319E0039B002B01D100
:10852400072314E0039B1B681B7C002B01D008234A
:108534000DE0039B1B680593059B00221A74059BA1
:108544009DF80B205A74059B019A5A610023184622
:1085540006B07047D030002000B587B00390029178
:108564000192039B0593144B9B78002B01D10823A4
:108574001EE0039B002B01D1082319E0029B042B6E
:1085840001D8072314E0059B5B69002B01D1082364
:108594000EE0059B5B7C012B01D1029B00E00023D4
:1085A4000493019B049A02990598FFF7CFFE0346B2
:1085B400184607B05DF804FBD030002000B585B044
:1085C4000190019B03930D4B9B78002B01D1082351
:1085D40010E0019B002B03D0039B5B69002B01D1AE
:1085E400082307E0039B00221A7402210398FFF773
:1085F400F1FE0346184605B05DF804FBD0300020B8
:1086040000B587B00390029113468DF8073000231C
:108614000593039B1B781A46114B9B5C002B09D0D6
:10862400039B04339DF807200299184604F09EFB2F
:1086340005900FE0039B1B781A46094B9B5C002BAB
:1086440008D1039B0C339DF807200299184603F0C8
:10865400AFFC0590059B184607B05DF804FB00BF0E
:108664005432002000B585B0019000238DF80F30FE
:10867400019B1B781A46114B9B5C002B08D0019B75
:108684000433184604F0F4FB03468DF80F300EE073
:10869400019B1B781A46094B9B5C002B07D1019B5D
:1086A4000C33184603F0F0FC03468DF80F309DF8A8
:1086B4000F30184605B05DF804FB00BF54320020AB
:1086C40000B587B00390029113468DF8073000235C
:1086D4000593039B1B781A46114B9B5C002B09D016
:1086E400039B04339DF807200299184604F0D8FB35
:1086F40005900FE0039B1B781A46094B9B5C002BEB
:1087040008D1039B0C339DF807200299184603F007
:1087140013FD0590059B184607B05DF804FB00BFE8
:108724005432002084B00190019B9B680393019B09
:10873400DA68039BD31A184604B0704700B587B0B3
:1087440001900091019B1B78022B3BD0022B60DC33
:10875400002B48D0012B5CD1019B5B681B78194628
:108764002E48FFF73EF90590059B002B0AD0012304
:108774008DF80C30059B0493294B1B6803AA104603
:1087840098470DE02548FFF7CDFF0346002B07D09F
:1087940000238DF80C30224B1B6803AA104698471F
:1087A4001E48FFF7BFFF03461C4A9288934205D830
:1087B40001221C491C48FFF783FF2BE01B4B0122BD
:1087C4001A7027E002238DF80C30019BDB680493B8
:1087D400012214491448FFF773FF114B1B6803AAC5
:1087E4001046984716E012491248FFF715F9034658
:1087F400002B05D101220E490B48FFF701FF09E0C8
:1088040003238DF80C30064B1B6803AA10469847C7
:1088140000E000BF00BF07B05DF804FBFC3100209E
:10882400F0310020F8310020EC2A0020F93100203A
:10883400F43100200C32002030B591B00390029145
:1088440001928DF803303C4A019B1360029B002B7C
:1088540001D107236DE0029B1968029B5B689BB200
:108864001A463648FFF791F80F900F9B0E930E9B14
:10887400002B01D00E9B5CE0029B9968029BDB6895
:108884009BB21A462E48FFF780F80F900F9B0D936A
:108894000D9B002B01D00D9B4BE02A4B04AC1D46D5
:1088A4000FCD0FC495E80F0084E80F00039B5B69AC
:1088B4000A93039B1B7C002B14BF01230023DBB210
:1088C4008DF824309DF803308DF82C30039B5B7CAD
:1088D400002B01D00E2300E000238DF82530039BEC
:1088E400DB680693039B9B680793039B1B680593B4
:1088F400039B5B68049304AB134A1946134801F0C5
:10890400E9FE0F900F9B0C930C9B002B01D00C9B4A
:108914000FE00F4B00221A70039B1B68B3F1FF3F5B
:1089240006D001220B490948FFF7CAFE034600E0BE
:108934000023184611B030BDF0310020FC31002076
:108944000C320020483F030041870200EC2A00203B
:10895400F9310020F831002000B587B00190114BA7
:108964001B788DF8173001990F48FFF755F80490DC
:108974009DF81730002B10D00A4B00221A700122E8
:108984000A490B48FFF79CFE0390039B0293029B4A
:10899400002B02D00298FEF745FF049B184607B04F
:1089A4005DF804FBF9310020FC310020F83100208F
:1089B400EC2A002000B585B003468DF807309DF8F9
:1089C400073019461048FFF70CF80390039B002B5F
:1089D40015D10E48FFF746FE034683F00103DBB2D0
:1089E400002B0CD00A490848FFF716F80346002B61
:1089F40005D1012206490548FFF702FE0390039BB7
:108A0400184605B05DF804FB0C320020EC2A002067
:108A1400F431002082B0EFF310830093009B0193A4
:108A240072B600BF019B184602B0704762B600BF21
:108A340000BF704700B585B00190FFF7EBFF0390CE
:108A4400164B9B68002B1BD1144B01229A60144BCC
:108A5400D3F88020134B1340104A1360104B114A73
:108A6400C3F880200E4BD3F884300C4A53600C4B6F
:108A74004FF0FF32C3F88420019B00221A7002E0F9
:108A8400019B01221A70039B002B01D1FFF7CEFF3B
:108A94000023184605B05DF804FB00BF1C3200201B
:108AA40000E100E0FC06FFBD00B585B003468DF88B
:108AB4000730104B9B68002B16D09DF80730002B15
:108AC40012D1FFF7A7FF03900B4A0A4B1B681360F0
:108AD400094A084B5B685360064B00229A60039B6B
:108AE400002B01D1FFF7A2FF0023184605B05DF863
:108AF40004FB00BF1C32002000E100E000B583B09D
:108B040001900198FFF796FF00BF03B05DF804FBE6
:108B140000B583B003468DF807309DF8073018463A
:108B2400FFF7C2FF00BF03B05DF804FB00B585B0DA
:108B340001900091009B5B099B00019A1A44009BE1
:108B440003F01F03012101FA03F31946104600F054
:108B54004DF8039000BF05B05DF804FB00B585B087
:108B640001900091009B5B099B00019A1A44009BB1
:108B740003F01F03012101FA03F3DB4319461046F6
:108B840000F064F8039000BF05B05DF804FB82B008
:108B940001900091009B5B099B00019A13441A68A1
:108BA400009B03F01F0322FA03F303F00103002BDD
:108BB40014BF01230023DBB2184602B0704710B47F
:108BC40087B001900091019B009A53E8004F104632
:108BD40043E8000191F0000FF7D10594049003914C
:108BE400059B184607B05DF8044B704710B487B076
:108BF40001900091019B009A53E8004F44EA02005F
:108C040043E8000191F0000FF6D10594049003911C
:108C1400049B184607B05DF8044B704710B487B046
:108C240001900091019B009A53E8004F04EA02006E
:108C340043E8000191F0000FF6D1059404900391EC
:108C4400059B184607B05DF8044B704710B487B015
:108C540001900091019B009A53E8004F04EA02003E
:108C640043E8000191F0000FF6D1059404900391BC
:108C7400049B184607B05DF8044B704710B487B0E6
:108C840001900091019B009A53E8004F04EB02000D
:108C940043E8000191F0000FF6D10594049003918C
:108CA400049B184607B05DF8044B704710B487B0B6
:108CB40001900091019B009A53E8004FA4EB02003D
:108CC40043E8000191F0000FF6D10594049003915C
:108CD400049B184607B05DF8044B704700B583B099
:108CE400019001210198FFF781FF0346184603B064
:108CF4005DF804FB00B583B0019000210198FFF7F3
:108D04008DFF0346184603B05DF804FB82B0019062
:108D14000B468DF80330019BDA689DF80330019906
:108D2400098A01FB03F31344184602B0704782B06A
:108D340001900091009B019AD2689B1A019A128AB1
:108D4400B3FBF2F3DBB2184602B0704700B585B04E
:108D540001900023039300238DF80A300DF10A03D8
:108D64001846FFF7CBFE019B1B681A68019B5B68E2
:108D74009A421FD9019B1B681A68013A1A601B6842
:108D84001B7819460198FFF7C1FF0390019B9A686D
:108D9400019B1B681B68D31A8DF80B30019B1B6861
:108DA4001B799DF80B209A4204D9019B1B689DF8FE
:108DB4000B201A719DF80A301846FFF7A9FE039B91
:108DC400184605B05DF804FB10B584B0019000911D
:108DD400009B039300238DF80B300DF10B03184611
:108DE400FFF78CFE019B1B681C68621C1A600399C8
:108DF4000198FFF79CFF034623709DF80B3018463B
:108E0400FFF786FE00BF04B010BD00B583B001902B
:108E1400019B9B68002B0CD0019B5B69019A106934
:108E2400019A1168019A92689847019B00229A60FE
:108E340000E000BF03B05DF804FB0EB400B584B0DD
:108E44000190059B002B0AD00023039306AB0393E8
:108E540003AB1A460599019800F0ACF900E000BF95
:108E640004B05DF804EB03B0704700B583B0019023
:108E74000B468DF80330019B1A68019B9B68581CB4
:108E84000199886013449DF803201A70019B9A6825
:108E9400019B5B689A4202D30198FFF7B6FF00BFBB
:108EA40003B05DF804FB00B587B003900291019212
:108EB400009300230593009B03F00103002B24D0AF
:108EC4000BE0029B01330293059B013305939DF84C
:108ED400133019460398FFF7C8FF029B1B788DF8DF
:108EE40013309DF81330002BEBD106E0019B013BBE
:108EF400019320210398FFF7B8FF019A059B9A423A
:108F04002ED9019B002BF1D12AE0029B002B0BD020
:108F140002980AF0A0FB059006E0019B013B019337
:108F240020210398FFF7A1FF019A059B9A420FD9CC
:108F3400019B002BF1D10BE0029B01330293059BB3
:108F4400013305939DF8133019460398FFF78DFFFD
:108F5400029B1B788DF813309DF81330002BEBD156
:108F640000BF07B05DF804FB00B589B0039002911F
:108F740001920093029B07930123069307E0079A4B
:108F8400019BB2FBF3F30793069B01330693079A05
:108F9400019B9A42F3D2009A069B9A4201D9009B04
:108FA40006930B9B03F00103002B22D10A9B002B99
:108FB4001FD00B9B03F00203002B06D0009B002B59
:108FC40003D130238DF8173002E020238DF81730B9
:108FD40008E00A9B013B0A939DF817301946039851
:108FE400FFF743FF0A9B002B03D0069A0A9B9A4281
:108FF400EFD301230793009B012B03D9009B013B73
:10900400009309E0029A079BB2FBF3F30493049ADA
:10901400019B9A4200D205E0079B019A02FB03F3ED
:109024000793E8E7029A079BB2FBF3F30493049BCC
:10903400079A02FB03F3029AD31A0293154A049B7C
:1090440013441B7819460398FFF70FFF079A019BF7
:10905400B2FBF3F30793079B002BE3D10B9B03F0C5
:109064000103002B11D00A9B002B0ED006E00A9BB3
:10907400013B0A9320210398FFF7F7FE0A9B002B7C
:1090840003D0069A0A9B9A42F1D300BF09B05DF857
:1090940004FB00BF683F030000B589B0059004914C
:1090A40003920293049B002BB8BF5B4206930123F7
:1090B400079307E0039B069A92FBF3F30693079B3F
:1090C40001330793039B069A9A42F3DA029A079BA9
:1090D4009A4201D9029B07930A9B002B0AD0049B56
:1090E400002B04DB0B9B03F00403002B02D00A9B30
:1090F400013B0A930B9B03F00203002B02D0029B5B
:10910400002B16D00B9B03F00103002B11D10A9BFB
:10911400002B0ED006E00A9B013B0A932021059800
:10912400FFF7A3FE0A9B002B03D0079A0A9B9A42DF
:10913400F1D3049B002B07DA049B5B4204932D219B
:109144000598FFF792FE08E00B9B03F00403002B45
:1091540003D02B210598FFF788FE0B9B03F0020335
:10916400002B19D00B9B03F00103002B14D1029B9D
:10917400002B11D10A9B002B0ED006E00A9B013B69
:109184000A9330210598FFF770FE0A9B002B03D049
:10919400079A0A9B9A42F1D304990B9B01930A9B69
:1091A4000093029B039A0598FFF7DEFE00BF09B007
:1091B4005DF804FB00B58FB0059004910392049B05
:1091C400002B00F09181049B1B788DF83730049BB1
:1091D400013304939DF83730002B00F07C819DF817
:1091E4003730252B40F06B8100230A9301230C9325
:1091F400049B1B788DF837309DF83730302B0DD019
:10920400302B1BDC2B2B11D02D2B17D10A9B43F0B9
:1092140001030A93049B0133049312E00A9B43F075
:1092240002030A93049B013304930AE00A9B43F06C
:1092340004030A93049B0133049302E000230C9378
:1092440000BF0C9B002BD3D1002309939DF837302A
:109254002A2B0CD1039B1B68191D039A11601B68F0
:10926400099A13440993049B013304931AE0049B61
:109274001B788DF837309DF837302F2B12D99DF895
:109284003730392B0ED8049B01330493099A1346C3
:109294009B0013445B001A469DF837301344303B5F
:1092A4000993D3E700230B93049B1B788DF8373085
:1092B4009DF837302E2B1DD1049B01330493049B5E
:1092C4001B788DF837309DF837302F2B12D99DF845
:1092D4003730392B0ED8049B013304930B9A134671
:1092E4009B0013445B001A469DF837301344303B0F
:1092F4000B93E4E7049B1B788DF837309DF83730E7
:109304006C2B03D09DF83730682B07D1049B0133B5
:109314000493049B1B788DF83730EFE79DF83730C2
:10932400252B00F0C280252BC0F2C480782B00F3DB
:10933400C180582BC0F2BE80583B202B00F2BA806B
:1093440001A252F823F000BF3B940200B99402003A
:10935400B9940200B9940200B9940200B9940200CD
:10936400B9940200B9940200B9940200B9940200BD
:10937400B9940200D1930200F3930200B99402005D
:10938400B9940200B9940200B9940200F393020064
:10939400B9940200B9940200B9940200B99402008D
:1093A400B9940200B99402007B940200B9940200BB
:1093B400B99402005F940200B99402001794020069
:1093C400B9940200B99402003B940200039B1B6809
:1093D400191D039A11601B680C930C9B8DF81F30A8
:1093E4009DF81F3019460598FFF73FFD63E0039B86
:1093F4001B68191D039A11601B680C930A9B019347
:10940400099B00930B9B0A220C990598FFF744FED5
:1094140051E0039B1B68191D039A11601B680C9390
:109424000C990A9B0193099B00930B9B0A220598B4
:10943400FFF79AFD3FE0039B1B68191D039A116017
:109444001B680C930C990A9B0193099B00930B9B3B
:1094540010220598FFF788FD2DE0039B1B68191D5A
:10946400039A11601B6808930A9B099A0899059846
:10947400FFF719FD1FE0039B1B68191D039A116078
:109484001B680C9330210598FFF7EFFC78210598B1
:10949400FFF7EBFC0C9900230193082300930823A6
:1094A40010220598FFF760FD05E025210598FFF7D8
:1094B400DCFC00E000BF049B0133049305E09DF84D
:1094C400373019460598FFF7D0FC049B1B78002B16
:1094D4007FF479AE00E000BF059B1B7B002B04D01A
:1094E4000598FFF792FC00E000BF0FB05DF804FBA5
:1094F40000B58BB001900091019B1B8A043B07933C
:10950400009A079B1344DA1C079BB2FBF3F38DF814
:109514001B300198FFF71AFC0590059B002B01D125
:10952400002338E0059B00221A71059B01225A7121
:10953400079B9AB2059BDA80059B09939DF81B3023
:10954400013B0493099B019A1A60002308931DE0D0
:109554000198FFF7FBFB0390039B002B0ED0059BA8
:109564005B790133DAB2059B5A71099B039A1A603D
:10957400039B019A1A60039B099304E0059800F089
:109584000EF8002307E0089B01330893089A049B14
:109594009A42DDD3059B18460BB05DF804FB00B579
:1095A4008BB00190019B0793079B5B798DF81B306F
:1095B400019B08939DF81B30013B059300230993FD
:1095C40005E0089B1B680893099B01330993099ADA
:1095D400059B9A42F5D3089B1B680493019B08934F
:1095E400002309930BE0089B1B68039308990498D4
:1095F400FFF7EAFB039B0893099B013309939DF84A
:109604001B30099A9A42EED300BF00BF0BB05DF83D
:1096140004FB00B585B00190019B0393039B0433C5
:1096240001211846FFF72AFB00BF05B05DF804FBD3
:1096340000B587B00190019B0593059B043301217C
:109644001846FFF733FB0346039303AB0493049BD1
:109654001B78002B02D10198FFF7A1FF00BF07B0D0
:109664005DF804FB00B591B0039002910192009360
:10967400039B0993039B0F93099BDB881A46099B61
:109684005B7903FB02F3043B0893099BDB88079394
:10969400009B1A1D079BB2FBF3F30E93009B04334C
:1096A400079AB3FBF2F2079901FB02F29B1A0D939E
:1096B400019B1A68009B1344089A9A4203D2089AA1
:1096C400009BD31A01E0019B1B680C93019B0C9A2D
:1096D4001A6005E00F9B1B680F930E9B013B0E93D2
:1096E4000E9B002BF6D100230B93079A0D9BD31AE4
:1096F4000A930A9A0C9B934228BF13460A932AE0C2
:10970400029A0B9B134406930F9A0D9B1344043344
:1097140005939DF84830002B05D00A9A05990698C0
:1097240009F03DFF04E00A9A0699059809F037FF0D
:1097340000230D930F9B1B680F930C9A0A9BD31A5B
:109744000C930B9A0A9B13440B93079A0C9B93421A
:1097540028BF13460A930C9B002BD1D100BF00BF36
:1097640011B05DF804FB00B589B005900491039233
:109774000293039B079307AA00230093029B049977
:109784000598FFF76FFF00BF09B05DF804FB00B553
:1097940089B00590049103920293039B079307AA4F
:1097A40001230093029B04990598FFF75BFF00BF18
:1097B40009B05DF804FB000082B003468DF8073061
:1097C4009DF8073003F01F0206499DF907305B0935
:1097D400012000FA02F2603341F8232000BF02B0F6
:1097E400704700BF00E100E082B00190019B0022BD
:1097F4001A60BFF35F8F00BF00BF02B0704741DF44
:10980400704700BF184600B585B000238DF80330BB
:109814000DF103031846FFF771F9F1EE103A0193C5
:10982400019B0393039B23F09F030293029BE1EEAE
:10983400103A00BFBFF35F8F00BF2620FFF7BCFFC5
:109844009DF803301846FFF763F900BF05B05DF8D3
:1098540004FB000008B5064B00221A700548FFF708
:10986400C3FF0549054800F022F80023184608BD47
:109874002C32002028320020843F030030320020A4
:1098840000B583B0FFF7BFFF09F000FB0346002BD0
:1098940003D0FFF7B4FF019005E020BF00BF40BF35
:1098A40000BF20BF00BF00BF03B05DF804FB82B05F
:1098B40001900091019B009A1A60019B1B681A6831
:1098C400019B5A60019B5A68019B1B685B689A4222
:1098D40002D1019B00225A6000BF02B0704782B0DF
:1098E4000190019B5B68002B14D0019B5B681A46B6
:1098F400019B1B689B6813441A46019B5A60019B99
:109904005A68019B1B685B689A4204D1019B002240
:109914005A6000E000BF02B07047000000B585B097
:109924000190019800F00EF80390039B002B01D0E6
:10993400039B00E0024B184605B05DF804FB00BF32
:10994400903F030086B00190164B0593164B049389
:109954001FE0049A059BD31ADB10DA0F13445B1043
:10996400DB00059A13440393039B1B680293029A3A
:10997400019B9A4202D9039B04930AE0029A019B39
:109984009A4203D2039B0833059302E0039B5B686E
:1099940004E0059A049B9A42DBD30023184606B0E0
:1099A400704700BF90430300B8440300BFF34F8FD8
:1099B40000BF074BDB6803F4E0620549054B134322
:1099C400CB60BFF34F8F00BF00BF00BFFCE700BFF9
:1099D40000ED00E00400FA05024B034A1A6000BFE0
:1099E400704700BF002B00200090D00308B500F0A2
:1099F40069F90346002B06D0A04B1B681B0AA04A3A
:109A040003F01F03136000F089F90346002B02D012
:109A14009C4B9D4A1A6000F09DF90346002B06D02A
:109A24009A4B1B685B0B9A4A03F00703136000F020
:109A3400BDF90346002B05D0964BDB68954A23F00D
:109A44008073D36000F0CEF90346002B0ED04FF0A4
:109A540080430022C3F80C214FF080430022C3F856
:109A640010214FF080430022C3F8382500F0E6F9B6
:109A74000346002B02D0884B03221A6000F0FAF947
:109A84000346002B0BD0854B05221A60844B012220
:109A94001A60844B00221A60834B3F221A6000F044
:109AA40005FA0346002B76D04FF080537F4AD3F853
:109AB4000434C2F820354FF080537C4AD3F808347C
:109AC400C2F824354FF08053784AD3F80C34C2F8E6
:109AD40028354FF08053754AD3F81034C2F82C352A
:109AE4004FF08053714AD3F81434C2F830354FF034
:109AF40080536E4AD3F81834C2F834354FF080538B
:109B04006A4AD3F81C34C2F840354FF08053674A90
:109B1400D3F82034C2F844354FF08053634AD3F865
:109B24002434C2F848354FF08053604AD3F82834BF
:109B3400C2F84C354FF080535C4AD3F82C34C2F849
:109B440050354FF08053594AD3F83034C2F8543565
:109B54004FF08053554AD3F83434C2F860354FF08F
:109B64008053524AD3F83834C2F864354FF08053E6
:109B74004E4AD3F83C34C2F868354FF080534B4A10
:109B8400D3F84034C2F86C354FF08053474AD3F8C9
:109B94004434C2F8703500F0A5F90346002B05D013
:109BA400434B1B68434A03F04F03136000F0C6F9AC
:109BB4000346002B0DD04FF08043D3F8003403F05C
:109BC4000103002B05D04FF080436FF00102C3F86E
:109BD400002400F0DFF90346002B05D0364B1B6848
:109BE400354A43F480631360344BD3F88830334AE6
:109BF40043F47003C2F88830BFF34F8F00BFBFF344
:109C04006F8F00BF4FF01023D3F80032002B05DB19
:109C14004FF01023D3F80432002B2BDA284B012207
:109C2400C3F8042500BF264BD3F80034002BFAD028
:109C34004FF010231522C3F8002200BF204BD3F8A5
:109C44000034002BFAD04FF010231522C3F804225D
:109C540000BF1B4BD3F80034002BFAD0184B002262
:109C6400C3F8042500BF164BD3F80034002BFAD0F8
:109C7400FFF79CFEFFF7B0FE00BF08BD24030010F1
:109C84004035014074C007400DF0ADBA44020010E5
:109C94003C050040F0ED00E0A005004010560040F7
:109CA40088560040185600401456004000C000403A
:109CB40058020010E40E00403C17004000ED00E0A4
:109CC40000E00140124B1B68DBB2062B1DD1114B87
:109CD4001B6803F00F03002B17D10F4B1B6803F015
:109CE400F003302B01D1012310E00B4B1B6803F070
:109CF400F003402B01D1012308E0074B1B6803F05C
:109D0400F003502B01D1012300E0002318467047D3
:109D1400E00F00F0E40F00F0E80F00F00A4B1B68BE
:109D2400DBB2062B0DD1094B1B6803F00F03002B8C
:109D340007D1074B1B6803F0F003302B01D101233B
:109D440000E0002318467047E00F00F0E40F00F035
:109D5400E80F00F0124B1B68DBB2062B1DD1114B30
:109D64001B6803F00F03002B17D10F4B1B6803F084
:109D7400F003302B01D1012310E00B4B1B6803F0DF
:109D8400F003402B01D1012308E0074B1B6803F0CB
:109D9400F003502B01D1012300E000231846704743
:109DA400E00F00F0E40F00F0E80F00F00A4B1B682E
:109DB400DBB2062B0DD1094B1B6803F00F03002BFC
:109DC40007D1074B1B6803F0F003302B01D10123AB
:109DD40000E0002318467047E00F00F0E40F00F0A5
:109DE400E80F00F0124B1B68DBB2062B1DD1114BA0
:109DF4001B6803F00F03002B17D10F4B1B6803F0F4
:109E0400F003302B01D1012310E00B4B1B6803F04E
:109E1400F003402B01D1012308E0074B1B6803F03A
:109E2400F003502B01D1012300E0002318467047B2
:109E3400E00F00F0E40F00F0E80F00F00A4B1B689D
:109E4400DBB2062B0DD1094B1B6803F00F03002B6B
:109E540007D1074B1B6803F0F003302B01D101231A
:109E640000E0002318467047E00F00F0E40F00F014
:109E7400E80F00F00A4B1B68DBB2062B0DD1094B2F
:109E84001B6803F00F03002B07D1074B1B6803F07B
:109E9400F003302B01D1012300E000231846704762
:109EA400E00F00F0E40F00F0E80F00F00A4B1B682D
:109EB400DBB2062B0DD1094B1B6803F00F03002BFB
:109EC40007D1074B1B6803F0F003502B01D101238A
:109ED40000E0002318467047E00F00F0E40F00F0A4
:109EE400E80F00F0124B1B68DBB2062B1DD1114B9F
:109EF4001B6803F00F03002B17D10F4B1B6803F0F3
:109F0400F003302B01D1012310E00B4B1B6803F04D
:109F1400F003402B01D1012308E0074B1B6803F039
:109F2400F003502B01D1012300E0002318467047B1
:109F3400E00F00F0E40F00F0E80F00F0124B1B6894
:109F4400DBB2062B1DD1114B1B6803F00F03002B52
:109F540017D10F4B1B6803F0F003302B01D1012301
:109F640010E00B4B1B6803F0F003402B01D10123DD
:109F740008E0074B1B6803F0F003502B01D10123C9
:109F840000E0002318467047E00F00F0E40F00F0F3
:109F9400E80F00F0064B1B68062B05D1054B1B6828
:109FA400062B01D1012300E000231846704700BFAF
:109FB400300100103401001082B001904FF0A04332
:109FC400184602B0704700B585B0019008461146A6
:109FD4001A4603468DF803300B468DF802301346BB
:109FE4008DF8013001AB1846FFF7E6FF03909DF8AA
:109FF40003209DF802305B001A439DF801309B005A
:10A004001A439DF818301B0242EA03019DF81C30E4
:10A014001B04019A1943039B02F5E07243F82210D2
:10A0240000BF05B05DF804FB00B585B003900023C4
:10A034000193002300930023012201210398FFF7D9
:10A04400C2FF00BF05B05DF804FB00B585B0039006
:10A054000B468DF80B309DF80B3000220192002244
:10A064000092002200210398FFF7ADFF00BF05B066
:10A074005DF804FB00B585B0019001AB1846FFF70D
:10A084009BFF0390019B012202FA03F319460398F4
:10A0940000F086F800BF05B05DF804FB00B585B09C
:10A0A400019001AB1846FFF787FF0390019B012243
:10A0B40002FA03F31946039800F07CF800BF05B0D8
:10A0C4005DF804FB00B585B0019001AB1846FFF7BD
:10A0D40073FF0390039BD3F804350293029BDA4386
:10A0E400019B012101FA03F31A40039BC3F80825DD
:10A0F400019B01229A40029B1A40039BC3F80C2542
:10A1040000BF05B05DF804FB00B583B00190009179
:10A11400009B002B03D10198FFF7C0FF02E00198D8
:10A12400FFF7A8FF00BF03B05DF804FB00B585B0DE
:10A13400019001AB1846FFF73FFF0390039800F02E
:10A144001FF80246019B22FA03F303F001031846A9
:10A1540005B05DF804FB00B585B0019001AB18466D
:10A16400FFF72AFF0390039800F012F80246019BC0
:10A1740022FA03F303F00103184605B05DF804FB6B
:10A1840082B00190019BD3F81035184602B0704795
:10A1940082B00190019BD3F80435184602B0704791
:10A1A40082B001900091019B009AC3F8082500BF7A
:10A1B40002B0704782B001900091019B009AC3F8ED
:10A1C4000C2500BF02B0704700B585B001900F4A5E
:10A1D400019B13441B781846FFF7BDFF0346002B71
:10A1E40014BF012300238DF80F309DF80F30002B8E
:10A1F40014BF01230023DBB283F00103DBB203F0BD
:10A204000103DBB2184605B05DF804FBB844030053
:10A2140000B583B00190064A019B13441B780021CA
:10A224001846FFF771FF00BF03B05DF804FB00BFE1
:10A23400B844030000B583B00190064A019B13445F
:10A244001B7801211846FFF75FFF00BF03B05DF8DC
:10A2540004FB00BFB844030000B583B0002301939E
:10A2640005E00198FFF7E6FF019B01330193019B91
:10A27400032BF6D900BF00BF03B05DF804FB00B5A3
:10A2840083B00023019305E00198FFF7C1FF019B10
:10A2940001330193019B032BF6D900BF00BF03B028
:10A2A4005DF804FB00B583B00190054A019B13449B
:10A2B4001B781846FFF706FF00BF03B05DF804FBE8
:10A2C400B844030000B583B00023019309E0094AB0
:10A2D400019B13441B781846FFF7A6FE019B01332C
:10A2E4000193019B032BF2D9FFF7B6FF00BF03B024
:10A2F4005DF804FBB844030000B585B001900F4A33
:10A30400019B13441B781846FFF710FF0346002BEC
:10A3140014BF012300238DF80F309DF80F30002B5C
:10A3240014BF01230023DBB283F00103DBB203F08B
:10A334000103DBB2184605B05DF804FBBC4403001E
:10A3440000B583B0002301930AE0094A019B13443A
:10A354001B7803211846FFF778FE019B0133019314
:10A36400019B032BF1D900BF00BF03B05DF804FBD0
:10A37400BC44030084B001904FF0FF3302930023E8
:10A3840003930DE00A4A039B13441B781A46019B6E
:10A39400934202D1039B029305E0039B0133039391
:10A3A400039B032BEED9029B184604B0704700BFF1
:10A3B400BC44030082B00190034A019B13441B7800
:10A3C400184602B0704700BFBC44030000B583B018
:10A3D4000190019B03F00103002B01D0FFF772FFF2
:10A3E400019B03F00203002B01D0FFF7A9FF00BF7C
:10A3F40003B05DF804FB000082B003468DF807301B
:10A404009DF8073003F01F0206499DF907305B09E8
:10A41400012000FA02F2203341F8232000BF02B0E9
:10A42400704700BF00E100E008B500F0E9FA024B14
:10A4340000229A7000BF08BD3832002000B583B0F6
:10A4440000230193144B1B78002B02D08523019326
:10A454001CE0114B00229A600F4B00225A600E4BF5
:10A4640000221A610C4B0022DA600C4800F0A6FAB4
:10A47400019008F00BFD034683F00103DBB2002BCF
:10A4840001D000F0B5FA044B01221A70019B184662
:10A4940003B05DF804FB00BF3832002051A5020070
:10A4A40084B00190019B1B680393039B002B03D092
:10A4B400039B1A68019B1A60039B184604B07047FB
:10A4C40000B583B000238DF807300DF1070318465B
:10A4D400FEF714FB094BDB68013B084AD360074BCA
:10A4E400DB68002B01D1FFF79FFF9DF8073018466A
:10A4F400FEF70EFB00BF03B05DF804FB383200200A
:10A5040000B585B003468DF807309DF80730002B61
:10A5140002D10C4B039301E00B4B03930398FFF719
:10A52400BFFF0290029B002B06D0029B5B689DF844
:10A53400072010469847F1E700BF00BF05B05DF85B
:10A5440004FB00BF403200204832002000B583B035
:10A5540003468DF807309DF80730002B05D10A4BD0
:10A5640001225A700020FFF7CBFF9DF80730012B22
:10A5740005D1054B01229A700120FFF7C1FF00BFEE
:10A5840003B05DF804FB00BF3832002000B583B08F
:10A5940001900091019B002B05D1054B01225A70BB
:10A5A4000020FFF7ADFF00BF03B05DF804FB00BF60
:10A5B4003832002000B585B0034600918DF807308D
:10A5C4009DF80730032B29D0032B2CDC002B02D061
:10A5D400012B04D027E00020FFF70EFF24E0002326
:10A5E4008DF80F300DF10F031846FEF787FA104B64
:10A5F4001B7883F00103DBB2002B01D0FFF71EFFB1
:10A604000B4BDB6801330A4AD360094B01229A7071
:10A614009DF80F301846FEF77BFA05E000F0E8F9E4
:10A62400FFF74EFF00E000BF00BF05B05DF804FB7C
:10A634003832002000B589B001900091009B079347
:10A64400019B1B788DF80C30019B5B680493019B84
:10A654001B7A8DF81430019BDB680693074A079B2D
:10A6640052F823300649079A51F8221003AA1046DB
:10A67400984700BF09B05DF804FB00BF4C320020CE
:10A684005032002000B589B001900091009B0793DF
:10A69400019B1B788DF80C30019B5B680493019B34
:10A6A4009B68DBB28DF81430019BDB680693074A84
:10A6B400079B52F823300649079A51F8221003AA3F
:10A6C4001046984700BF09B05DF804FB4C320020E7
:10A6D4005032002030B58FB0039002910192039B59
:10A6E4001B780C9326490C9B019A41F82320029B6A
:10A6F4001A6924490C9B41F82320029B5B7F19466D
:10A70400214A0C9B13440A461A70029B04AC1D4652
:10A714000FCD0FC495E80F0084E80F000C9B08933D
:10A7240000230D93039B1B781A46174B9B5C002B4D
:10A734000DD0039B181D019B002B01D0134A00E090
:10A74400002204AB194602F085FA0D9014E0039B35
:10A754001B781A460C4B9B5C002B0DD1039B03F119
:10A764000C00019B002B01D0094A00E0002204AB3D
:10A77400194601F047FB0D900D9B18460FB030BDF4
:10A784004C320020503200205432002039A60200FE
:10A7940089A6020082B003468DF807309DF8073081
:10A7A40003F01F0205499DF907305B09012000FAF7
:10A7B40002F241F8232000BF02B0704700E100E03C
:10A7C40082B003468DF807309DF8073003F01F026E
:10A7D40006499DF907305B09012000FA02F2603353
:10A7E40041F8232000BF02B0704700BF00E100E041
:10A7F40082B0034600918DF807309DF90730002B95
:10A804000CDA009BDAB20C499DF8073003F00F0311
:10A81400043B5201D2B20B441A7609E0009BDAB22F
:10A8240006499DF907305201D2B20B4483F8002344
:10A8340000BF02B0704700BF00ED00E000E100E09F
:10A8440000B583B003460A468DF8073013468DF8E9
:10A8540006309DF806209DF9073011461846FFF78B
:10A86400C7FF00BF03B05DF804FB00B583B0034627
:10A874008DF807309DF907301846FFF7A1FF9DF9C1
:10A8840007301846FFF786FF00BF03B05DF804FBEE
:10A8940082B003468DF807300F4A9DF90730002B2C
:10A8A40000DA1F335B115BB252F823209DF90730A5
:10A8B400594203F01F0301F01F0158BF4B425BB222
:10A8C40022FA03F303F00103002B14BF0123002336
:10A8D400DBB2184602B0704700E100E082B001909C
:10A8E4004FF08042019BC2F8083300BF02B07047AA
:10A8F40082B003468DF807309DF8073003F180439A
:10A9040001221A6000BF02B0704784B00346ADF85C
:10A914000630BDF8063003F1804300221A60BDF80A
:10A92400063003F180431B680393039B00BF04B00C
:10A93400704782B00346ADF80630BDF8063003F127
:10A9440080431B68002B14BF01230023DBB218468D
:10A9540002B0704782B001904FF08042019BC2F870
:10A96400183500BF02B070474FF08043D3F8183455
:10A974001B0C03F00103002B14BF01230023DBB2E3
:10A984001846704700B583B006238DF807300020C1
:10A99400FFF77EFF034683F00103DBB2002B08D0F0
:10A9A4009DF8073019460020FFF74AFF0020FFF703
:10A9B4005CFF00BF03B05DF804FB000084B00190AD
:10A9C40000230393094B1B79002B02D085230393A7
:10A9D40008E0064A019B1360044B01221A71034BE1
:10A9E40000225A71039B184604B070475832002065
:10A9F40008B5FFF7C7FF0120FFF7ACFF00BF08BD94
:10AA040008B50C20FFF774FF00BFFFF7ADFF034646
:10AA1400002BFAD100BF00BF08BD000008B54FF4F9
:10AA24008070FFF786FF0346002B14D04FF480702C
:10AA3400FFF76BFF0120FFF751FF114B5B7983F0A8
:10AA44000103DBB2002B06D00D4B01225A710C4BD3
:10AA54001B68002098474FF48270FFF76AFF034693
:10AA6400002B0AD04FF48270FFF74FFF0220FFF74C
:10AA740035FF034B1B680120984700BF08BD00BF8A
:10AA84005832002082B003468DF807309DF8073015
:10AA940003F01F0205499DF907305B09012000FA04
:10AAA40002F241F8232000BF02B0704700E100E049
:10AAB40082B003468DF807309DF8073003F01F027B
:10AAC40006499DF907305B09012000FA02F2603360
:10AAD40041F8232000BF02B0704700BF00E100E04E
:10AAE40082B0034600918DF807309DF90730002BA2
:10AAF4000CDA009BDAB20C499DF8073003F00F031F
:10AB0400043B5201D2B20B441A7609E0009BDAB23C
:10AB140006499DF907305201D2B20B4483F8002351
:10AB240000BF02B0704700BF00ED00E000E100E0AC
:10AB340000B583B003460A468DF8073013468DF8F6
:10AB440006309DF806209DF9073011461846FFF798
:10AB5400C7FF00BF03B05DF804FB00B583B0034634
:10AB64008DF807309DF907301846FFF7A1FF9DF9CE
:10AB740007301846FFF786FF00BF03B05DF804FBFB
:10AB840000B583B00346ADF80630BDF8063018466C
:10AB940000F026F803461B68012B0CBF0123002399
:10ABA400DBB2184603B05DF804FB00B585B003467C
:10ABB400ADF80630BDF80630184600F011F803462B
:10ABC4001A4600231360BDF80630184600F008F852
:10ABD40003461B680393039B00BF05B05DF804FBA9
:10ABE40082B00346ADF80630BDF8063003F1804369
:10ABF40003F5C043184602B07047000082B00190CC
:10AC0400034A019BC2F8043300BF02B0704700BF7F
:10AC14000060004082B00190034BD3F80423019BF1
:10AC24001340184602B070470060004082B00190A3
:10AC3400084A019B03F5A27352F82330054943F0F7
:10AC44000102019B03F5A27341F8232000BF02B067
:10AC5400704700BF0060004084B003900291134627
:10AC64008DF80730144A039B03F5A27352F823307E
:10AC7400114923F4473323F44073039A02F5A27273
:10AC840041F822300C4A039B03F5A27352F82320A7
:10AC9400029B1B0203F4F8519DF807301B0403F4D4
:10ACA40040330B4304491A43039B03F5A27341F851
:10ACB400232000BF04B070470060004082B00190C0
:10ACC400054A019B03F5A27352F823301B0A03F0D3
:10ACD4001F03184602B070470060004082B0019024
:10ACE400064A019B03F5A27352F823301B0C03F0B0
:10ACF4000303DBB2184602B0704700BF0060004097
:10AD040082B001904FF0A043184602B0704700B5DE
:10AD140085B00190084611461A4603468DF8033063
:10AD24000B468DF8023013468DF8013001AB1846FE
:10AD3400FFF7E6FF03909DF803209DF802305B00C7
:10AD44001A439DF801309B001A439DF818301B02EA
:10AD540042EA03019DF81C301B04019A1943039B2A
:10AD640002F5E07243F8221000BF05B05DF804FB61
:10AD740000B585B003900B468DF80B309DF80B3071
:10AD84000022019200220092002200210398FFF782
:10AD9400BEFF00BF05B05DF804FB00B585B00190AF
:10ADA40001AB1846FFF7ACFF0390019A039B02F531
:10ADB400E07253F8223023F002030293019A039BBA
:10ADC40002F5E072029943F8221000BF05B05DF865
:10ADD40004FB00B585B001900B468DF8033001AB40
:10ADE4001846FFF78DFF0390019A039B02F5E0726A
:10ADF40053F82230019A23F44031039B02F5E072A8
:10AE040043F82210019A039B02F5E07253F82230B2
:10AE14009DF8032012041146019A1943039B02F57D
:10AE2400E07243F8221000BF05B05DF804FB00B5E2
:10AE340085B0019001AB1846FFF762FF03900398B9
:10AE440000F020F80246019B22FA03F303F0010309
:10AE5400184605B05DF804FB00B585B0019001AB60
:10AE64001846FFF74DFF0390019A039B02F5E07229
:10AE740053F822301B0C03F00303DBB2184605B071
:10AE84005DF804FB82B00190019BD3F8103518469D
:10AE940002B0704700B587B00390029101924FF061
:10AEA400A0430493039B059311E0059B9B0006AA12
:10AEB400134453F8083C1846FFF7E4FF0246019B8D
:10AEC4001A60019B04330193059B01330593039A94
:10AED400029B1344059A9A42E7D300BF00BF07B010
:10AEE4005DF804FB84B001900091009B0393019BE7
:10AEF400DB080293019B03F0070301930122019BEA
:10AF040002FA03F30399029A0A441278134018468A
:10AF140004B0704784B001900091009B0393019B9F
:10AF2400DB080293019B03F007030193039A029B3E
:10AF340013441B785AB20121019B01FA03F35BB25B
:10AF4400134359B2039A029B1344CAB21A7000BF46
:10AF540004B0704782B001900C4A019B1344303313
:10AF640093F90030002B09DB084A019B134430336A
:10AF740093F90030072B01DC012300E0002303F0E8
:10AF84000103DBB2184602B0704700BF60320020F4
:10AF940082B00190064A019B1344303393F9003088
:10AFA400072BCCBF01230023DBB2184602B0704745
:10AFB4006032002082B00190064A019B1344303372
:10AFC40093F90030DB43DBB2DB09DBB2184602B095
:10AFD400704700BF6032002084B003900291019258
:10AFE4008DF80330029B59B20E4A039B134430334D
:10AFF4000A461A700B49029B019A41F823209DF8D6
:10B00400033083F00103DBB2002B08D0029B083B22
:10B01400039A51B2034A13440A4683F8502000BFEE
:10B0240004B070476032002082B00190044A019B52
:10B0340013443033FF221A7000BF02B0704700BFC0
:10B044006032002000B583B0019004490198FFF7F5
:10B0540061FF00BF03B05DF804FB00BFB432002001
:10B0640082B00190044A019B1344303393F90030B9
:10B07400184602B0704700BF6032002082B00190D1
:10B08400034A019B52F82330184602B0704700BFB0
:10B094006032002000B589B00390029113468DF808
:10B0A4000730FF238DF81F309DF80730002B01D0A7
:10B0B400002300E0082305939DF80730002B01D0FE
:10B0C400082300E00C230493059B069314E00F4A25
:10B0D400069B52F82330B3F1FF3F0AD19DF80730A5
:10B0E400029A06990398FFF777FF069B8DF81F30A5
:10B0F40006E0069B01330693069A049B9A42E6D324
:10B104009DF91F30184609B05DF804FB6032002039
:10B1140082B003468DF807309DF80730094A4FF096
:10B12400FF3142F823109DF80730072B07D99DF80B
:10B134000730083B034A1344FF2283F8502000BF22
:10B1440002B070476032002000B583B0254B93F8FD
:10B154005830002B03D008230193019B3EE00023C9
:10B164008DF8033009E09DF803301846FFF75CFFC3
:10B174009DF8033001338DF803309DF803301F2B05
:10B18400F1D900238DF8033009E09DF80330184607
:10B19400FFF7BEFF9DF8033001338DF803309DF8AF
:10B1A40003300B2BF1D9042200210F4808F020FAB8
:10B1B40006210620FFF7BCFC0620FFF7CEFC4FF467
:10B1C400BE70FFF7F2FC4FF00040FFF717FD054B90
:10B1D400012283F8582000230193019B184603B0F1
:10B1E4005DF804FB60320020B4320020044B93F875
:10B1F4005830002B14BF01230023DBB218467047DC
:10B204006032002000B587B00390029101920023C0
:10B2140005930398FFF7CEFE0346002B02D00823C4
:10B22400059357E0029B9B78C3F34003DBB21A46B5
:10B2340001990398FFF72EFF03468DF813309DF90B
:10B244001330B3F1FF3F43D0029B9B78C3F38003D9
:10B25400DBB283F00103DBB2002B13D0029B9B789B
:10B2640003F00103DBB2002B03D00398FFF795FD35
:10B2740005E0029B5B7819460398FFF779FD039874
:10B28400FFF7E0FE029B9B7803F00203DBB2002B86
:10B2940008D09DF91300029B1B781A460399FFF707
:10B2A400DBFC17E09DF91330083B0D4A134493F976
:10B2B4005010029B1B789B015AB29DF91330083B36
:10B2C4000A4351B2064A13440A4683F8502001E067
:10B2D40004230593059B184607B05DF804FB00BFE3
:10B2E4006032002000B589B001900B468DF8033020
:10B2F4000198FFF74DFE0346002B2FD00198FFF76E
:10B30400AFFE0346083B304A134493F950308DF89E
:10B314000F309DF80F309B098DF80E309DF80E30DC
:10B32400032B0BD10198FFF782FD0346002B01D0BC
:10B33400032300E002238DF81F3008E09DF80E304F
:10B34400012B01D1022300E003238DF81F309DF867
:10B354001F3019460198FFF73CFD30E00198FFF7D4
:10B36400F9FD0346002B2AD00198FFF779FE034626
:10B374000693069B9BB240339BB29B00ADF81630FC
:10B38400069B1846FFF752FCBDF816301846FFF727
:10B394000CFC9DF80330002B11D00198FFF760FEE0
:10B3A40003461846FFF76AFE0490049B002B06D060
:10B3B4000122069B02FA03F31846FFF71FFC00BFA5
:10B3C40009B05DF804FB00BF6032002000B583B013
:10B3D40001900198FFF72BFD0346002B14BF0123B6
:10B3E4000023DBB2184603B05DF804FB00B595B04A
:10B3F40000231093002303934FF48073ADF83A3085
:10B404000123129300230F9321E0BDF83A3018462C
:10B41400FFF7B6FB0346002B0ED01298FFF7FAFB9A
:10B424000346002B08D0BDF83A301846FFF7BDFBA1
:10B43400109A129B13431093129B5B001293BDF856
:10B444003A300433ADF83A300F9B01330F930F9B1E
:10B45400072BDAD94FF4BE70FFF792FB0346002B9B
:10B464000DD04FF4BE70FFF7A0FB109B43F00043D8
:10B47400109303AB1A4601210020FFF70BFD109B2C
:10B48400DBB2002B29D00123129300230F9321E078
:10B49400129A109B1340002B16D00F98FFF70EFC46
:10B4A4000D900F98FFF71AFC03468DF833300F9870
:10B4B400FFF7E4FD0B900B9B002B05D09DF8332088
:10B4C4000B9B11460D989847129B5B0012930F9BA0
:10B4D40001330F930F9B072BDAD9109B002B80F2BB
:10B4E400EE8000238DF84F30002302930023119344
:10B4F4000AE0119B9B0014AA13444FF0FF3243F857
:10B504004C2C119B01331193119B002BF1D0002380
:10B514008DF84F3000230F9378E06B4A0F9B134450
:10B52400503393F900308DF82B309DF82B3023F0F5
:10B53400C0030993644A0F9B1344503393F90030BA
:10B54400B3F1FF3F5FD001AB19460998FFF7CAFC7E
:10B554000346002B57D09DF82B309B098DF82330E0
:10B564000998FFF77DFD03461846FFF787FD07900E
:10B57400079B002B03D19DF82330032B43D19DF867
:10B584002330032B04D102AB19460998FFF7C2FC00
:10B594000998FFF761FC03468DF81B3003AB19468D
:10B5A4000998FFF79FFC0590059B002B03D09DF89D
:10B5B4001B30022B06D0059B002B24D19DF81B3099
:10B5C400032B20D19DF82330032B13D19DF81B307E
:10B5D400022B01D1032300E002238DF813309DF8E0
:10B5E400133019460998FFF7F4FB9DF84F300133E7
:10B5F4008DF84F30079B002B05D09DF82320079B27
:10B604001146099898470F9B01330F930F9B032B07
:10B6140083D99DF84F30002B4CD001238DF84E3048
:10B624006B461A4601210020FFF734FC00231193D6
:10B6340014E0119B9B0014AA134453F8502C119B43
:10B644009B0014A90B4453F8443C9A4203D00023B2
:10B654008DF84E3005E0119B01331193119B002BA3
:10B66400E7D09DF84E30002B03D000238DF84F30E7
:10B6740020E0002311931AE0119B9B0014AA1344A9
:10B6840053F8502C119B9B0014A90B4443F8442CF1
:10B69400119B9B0014AA134453F8482C119B9B0044
:10B6A40014A90B4443F84C2C119B01331193119BA7
:10B6B400002BE1D09DF84F30002B7FF428AF00BF62
:10B6C40015B05DF804FB00BF6032002008B5024BE2
:10B6D4001B68984700BF08BDBC32002082B00190AF
:10B6E400019B044A934201D1034B00E00023184616
:10B6F40002B0704700200040BC32002000B587B083
:10B70400019000910198FFF7E9FF0490049B002B3E
:10B7140025D000238DF8173000238DF80B300DF160
:10B724000B031846FDF7EAF9049B1B79002B03D0A1
:10B7340001238DF8173005E0049B009A1A60049BDE
:10B7440001221A719DF80B301846FDF7E1F99DF8B6
:10B754001730002B03D011230393039B02E0002333
:10B764000393039B184607B05DF804FB00B585B04E
:10B7740001900198FFF7B2FF0390039B002B05D0C3
:10B78400039B00221A60039B00221A7100BF05B0BC
:10B794005DF804FB82B003468DF807309DF807304E
:10B7A40003F01F0205499DF907305B09012000FAE7
:10B7B40002F241F8232000BF02B0704700E100E02C
:10B7C40082B003468DF807309DF8073003F01F025E
:10B7D40006499DF907305B09012000FA02F2203383
:10B7E40041F8232000BF02B0704700BF00E100E031
:10B7F40082B003468DF807309DF8073003F01F022E
:10B8040006499DF907305B09012000FA02F2603312
:10B8140041F8232000BF02B0704700BF00E100E000
:10B8240082B0034600918DF807309DF90730002B54
:10B834000CDA009BDAB20C499DF8073003F00F03D1
:10B84400043B5201D2B20B441A7609E0009BDAB2EF
:10B8540006499DF907305201D2B20B4483F8002304
:10B8640000BF02B0704700BF00ED00E000E100E05F
:10B8740082B00190019B1B0B5BB2184602B070476B
:10B8840000B583B003460A468DF8073013468DF899
:10B8940006309DF806209DF9073011461846FFF73B
:10B8A400BFFF00BF03B05DF804FB00B583B00346DF
:10B8B4008DF807309DF907301846FFF799FF9DF979
:10B8C40007301846FFF766FF00BF03B05DF804FBBE
:10B8D40000B583B003468DF807309DF9073018464C
:10B8E400FFF76EFF00BF03B05DF804FB84B0019066
:10B8F4000B46ADF80230BDF80230019A1344002221
:10B904001A60BDF80230019A13441B680393039B29
:10B9140000BF04B0704782B001900B46ADF802300E
:10B92400BDF80230019A13441B68002B14BF012395
:10B934000023DBB2184602B0704782B00190009138
:10B94400019B009AC3F8042300BF02B0704782B081
:10B9540001900091019BD3F80423009B1340002B1A
:10B9640014BF01230023DBB2184602B0704782B033
:10B9740001900091019B009AC3F8082300BF02B014
:10B98400704784B00190019BD3F880340393019BEA
:10B99400039AC3F88024039B184604B0704782B00E
:10B9A4000190019B0422C3F8002500BF02B0704738
:10B9B40082B00190019B0022C3F8002500BF02B0B1
:10B9C400704784B0039002910192039B019AC3F8DB
:10B9D4001425039B029AC3F80C2500BF04B07047DA
:10B9E40000B583B001904FF0FF324FF0FF31019862
:10B9F400FFF7E7FF00BF03B05DF804FB82B00190DE
:10BA0400019BD3F80C35184602B0704782B0019000
:10BA1400019BD3F81435184602B0704782B00190E8
:10BA2400019BD3F80835184602B0704782B00190E4
:10BA3400019BD3F81035184602B0704784B00390C8
:10BA440002910192039B029AC3F80825039B019A71
:10BA5400C3F8102500BF04B0704700B583B001904F
:10BA64004FF0FF324FF0FF310198FFF7E7FF00BFBF
:10BA740003B05DF804FB82B00190019BD3F8183544
:10BA8400DBB2184602B0704782B001900B468DF8C5
:10BA940003309DF80320019BC3F81C2500BF02B0AE
:10BAA400704782B001900B468DF803309DF8033047
:10BAB400019A134401221A6000BF02B0704782B099
:10BAC40001900B468DF8033013468DF802309DF833
