:020000022000DC
:1060000000000120756302005D6302005F6302000F
:106010006163020063630200656302000000000028
:1060200000000000000000000000000067630200A4
:1060300069630200000000006B6302006D630200F0
:10604000258502006F6302005D8902006F63020014
:106050006F6302006F630200D98702006F63020062
:106060006F6302006F6302006F6302006F630200E0
:106070006F6302006F6302006F6302006F630200D0
:106080006F630200597002006F6302006F630200C9
:10609000F57002006F63020089B702006F630200AF
:1060A0006F6302006F6302006F6302006F630200A0
:1060B0006F6302006F630200000000000000000038
:1060C0006F6302006F6302006F6302006F63020080
:1060D0006F6302006F6302006F6302000000000044
:1060E00000000000000000000000000000000000B0
:1060F00000000000000000000000000000000000A0
:10610000000000000000000000000000000000008F
:10611000000000000000000000000000000000007F
:10612000000000000000000000000000000000006F
:10613000000000000000000000000000000000005F
:10614000000000000000000000000000000000004F
:10615000000000000000000000000000000000003F
:10616000000000000000000000000000000000002F
:10617000000000000000000000000000000000001F
:10618000000000000000000000000000000000000F
:1061900000000000000000000000000000000000FF
:1061A00000000000000000000000000000000000EF
:1061B00000000000000000000000000000000000DF
:1061C00000000000000000000000000000000000CF
:1061D00000000000000000000000000000000000BF
:1061E00000000000000000000000000000000000AF
:1061F000000000000000000000000000000000009F
:10620000354936480A1A02D0072291438D4634494F
:1062100034480A1A06D00722914381F309880222E2
:1062200082F3148830483149314A00F044F831484B
:106230003149324A00F03FF831483249324A00F0E1
:106240003AF832483249334A00F035F83248334997
:10625000334A00F030F833483349344A00F02BF821
:1062600033483449344A00F026F83448344900228F
:1062700000F02CF833483449002200F027F8334866
:106280003349091A082902DB002202604160314AC1
:1062900090471F481F49884205D00268043003B464
:1062A000904703BCF7E700208646EC46002000211B
:1062B000294A9047FEE7884207D0521A05D0037852
:1062C00001300B700131013AF9D17047884202D098
:1062D00002700130FAE770470000012000E0002062
:1062E000000001200000012034D30200982A002081
:1062F000002B0020D4630200D463020028C40200F3
:1063000034D30200982A0020982A00201CC50200DD
:106310001CC502001CC502001CC502001CC50200F1
:106320001CC502001CC502001CC5020033D30200BC
:106330009CD30200002B0020002B0020002B00200B
:10634000403A0020403A0020403A0020403A0020E5
:10635000405A00209D63020001980200FEE7FEE71C
:10636000FEE7FEE7FEE7FEE7FEE7FEE7FEE7FEE705
:10637000704700BF1048804710484FF0070188431E
:1063800085460F4880470F48016841F4700101605D
:10639000BFF34F8FBFF36F8FFFF732BF0A480B4930
:1063A0000B4A884207D0521A05D0037801300B708F
:1063B0000131013AF9D170477163020000000120F8
:1063C000297F020088ED00E01CC50200982A002009
:0463D000982A0020E7
:1063D4007047000007B5044B0093044A402300F0C3
:1063E40030F803B05DF804FBF5630200012B0020D4
:1063F4002DE9F84388461446B2B10F4B0F4E0325DE
:10640400002743F00109224608EB0701002003F0AE
:10641400B5FE0744241A48B933782BB14FF47A40B7
:10642400C847013D02D13570BDE8F88301233370BC
:10643400002CE8D1F8E700BF20C50200002B0020A3
:106444007047F0B595B01D46164608460C4601F057
:106454008BFC1A9B0D93CDE9086500252B46082279
:1064640005A920460A958DF82C500C9501F099FC4D
:10647400079B0293069B03939DF814308DF81150EB
:1064840003F00302012A1DD1BDF81420059DC3F3B6
:10649400C203C2F383168DF81030B20008230EA98C
:1064A400204601F07EFCC5F3952508AB00933246E7
:1064B40002AB0EA9284600F005FB204601F058FC6B
:1064C40015B0F0BD022AF8D1BDF81650C3F3C203CB
:1064D400C5F389158DF810300827082D2E4628BFDE
:1064E40008263B4632460EA9204601F05AFCAD1B55
:1064F40008AB02AA31460EA8374400F047FB002D32
:10650400EBD1DAE7037813F0040216D003F00303A7
:10651400012B03D0022B09D0012070470A680088A0
:106524000232C0F3831002440A60F5E70B68428824
:10653400023303EB92130B60EEE710467047000042
:106544002DE9F04F87B000230446861C0DF10700A7
:106554000F4615468DF8073001F0CCF84548016820
:106564003960D0E90132134401335B1A824600F2E8
:106574001C4700F5836900F21448B3421CD3002081
:10658400002D73D004F00F039B0143F0050363F364
:106594000F00DAF80020DAF8083013400333164409
:1065A4004AF823009DF80700CAF8006001F0C6F815
:1065B400012007B0BDE8F08F0121384601F01FF932
:1065C400484601F034F9404601F031F9DAF80400A4
:1065D400DAF808B0029000EA0B0003300AEB8000FE
:1065E40002A9FFF78FFF029B50BB0BEA03020AEBE1
:1065F400820203F1020CD2680392013303EA0B0B0B
:106604000AEB8B0B02F00302012ADBF80C10CDF825
:1066140008C023D0022A16D08346404601F00AF966
:1066240010B1029BCAF804305946384601F0E7F825
:10663400DAE901231344DAF8002001339B1A9CE7BA
:106644000BEA0300C9E7BDF80E30C3F38913033323
:106654004FEA114B0CEB93030293DEE7BDF80C30C9
:10666400C3F383134FEA114B6344F5E7A40544F0E5
:1066740006008EE7142C002030B50A4C71B10A4A8A
:106684000A49121BD20800239A4201D1002030BDCE
:1066940031F82350854202D00133F5E7034654F81C
:1066A4003300F4E7A4C402000CC50200982A0020B9
:1066B400094B013903EBC000032909D8DFE801F0D5
:1066C4000A02040604207047007970474079704735
:1066D4000020704702207047A4C40200034BD3E992
:1066E4000030C31A58425841704700BF142C002090
:1066F4002DE9F04387B0FFF7F1FF0646002840F08C
:10670400F9807D4DC5F81804BFF34F8F6B68AC68F2
:1067140002932340033305EB830002A9FFF7F2FE43
:10672400029B18B1D5F81824002A5FD004EA0302AA
:10673400991C013305EB8202234005EB8303D268E5
:10674400DB68049302F00303022B0392029160D1ED
:10675400BDF80E306948C3F38917502FB84628BFD7
:106764004FF0500868F38F1308F10801ADF80E30AC
:1067740001F0CBFA0646002800F0A78001F0F4FAF5
:106784000023082203A9304601F001FB029924EA00
:1067940001020132B8EB820F4FEA820332D95FFA69
:1067A40088F85BB32140DCB2A8EB040803315FFA3C
:1067B40088F9A046524C05EB810108234246304635
:1067C40001F0E5FA34B108F108034A46214630469F
:1067D40001F0DDFA029B033703EB97070297D5F824
:1067E4001834002B49D1D5F8104459E02A689A424C
:1067F4008FD86A60304607B0BDE8F08340491C4634
:106804009946DAE70C40E11C0823424605EB810176
:10681400DDE7012B59D1BDF80C303848C3F383119F
:10682400062928BF062161F3891302318900ADF8D6
:106834000C3001F06AFA0646002846D001F094FABA
:106844000023082203A9304601F0A1FA0027BDF86D
:106854000C20C2F38312BB00974203F10803BED29B
:1068640002994A1C21400331029205EB8101042262
:10687400304601F08CFA0137E9E7304601F078FA46
:10688400FFF72CFF80F00100C6B2B3E7E3685B7941
:1068940023B1236831461B6820469847E3681C6887
:1068A400002CF3D1304601F063FA0DF107008DF8A6
:1068B400074000F01FFFD5F818340BB9029B6B603A
:1068C4009DF8070000F03AFFDAE7D5F8104454B910
:1068D4000C4B0D480D49C01AC008000440F00200DA
:1068E40000F062F8CCE7236820469B689847E36889
:1068F4001C68ECE700267DE7142C002090C40200FD
:10690400202C0020A4C40200CCC4020044C5020010
:106914002DE9F74F224D04460F46924601A9012264
:106924001846D5F808909B46FFF70AFE20B3019E4F
:106934004FF00008B21CD84508EB020126D11948D3
:10694400002100F02DFF80F31000000440EA144001
:10695400E400731C04F0380403EA090306EA090698
:1069640044F0010405EB8303033644EA881444EA43
:106974008724D86045F8264095F820341BB1FFF7EA
:10698400B7FE0028FBD103B0BDE8F08F09EA01018E
:1069940005EB81015AF82830CB6008F10108CAE7F9
:1069A400142C00203030002000231A46FFF7B0BF1B
:1069B40007B50123019201AAFFF7AAFF03B05DF80E
:1069C40004FB07B5CDE9002302236A46FFF7A0FFC5
:1069D40003B05DF804FB0000094A38B50123D2F87E
:1069E400104482F820341D4604B938BDE3685D7153
:1069F400236820465B689847E3681C68F4E700BF97
:106A0400142C002007B503460846197A052911D02D
:106A14005B7A2BB1094A0A49019000F057FF0198AB
:106A24000849019000F052FF019803B05DF804EBAF
:106A340000F041BF002AF8D0F2E700BF59C50200B8
:106A44005EC502007EC5020030B5C38885B0044629
:106A54000D4633B1144A00921449154A284600F0F1
:106A640035FF217A05291DD0637A4BB1A088FFF741
:106A74001FFE104B104953F82020284600F026FF33
:106A8400227A0E4BA08853F8222003920021FFF7AC
:106A9400F3FD039A0A490346284605B0BDE8304091
:106AA40000F014BF05B030BD59C5020069C502002D
:106AB40061C50200E8C502005EC502000CC6020002
:106AC40081C502002DE9F04385B01F460C9D0023CB
:106AD40095F80C902B7306460C469046294638468A
:106AE400FFF7B2FFB8F1060F09D8DFE808F0041287
:106AF400181F283340003146284600F0E7FE0022E4
:106B040029463846FFF77EFF85F80C9005B0BDE8AE
:106B1400F08322683146284600F0D8FEEFE7D4E936
:106B240000233146284600F0D1FEE8E7A36800932D
:106B34003146D4E90023284600F0C8FEDFE7E368C5
:106B44000193A36800933146D4E90023284600F05A
:106B5400BDFED4E723690293E3680193A36800931D
:106B64003146D4E90023284600F0B0FEC7E7636944
:106B7400039323690293E3680193A3680093314666
:106B8400D4E90023284600F0A1FEB8E708292DE93E
:106B9400F74F80460E4617461C4639D8002593F811
:106BA4000C901D7319461046FFF74EFFDFF880A0C6
:106BB400DFF880B0AE422ED918F805205946204699
:106BC40000F084FE0135082DF4D11849DFF868A0DF
:106BD400DFF868B0204600F079FE0025AE421FD9E8
:106BE40018F805200192104605F032F80028019AA1
:106BF400594608BF2E22204600F068FE0135082DB4
:106C0400ECD1012221463846FFF7FCFE84F80C90B3
:106C140003B0BDE8F08F5146204600F057FED1E79F
:106C24005146204600F052FEE8E700BF95C5020039
:106C340091C502008BC5020093C5020097C50200EE
:106C44002DE9F04F364E87B04FF00009354B1B78D5
:106C54005FFA89F5AB4202D807B0BDE8F08F324B3A
:106C6400D3F800A01AF835000124D6E9001EA0F1DB
:106C74002002C0F1200304FA02F224FA03F31343BE
:106C840004FA00FC059301EA0C030093059B0EEA49
:106C940003030193DDE9002313430AEBC50B3BD047
:106CA400059B21EA0C012EEA0303C6E9001301F057
:106CB40087FD01461AF835001C4DA0F12002C0F1F1
:106CC400200304FA02F224FA03F31343D5E900C2C1
:106CD4008440134004EA0C040393A0F12002C0F1A1
:106CE400200321FA03F3029401FA02F848EA0308A4
:106CF400DDE9023401FA00F7444508BFBB420BD179
:106D0400DBF8043043B19BF80120541E6242624117
:106D1400551A69426941984709F1010996E700BF8C
:106D240068300020383000207030002060300020AF
:106D3400F8B506461E4800F0C3FBC0BB0125A6F10A
:106D44002004C6F1200325FA03F305FA04F41C43D6
:106D5400184BD3E900C2B5400CEA050002EA04016D
:106D640001431F461DD1304601F02AFD124BD3E9E1
:106D7400001288B129432243C3E90012D7E9002352
:106D84001C430E4B0A4819681543C7E900540022F6
:106D9400BDE8F84000F04CBB21EA050122EA0402F8
:106DA400EAE72CEA050522EA0404C3E90054F8BD25
:106DB4004030002068300020603000203C3000204B
:106DC400042A2DE9F34105460C46164639D901F04B
:106DD40037FCD8B11C4B1D491D601D4BDFF8848066
:106DE4001C701C4B00221E600023C1E900231A49B9
:106DF400C1E90023013CE4B200260327FF2C0CD197
:106E0400164A1748002100F001FB03E001F0DEFB05
:106E14000028DFD002B0BDE8F08105EBC40315F80B
:106E240034009B788DF80660424601A98DF8047001
:106E34008DF8053001F00EFC013CE4B20028DDD0F1
:106E4400E8E70720E6E700BF70300020603000204C
:106E5400383000203C30002068300020456C0200AF
:106E640020C60200356D020070B5084D084E00249E
:106E74002B789C4201D3002070BD3368012113F8A4
:106E8400340001F059FC0134F2E700BF383000202F
:106E9400703000201FB50021039001AA44F20100C4
:106EA400CDE9011100F004F805B05DF804FB000021
:106EB40010B572B6FFF790FDFFF71AFC0028FBD15E
:106EC400104B114C1149E41AE408240444F0010065
:106ED400FFF76AFD0E4B1B68DB0700D500BE0D49AA
:106EE40044F00200FFF760FDBFF34F8F0A490B4BDC
:106EF400CA6802F4E0621343CB60BFF34F8F00BF54
:106F0400FDE700BFA4C40200CCC4020024C60200F2
:106F1400F0ED00E030C6020000ED00E00400FA05E8
:106F240049B152B1531E1A4007D182600160838077
:106F3400C260104670470E2070470920704710B594
:106F44008468C2688388121B934208D3C2681340C2
:106F54000268D154C3680133C360002010BD04200B
:106F6400FCE78268C3689A420AD082688388134027
:106F74000268D35C0B708368013383600020704720
:106F840005207047094A537891780133DBB299425E
:106F940008BF0023117899421FBF0370507818234B
:106FA40003FB002014BF043000207047743000201D
:106FB40073B5054600240DF107000E468DF8074011
:106FC40000F098FB0DF10600FFF7DCFF90B10670AE
:106FD400094B9DF8062045605A709DF8070000F0A3
:106FE400ADFB24B9054B4FF48012C3F800212046B1
:106FF40002B070BD0424F0E77430002000E100E02A
:10700400024B4FF43C6043F00103184740C60200B2
:1070140038B50C4B0C4C4FF40032C3F880200125DA
:107024004FF48033C4F84833C4F808336560FFF77D
:10703400E7FF064BA56000241C60FFF7E1FF044B4B
:107044001C7038BD00E100E00010014090310020C8
:1070540081310020F8B51F4B1F491B680025C1F87A
:107064004051C1F84451C1F84851C1F84C51C1F8DC
:107074000051C1F804514BB3D1F8044517490968CC
:10708400641A24F07F442F461A68A24209D8A41A2D
:1070940015441A7CDE691AB1D3E905201F749047A0
:1070A400AEB90F4A0F4B11781B788B4205D10133CF
:1070B400DBB2022B08BF0023137012780A4B43F88B
:1070C40022500A4B4FF48012C3F80021F8BD334616
:1070D400DAE700BF94310020001001409031002015
:1070E4008D3100208C3100208431002000E100E04B
:1070F4002DE9F04FA24AA34913780978A24D994289
:1071040085B03CD00133DBB2022B08BF00231370DF
:107114009E4912789E4B0F6853F822003B1823F0C7
:107124007F4300220B602B6816461446944613B91D
:1071340042B12B6006E0196881420ED902B12B607E
:10714400091A196001272B68DFF84CA201934FF04C
:107154000008BEB9DFF848B262E0401A0C44D968AE
:10716400D3F81CE0C3F800C031B13A1922F07F42D1
:10717400C3E90121DE611E4673460122D7E70026DA
:107184003746E0E73446F669804A63681268DFF8F8
:1071940014C2A068991A21F07F41614500F2A880C9
:1071A40001442160012222742A680023C4E90133C6
:1071B400E361002A40F0A5802C60CAE79BF8021026
:1071C4005A1CD2B291428BF8002004BF00228BF8E3
:1071D4000020182202FB03B32A6819799C6802294B
:1071E40077D0032900F08180012919D1207CB8B916
:1071F400D3E90312A2605A69E2609A69654BA261FD
:107204001B78002B0CBF0B4603466360BCE78C4223
:1072140000F094808946C9690029F8D100232374B9
:107224009BF800309BF801209A42C7D12B68B8F133
:10723400000F04D1019A9A4201D1002F43D0002BB0
:1072440079D0D3F800A0544D504BD5F804751C6880
:10725400DFF854813E1B98F8003026F07F46033651
:107264009BB94FF48033C5F84433C5F804334B4B12
:107274004FF400324FF00109C3F880211A60C5F8B9
:107284000090FFF7BDFE88F80090B2452CBF54442F
:10729400A41924F07F44C5F84045D5F80435DB1B18
:1072A40023F07F43E41B033324F07F44A3420AD931
:1072B400D5F80435C5F84035FFF7A2FE374B4FF437
:1072C4000032C3F80021334B00221A7005B0BDE828
:1072D400F08F114691469FE71174D2690123002A69
:1072E400FAD1002B9CD02A609AE700231946F6E7CE
:1072F400D31A23F07F43834234BFC31A002323608D
:1073040050E721681368994213D8591A1160E26151
:1073140052E7091AD8691A4638B1034618688842F0
:10732400F7D3401A1860184613462160E061DC6107
:107334000FE71346F2E7FFF76BFEC4E74C4511D1A4
:10734400D3692B6073B9DFF844E00120CDE9021260
:10735400CAF80800CEF800300E4B1870FFF750FE44
:10736400DDE902120B68C969C9F81C1011B108687B
:1073740003440B602B68934218BF4FF001084DE79C
:107384008C3100208D310020943100209031002078
:1073940084310020803100200010014000E100E031
:1073A40074300020FEFF7F008131002008B5FFF714
:1073B4002FFE104B00200B2218809A700E4B186081
:1073C4000E4B18700E4B18700E4B4FF48012C021E8
:1073D400C3F8802183F814131A6002F18042A2F5E5
:1073E4006F22C2F8080583F81113074BD2F804255D
:1073F4001A6008BD74300020943100208C310020C4
:107404008D31002000E100E090310020074B9B7893
:107414004BB132B128B10368187C20B959745A6150
:107424007047072070470820704700BF7430002061
:107434002DE9F743DFF8848098F8023005460E46BC
:107444001746ABB3A0B3042930D9436983B3437C53
:107454000024012B0DF107000CBF8946A1468DF8CD
:10746400074000F047F90DF10600FFF78BFDD8B196
:10747400012303700F4B4560D3F80435C0E904972A
:10748400C0E902369DF8063088F801309DF80700FF
:1074940000F054F924B9084B4FF48012C3F80021CA
:1074A400204603B0BDE8F0830424EFE70724F7E7A0
:1074B4000824F5E70010014000E100E074300020EA
:1074C400064A92783AB130B1426922B1002202747C
:1074D4000221FFF76DBD0820704700BF7430002003
:1074E4000648074A03780749D35C012213B10430E4
:1074F40001F072BE0C3001F053BC00BFA02A002082
:10750400FC310020C03100200648074A03780749AF
:10751400D35C012213B1043001F010BE0C3001F031
:10752400EDBB00BFA02A0020FC310020C1310020A7
:1075340037B50578012D0BD0022D2CD0F5B91D4996
:107544001D48FFF70EFD002830D1FFF7DDFF15E0E1
:1075540043681A4C19782046FFF7F1FC80B18DF886
:1075640000500190164B68461B689847A168E36871
:10757400A2885B1A9A420AD3FFF7B2FF03B030BD68
:10758400A268E3689A42F1D08DF80000EAE70D4B57
:1075940001221A70F2E7C3688DF800500193FFF7D7
:1075A4009FFF074B68461B689847E7E703238DF85E
:1075B4000030F6E7C1310020B03100209C310020BA
:1075C40098310020AC310020F0B51F46234B89B020
:1075D40004461A600D4600293DD08A88204809686F
:1075E400FFF79EFC002834D1AA89A9681D48FFF73B
:1075F40097FC00282DD11C4E0FCE6D460FC596E882
:107604000F0085E80F0063690693237C174A184826
:107614008DF81C70003B18BF01238DF81430637C77
:10762400002B14BF0E2300238DF81530E36802935A
:10763400A36803932368019369466368009300F089
:10764400FBFE30B90B4B18702368013301D0FFF7F0
:1076540047FF09B0F0BD0720FBE700BF98310020C9
:107664009C310020B031002048C60200357502006C
:10767400A02A0020AC31002070B5084D014608480E
:107684002E78FFF76EFC044636B100232B70FFF70B
:1076940027FF08B1FFF7FEFB204670BDAC31002088
:1076A4009C31002010B501460E48FFF748FC044603
:1076B400A8B90D480D4A0378D35C63B1043001F0D6
:1076C4007FFD60B90A490748FFF74BFC38B9BDE8AC
:1076D4001040FFF719BF0C3001F056FBF1E72046CC
:1076E40010BD00BFB0310020A02A0020FC310020D2
:1076F400C131002070B5EFF3108672B60C4A94685D
:1077040001239CB993600B4B0B4DD3F88010294097
:107714001160C3F88050D3F8841051604FF0FF32E9
:10772400C3F88420047006B962B670BD0370FAE72A
:10773400C431002000E100E0FC06FFBD084B9A685C
:1077440010B55AB150B9EFF3108172B6054A1C68EE
:1077540014605C685460986001B962B610BD00BFE3
:10776400C431002000E100E001F01F024B090121B7
:10777400914000EB830000F01EB801F01F030122CA
:107784009A404B0900EB8300D14300F02CB84B091D
:1077940001F01F0150F82300C84000F001007047B9
:1077A40010B5034653E8000F0A4643E8002494F05A
:1077B400000FF7D110BD10B5034653E8002F42EA7D
:1077C400010043E8000494F0000FF6D110BD10B599
:1077D400034653E8000F00EA010243E8002494F052
:1077E400000FF6D110BD10B5034653E8002F02EA8E
:1077F400010043E8000494F0000FF6D110BD10B569
:10780400034653E8002F02EB010043E8000494F020
:10781400000FF6D110BD10B5034653E8002FA2EBBC
:10782400010043E8000494F0000FF6D110BD0121DB
:10783400FFF7C1BF0021FFF7CABF37B505460024D3
:107844000DF107008DF80740FFF754FF2A686B68B5
:10785400116899420ED9481E106011F8014CEB686A
:10786400298A01FB0434AB6811791B1ADBB29942F3
:1078740038BF13719DF80700FFF760FF204603B07F
:1078840030BD37B5054600230DF107000C468DF8D1
:107894000730FFF72FFF2A681368591C1160E96845
:1078A400641A298AB4FBF1F41C709DF80700FFF7F1
:1078B40045FF03B030BD826810B504462AB1436960
:1078C4000168006998470023A36010BD0EB403B596
:1078D400039921B104AB01AA019300F06FF802B03F
:1078E4005DF804EB03B07047826830B40468551C3B
:1078F4008560A154D0E901329A4202D330BCFFF72B
:10790400DABF30BC704700002DE9F84F9846DDE936
:107914000A43154682460F460A464FF00109AA4219
:107924000FD2C14538BFC14613F0010B01D16CB968
:1079340000240126B8F1010F1BD908F1FF386E436A
:10794400F8E709F10109B2FBF5F2E8E79B070ED568
:10795400B8F1000F0CBF30262026A145E9D2013C26
:1079640031465046FFF7C0FF002CF6D1E0E7202651
:10797400F3E7B7FBF6F39D42E1D9DFF83C80B7FBB0
:10798400F6F3504618F8031006FB1377FFF7ACFF25
:107994003346AB42B6FBF5F6F1D2BBF1000F02D091
:1079A4000CB1A14501D3BDE8F88F20215046013C1C
:1079B400FFF79AFFF4E700BF68C602002DE9F74F0E
:1079C400054617468846002900F0428118F8011B35
:1079D40049B92B7B002B00F03B81284603B0BDE85E
:1079E400F04FFFF768BF252940F0B780002698F8CC
:1079F40000302D2B424608F1010823D0302B24D02F
:107A04002B2B25D000242A2B02F1010123D13B6822
:107A14001A1D1B683A601C440A4613782E2B26D183
:107A240001324FF0000A104610F8011BA1F1300C8E
:107A3400BCF1090F1DD80A2303FB0A13A3F1300A72
:107A44000246F0E746F00106D1E746F00206CEE72B
:107A540046F00406CBE711F8013CA3F130000928F5
:107A6400DBD80A2202FB0434303C0A46CBE74FF051
:107A7400000A12F8011B01F0FB0068289046F8D0B8
:107A8400782909D86F290CD8632962D022D82529EE
:107A940063D0582900F0888098F80030002B95D1E5
:107AA40097E770390829F7D801A353F821F000BFEC
:107AB4002F7C02009D7A02009D7A0200BD7B0200A9
:107AC4009D7A02009B7B02009D7A02009D7A02004F
:107AD400AD7B0200642901D06929DDD13A68D2F86E
:107AE4000090111D89EAE9723960A2EBE9724FF046
:107AF400010B092A35DCD34538BFD3462CB1B9F183
:107B0400000F01DB720700D5013CB30702D5BAF1BF
:107B1400000F03D0F00701D44CBB0024B9F1000FCF
:107B24002DDAC9F100092D212846FFF7DDFE06F004
:107B34000302022A04D1BAF1000F01D11CBB0024B4
:107B4400CDE9004653460A2249462846FFF7DCFEA3
:107B5400A2E73B681A1D19783A602846FFF7C4FE6D
:107B64009AE70A230BF1010BB2FBF3F2C1E7A34539
:107B7400D4D220212846013CFFF7B6FECCE771079A
:107B8400D5D52B21D0E7A345DAD230212846013CB4
:107B9400FFF7AAFED2E73968CDE900460A1D3A602C
:107BA40053460A220968D0E739680A1D3A60CDE9CC
:107BB400004653461022F5E73B681A1D3A6016F05A
:107BC4000106D3F8009028D1B9F1000F03D048463C
:107BD40004F0C5F80646B44200D904BB09F1FF39E4
:107BE40019F8011F00293FF457AF2846FFF77CFE20
:107BF400F6E728460136FFF777FE19F80610002944
:107C0400F7D1A642BFF448AF002C3FF445AF202182
:107C14002846013CFFF768FEF3E70026EDE7202144
:107C24002846013CFFF760FED5E73B681A1D3A6021
:107C3400302128461C68FFF757FE78212846FFF7B5
:107C440053FE00220823CDE90032214610227CE7AE
:107C540003B0BDE8F08F00BF2DE9F84FB0F806A0DF
:107C64004579D2F800B09DF828900AFB05F5043D4B
:107C740088460BEB0301A94203F1040488BFA5EB7A
:107C8400030BB4FBFAF607460AFB1644C2F800B02D
:107C94004EB9AAEB04055D4528BF5D46BBF1000F54
:107CA40004D1BDE8F88F3F68013EF1E7043408EBE6
:107CB40006003C442A46B9F1000F0DD02146ABEB37
:107CC400050B03F0F0FFDA452E443F6855464FF0AC
:107CD400000428BF5D46E1E701462046EFE7F8B51A
:107CE40046790146721E0546002393422D6803D34C
:107CF4000024A64202D8F8BD0133F6E70F682846EF
:107D0400FFF7BFFD01343946F3E72DE9F843068A4E
:107D1400CD1C0746FFF791FD043E35440446B5FBF0
:107D2400F6F5F0B14FF48073EDB28380C680013D67
:107D3400076081464FF00008A84512D23846FFF785
:107D44007CFD064648B163790133637108F101088B
:107D5400C9F8000007608146EEE72046FFF7BFFF41
:107D640034462046BDE8F88301210430FFF747BDBF
:107D740010B5012104460430FFF74DFD10F0FF0F4C
:107D840004D12046BDE81040FFF7A9BF10BD1FB5C0
:107D940003920022009203AAFFF75EFF05B05DF88C
:107DA40004FB1FB503920122009203AAFFF754FFBC
:107DB40005B05DF804FB41DF70470000064B10B5C9
:107DC40000241C70054B1C60BFF35F8F04490548F9
:107DD40000F030F8204610BDD8310020DC310020FE
:107DE40084C60200D031002007B500230DF107003E
:107DF4008DF80730FFF77EFCF1EE103A23F09F0375
:107E0400E1EE103ABFF35F8F094B4022C3F884219F
:107E14009DF80700FFF792FC03F09AFC20B1FFF7EE
:107E2400CAFF03B05DF804FB20BF40BF20BFF8E7E2
:107E340000E100E00B684A684360934208BF0023F6
:107E4400016008BF43607047436843B102689168AA
:107E540052680B449342436004BF0023436070475D
:107E640010B50D49A1F59472914201D800200FE09C
:107E74008C1AE30F03EBE4035B1002EBC30452F828
:107E84003330834205D802D204F10802ECE760687B
:107E940010BD2146E8E700BF88CB020008B5FFF714
:107EA400DFFF024B002808BF184608BD4ACA02007B
:107EB4000C4B1B78062B10D10B4B1B681A070CD1EB
:107EC4000A4B186800F0F003302B08D000F0E000F3
:107ED400A0F14003584258417047002070470120E8
:107EE400704700BFE00F00F0E40F00F0E80F00F06F
:107EF400094B1B78062B0CD1084B1B681A0708D1B9
:107F0400074B186800F0F000A0F1300358425841C4
:107F140070470020704700BFE00F00F0E40F00F04E
:107F2400E80F00F008B5FFF7C3FF28B17D4B7E4A88
:107F34001B68C3F304231360FFF7DAFF10B17B4B14
:107F44007B4A1A60FFF7B4FF28B17A4B7A4A1B6860
:107F5400C3F342331360FFF7CBFF20B1774AD368F2
:107F640023F08073D360FFF7A3FF40B14FF0804349
:107F74000022C3F80C21C3F81021C3F83825FFF7F9
:107F8400B7FF10B16E4B03221A60FFF7B1FF40B187
:107F94006C4B05221A6001229A6700229A603F22E4
:107FA4005A60694B1B78062B50D1684B1B68190724
:107FB4004CD1674B1B6803F0F003502B46D14FF0B4
:107FC4008052644BD2F80414C3F82015D2F8081474
:107FD400C3F82415D2F80C14C3F82815D2F81014D9
:107FE400C3F82C15D2F81414C3F83015D2F81814A9
:107FF400C3F83415D2F81C14C3F84015D2F8201471
:10800400C3F84415D2F82414C3F84815D2F8281438
:10801400C3F84C15D2F82C14C3F85015D2F8301408
:10802400C3F85415D2F83414C3F86015D2F83814D0
:10803400C3F86415D2F83C14C3F86815D2F8401498
:10804400C3F86C15D2F84424C3F87025FFF730FF49
:1080540028B1414B414A1B6803F04F031360FFF7FB
:1080640027FF48B14FF08043D3F80024D20744BF20
:108074006FF00102C3F80024394B1B68062B08D1AA
:10808400384B1B68062B01BF374A136843F48063DF
:108094001360364AD2F8883043F47003C2F888304B
:1080A400BFF34F8FBFF36F8F4FF01023D3F800222D
:1080B400002A03DBD3F80432002B2FDA2C4B0122E5
:1080C400C3F80425D3F80024002AFBD04FF0102273
:1080D4001521C2F80012D3F80024002AFBD04FF077
:1080E40010231522C3F80422214B1A46D3F8001496
:1080F4000029FBD00021C3F80415D2F80034002B6A
:10810400FBD0BFF34F8F19491A4BCA6802F4E062DF
:108114001343CB60BFF34F8F00BFFDE7164B174AE5
:108124001A6008BD240300104035014074C00740A4
:108134000DF0ADBA440200103C050040F0ED00E043
:10814400A005004010560040E00F00F0E40F00F0DE
:10815400E80F00F000C0004058020010E40E004098
:1081640030010010340100103C17004000ED00E025
:1081740000E001400400FA05B42A00200090D00376
:10818400054A4FF0A043105CD3F8043523FA00F0FD
:10819400C04300F0010070478CCB0200044B1A5C12
:1081A400012393404FF0A042C2F80C35704700BF42
:1081B4008CCB0200044B1A5C012393404FF0A04285
:1081C400C2F80835704700BF8CCB020008B5002008
:1081D400FFF7F0FF0120FFF7EDFF0220FFF7EAFFB2
:1081E400BDE808400320FFF7E5BF08B50020FFF70E
:1081F400D5FF0120FFF7D2FF0220FFF7CFFFBDE834
:1082040008400320FFF7CABF074A4FF0A041105CA3
:10821400D1F804350122824022EA03001340C1F858
:108224000805C1F80C3570478CCB0200054A4FF0A5
:10823400A043105CD3F8103523FA00F0C04300F0DB
:108244000100704788CB02000D2809D00E2809D000
:108254000F2809D010280CBF03204FF0FF307047BF
:10826400002070470120704702207047014B185CC2
:10827400704700BF88CB0200C20708B501460CD581
:108284004FF0A0430322C3F84427C3F84827C3F898
:108294004C27C3F85027FFF799FF8B070AD54FF0F7
:1082A400A0430C22C3F83427C3F83827C3F83C276B
:1082B400C3F8402708BD000038B5074C051E04F17B
:1082C400080318BF1C4623682BB11A6822605B6838
:1082D40028469847F7E738BDE831002020B9054B18
:1082E40001225A70FFF7E8BF012802D1014A9070B9
:1082F400F8E77047E031002020B9034B01225A709F
:10830400FFF7DABF704700BFE031002038B50B4CEF
:10831400237883B90A486360A3602361E36000F0B3
:10832400D3F8054603F014FA08B900F0D9F801238C
:108334002370284638BD8525FBE700BFE0310020C7
:10834400E182020037B50B4C00230DF107008DF8D4
:108354000730FFF7CFF9E368013BE360E56815B93F
:1083640000F0D2F8A5709DF80700FFF7E7F903B015
:1083740030BD00BFE0310020012813B508D0032828
:108384001CD018B9104B0122C3F8802002B010BDD4
:108394000E4C00230DF107008DF80730FFF7AAF902
:1083A40023780BB9FFF7B2FFE3689DF807000133A8
:1083B400E3600123A370FFF7C1F9E7E700F090F849
:1083C400FFF7C0FFE2E700BF00E100E0E03100207A
:1083D4001FB503788DF8003043680193037A8DF854
:1083E4000830C368054A0393054B684653F82130A7
:1083F40052F82110984705B05DF804FBF4310020D1
:10840400F83100201FB503788DF8003043680193DC
:1084140083688DF80830C368054A0393054B6846A2
:1084240053F8213052F82110984705B05DF804FB49
:10843400F4310020F8310020F0B5194B90F800C059
:1084440091F81DE043F82C20164B16460A6943F8B0
:108454002C20154B03F80CE00C4607460FCC89B0D2
:108464006D460FC594E80F0085E80F00CDF810C0E5
:10847400BEF1000F09D0002E0C4A694608BF3246EF
:10848400381D00F093FD09B0F0BD002E084A69467E
:1084940008BF324607F10C0000F070FBF3E700BFA1
:1084A400F8310020F4310020FC310020D583020093
:1084B4000984020000F18040002382B00360036855
:1084C4000193019B02B07047044A137923B9012137
:1084D4001060918018467047852070470032002054
:1084E400084B1A68D20706D4C02283F8002301225D
:1084F400C3F880211A604FF080430122C3F8182585
:10850400704700BF00E100E0044B01221A604FF005
:108514008042D2F81834DB03FBD470470C000040CF
:10852400124B1B6810B573B14FF48070FFF7C2FF94
:108534004FF080430122C3F808230D4B587910B93A
:108544005A711B6898470B4B1B6873B14FF48270C8
:10855400FFF7B0FF4FF080430222C3F80823044B17
:10856400BDE810401B680120184710BD0001004001
:10857400003200200401004000F1804000F5C040BA
:10858400002382B0036003680193019B02B070472B
:10859400800000F1A040D0F8002722F44032C0F857
:1085A4000027D0F8003743EA0141C0F800177047AC
:1085B400054B4FF0FF32072843F8202084BFC01832
:1085C40080F84820704700BF0832002010B5184CCE
:1085D40094F8583053BB04F130032021FF220139B1
:1085E40011F0FF0103F8012BF9D1C8B2FFF7E0FF46
:1085F40001310C29F9D1042200210E4803F07CFB3F
:108604000D4BC02283F806234022C3F880214FF487
:10861400BE701A60FFF7B0FF084B4FF00042C3F87A
:108624000423012384F85830002010BD0820FCE7FF
:10863400083200205C32002000E100E000600040CD
:10864400034B93F85800003818BF0120704700BF4F
:1086540008320020F0B5364D2C1894F93040002C27
:1086640064DA8C78C4F34004002C0BBF0823002385
:108674000C260826B34201D10420F0BD55F823701E
:1086840001373FD12E1845F8232086F8303014B92D
:10869400EA1882F848008A78540713D4D60733D5E9
:1086A400820002F1A042D2F8004724F00204C2F88A
:1086B4000047204EC20800F007070124BC40B75C05
:1086C4003C43B4548A780C7812F0020225D09B0003
:1086D40003F1804303F5C0430202D3F8101521F4DB
:1086E400473121F44071C3F810152404D3F8101550
:1086F40002F4F85204F4403422430A43C3F8102528
:108704000020BAE70133B5E74C7800F5E0724FF08A
:10871400A046A40046F82240CBE7083B2B4493F83C
:10872400501041EA841483F85040E9E70820A4E794
:10873400083200205C32002038B51F4C251895F90A
:108744003020072A16DD224492F848309B09032B77
:108754000BD14FF0A043D3F81015C14001F0010133
:108764000231BDE83840FFF713BF012B0CBF0221D3
:108774000321F6E7D3B2072B1CD8930003F18043FF
:1087840003F5C043D3F8100540F00100C3F8100509
:1087940002F14000800080B2FFF7EEFE51B195F97E
:1087A400303054F823302BB1012303FA02F2034B87
:1087B400C3F8042338BD00BF083200200060004025
:1087C4004FF0A043D3F8103523FA00F000F0010075
:1087D400704700002DE9F04F87B000245A4D0394F0
:1087E4004FF48072012102F1804303F5C04390B23B
:1087F4001B68012B06D1D5F804330B4202D0FFF7D6
:10880400BBFE0C430432B2F5907F4FEA4101EAD13A
:108814004E4B1B68012B0AD14FF4BE70FFF7ACFE20
:108824004FF0A04344F00044D3F81035039314F000
:10883400FF0F1AD0464F00250126344210D0AB005A
:1088440003F1804303F5C043D3F81005D3F81015A2
:1088540057F8253023B1C1F30141C0F304209847F0
:108864000135082D4FEA4606E7D1002C65DA0021D0
:108874004FF0FF33CDE90413354D01274FF0000AC3
:10888400344ED1464FF0A04816F9013B5A1C45D04E
:10889400C3F3C20106AA5018DCB210F8042C03F08A
:1088A4003F0B03F0070307FA03F31A4236D005EB34
:1088B4000B02A40992F9302055F8222052B9032C56
:1088C4002CD10DF1100E1EF801C04CEA030C0EF869
:1088D40001C001E0032CF4D00BF5E07110F80C0C8E
:1088E40058F821101842C1F3014105D0022915D1CD
:1088F400032C0FD1214604E003290FD1032C09D105
:1089040002215846019209F10109FFF741FE019A3B
:108914005FFA89F912B12146584690470AF1010AD3
:10892400BAF1040FB0D1B9F1000F06D04FF0A04353
:10893400039AD3F81035934202D107B0BDE8F08F03
:108944000393049B059399E7006000407C61004019
:108954000832002058320020014B1B68184700BF22
:10896400643200200E4B984237B50C4602D00020EA
:1089740003B030BD00230DF107008DF80730FEF77A
:10898400B9FE084B1D7915B901221C601A719DF8B6
:108994000700FEF7D3FE002DE9D01120E8E700BF61
:1089A40000200040643200200023435082B043582A
:1089B4000193019B02B070470A4610B54FF48E71C3
:1089C400FFF7F2FF136A9168C95C136A01331362FB
:1089D400C0F81C1510BD024608B500684FF492712A
:1089E400FFF7E2FF4FF484711068FFF7DDFF1368AF
:1089F40001221A6008BD8B690A4610B54FF48471D0
:108A040023B9FFF7D1FFD0F8183510BDFFF7CCFF1D
:108A1400536AD168D0F81805C854536A01335362B5
:108A2400F3E700001FB501238DF80030044BCDE9B6
:108A34000110D3E900126846904705B05DF804FBC5
:108A44006C32002030B54B48D0F8043313F4007F67
:108A540085B005464DD0D0F82431002B49D04FF4D1
:108A64009271FFF7A1FF4FF40173C0F80833424B32
:108A740093F829200AB9012242603E4902228DF866
:108A84000020D1F88024C1F8802403929A690292CC
:108A9400DA6801920022C3E906226846D3E900128B
:108AA40090473448D0F81C315BB133490A6A4B69AA
:108AB4009A420A464AD291F82830002B46D1FFF751
:108AC4007BFF2C48D0F844318BB14FF4A271FFF7EF
:108AD4006BFF294B93F829200AB1012202609A699D
:108AE4002AB10022586AD9689A61FFF79BFF05B042
:108AF40030BDD5F804335B07D3D5D5F80831002B46
:108B0400CFD01D4C1B482146FFF775FF636AA2694D
:108B14009A422346C5D1E269E1684AB12369E36018
:108B24000023606AA261E3616362FFF77BFFB8E739
:108B340094F829200AB901226A600E4A4FF40170A0
:108B4400C2F808030022586A9A61EEE74FF48E7166
:108B54000848FFF729FF51690029B2D00023029188
:108B640091688DF80030019153616846D2E9001391
:108B74009847A6E7002000406C3200202DE9F84316
:108B84005A4B057991462C2202FB0532064692F88F
:108B94002A200C469846002A40F0A48054490068D4
:108BA400FFF7E0FE0746002840F09E802168336806
:108BB400481C0BD04FF0A04001228A40C0F8082581
:108BC40001F5E0724FF0030C40F822C06068421CCB
:108BD4001FBF00F5E0724FF0A04C4FF0000E4CF8B0
:108BE40022E0A269C3F8242594F814C0627DBCF184
:108BF400010F4CEA0202C3F86C25C3F81405C3F84C
:108C04000C151DD1A1684A1C1FBF01F5E0724FF07D
:108C1400A0404FF0000C40F822C0E268501C0BD07A
:108C24004FF0A04C01209040CCF8080502F5E0700C
:108C34004FF0030E4CF820E0C3F80825C3F81015D4
:108C44002C236B4308EB0302C2F80490226948F812
:108C54000320B9F1000F32D03068227F4FF48E71B7
:108C6400FFF7A2FE30684FF4A271FFF79DFE336850
:108C74002049C3F80413190B43F30733002BA8BF8F
:108C840003F160404FEA5313BCBF01F00F041A48CC
:108C94004FEA4212A8BF00F561404FEA8303D2B203
:108CA40003F16043B4BF025580F8002303F5614328
:108CB40001F01F0101228A40C3F880211A60336841
:108CC4000422C3F800252C2303FB05830022C3E9F7
:108CD400062283F829205A61012283F82A20384683
:108CE400BDE8F8830827FAE71127F8E76C3200207B
:108CF400498A02008000020014ED00E02DE9F843E7
:108D0400204B07794FF02C0909FB073405466669A7
:108D14009846002E33D100686261A16026624FF448
:108D24008E7184F82860FFF73FFE28680123836072
:108D34002146FFF741FE6368A14683B92868226A89
:108D440063699A4211D32B68D3F81C21002AFBD003
:108D54000122DA602C2303FB078300225A61304688
:108D6400BDE8F88394F828303BB9D0F81C31002BC7
:108D7400F8D04946FFF720FEE1E70F26EAE711267F
:108D8400EDE700BF6C3200200379044A2C2101FB7B
:108D940003235869003818BF012070476C32002043
:108DA4002DE9F843394F05792C2303FB0573064657
:108DB4005C6824B103684FF40170C3F808032C23E2
:108DC40003FB0573986950B1D86900283ED024B1DB
:108DD40033684FF40172C3F80423112433E09A6119
:108DE400D9605862D8612C2303FB057393F82930AA
:108DF4001BB910B93046FFF7EEFD4FF02C0909FB03
:108E040005783068D8F80430002B34D14FF4A271BF
:108E1400C146FFF7C9FD3068D0F82431D0F80821E5
:108E2400D0F84441B2B90CB9002BF4D02C2202FB87
:108E340005750022AA6123BB2CBB95F82910336861
:108E44000122B1B11A602046BDE8F8831961DA61E4
:108E54000120C8E7002BE9D1002CE7D14946FFF7F0
:108E6400CAFDD8F82430D8F818209A42D3D823461B
:108E7400DCE75A60E7E74FF40173C0F804330024D9
:108E8400E1E70324DFE70F24DDE700BF6C320020B5
:108E94000023435082B043580193019B02B07047B2
:108EA4001FB501238DF80030054B8DF808000191A2
:108EB4006846D3E90012904705B05DF804FB00BF93
:108EC400983200207FB5374AD2F82461002E47D06B
:108ED40010464FF49271FFF7DBFF02238DF8003048
:108EE400D2F88034C2F880340393D2F83C358DF83C
:108EF40008302D4BDA6801920022C3E90622684645
:108F0400D3E9001290472748D0F844316BB14FF4AD
:108F1400A271FFF7BDFF244B9A6932B100229A6116
:108F2400D0F83C05D968FFF7BBFF1E48D0F82031C4
:108F3400A3B14FF49071FFF7ABFF1B4B5A696AB1B1
:108F4400D0F84C158DF80810002299688DF800208F
:108F540001915A616846D3E90012904704B070BD8C
:108F6400D2F81031002BCED04FF488711046FFF7A1
:108F74008FFF0D4BD2F83C0599698842C3D1DC6957
:108F8400D96864B1D2F8005225F02005C2F8005225
:108F94001A699C61DA60DE61FFF782FFB3E79C61C6
:108FA400FAE700BF00200040983200202DE9F84382
:108FB4005E4B06799146242202FB0632044692F85F
:108FC40020200D469846002A40F0AC80584900689D
:108FD400FFF7C8FC0746002840F0A68029682368EC
:108FE400481C0BD04FF0A04001228A40C0F808254D
:108FF40001F5E0724FF0030C40F822C06868421C8F
:109004001FBF00F5E0724FF0A04C4FF0000E4CF87B
:1090140022E0AA69C3F8242595F814C06A7DBCF13E
:10902400010F4CEA0202C3F86C25C3F80C15C3F80F
:1090340014051DD1A9684A1C1FBF01F5E0724FF049
:10904400A0404FF0000C40F822C0EA68501C0BD03E
:109054004FF0A04C01209040CCF8080502F5E070D8
:109064004FF0030E4CF820E0C3F80825C3F81015A0
:109074002423734308EB0302C2F804902A6948F8D6
:109084000320B9F1000F3CD020682A7F4FF4887187
:10909400FFF7FEFE20684FF49071FFF7F9FE206899
:1090A4004FF49271FFF7F4FE20684FF4A271FFF7BA
:1090B400EFFE23681F49C3F80413190B43F3073366
:1090C400002BA8BF03F160404FEA5313BCBF01F06B
:1090D4000F0519484FEA4212A8BF00F561404FEA54
:1090E4008303D2B203F16043B4BF425580F8002336
:1090F40003F5614301F01F0101228A40C3F8802176
:109104001A6023680822C3F80025242303FB06837E
:109114000022C3E906225A61012283F8202038463E
:10912400BDE8F8830827FAE71127F8E7983200200A
:10913400C98E02001003020014ED00E001F0604348
:10914400B3F1005F2DE9F041064632D11B4B07799C
:10915400242505FB073598466C6964BB6A61006881
:10916400A9604FF49071FFF793FE4FF4AC7130682F
:10917400FFF78EFE33686A69A968C3F84415C3F81B
:10918400482501229A606A6862B9D3F82021D3F88D
:10919400584152B9002CF8D00F24242303FB07872D
:1091A40000237B612046BDE8F081002C18BF0F240A
:1091B400F3E71024F6E71124F4E700BF9832002007
:1091C4000379044A242101FB03235869003818BF9A
:1091D4000120704798320020F8B501F06043B3F1E4
:1091E400005F04460F465ED10379304D242101FB14
:1091F4000351496821B100684FF40476C0F808634C
:10920400242000FB03539E6956B1D869002839D045
:1092140021B123684FF40472C3F80423112030E011
:109224009A61DF60DE6120684FF48871FFF730FED9
:1092340020684FF4A271FFF72BFE2368C3F834753E
:10924400C3F8382516BB01221A602179242202FBB7
:10925400015252680ABBD3F81041D3F84421D3F821
:109264002401144302D10028F5D02246242303FB11
:1092740001550023984218BF03209A42AB6118BFDE
:109284000F20F8BD1F61DA610126CCE7D3F8002274
:1092940042F02002C3F80022D7E74FF40472C3F867
:1092A40004230020EDE71020EBE700BF98320020F4
:1092B4000220FEF7A9BF00002DE9F04780460D46C5
:1092C400FEF7C2FF0328044610D8012D10D0022D4A
:1092D40030D05DB91A48FEF7F3F81A4B04EB440298
:1092E40013449E78184B1B5DB34219D0BDE8F08738
:1092F400144D00EB4002A918AE5C4A78470052B105
:10930400DFF84C900E484A464FF40041FEF790F8BF
:1093140008B989F800803B192B449A780A4B1A55EE
:10932400002EE3D0094B1B68002BDFD03046BDE88C
:10933400F047184700EB4004024804446678EFE71E
:10934400E032002020330020393300203433002061
:10935400BC32002000780221FFF7AEBF08B5094BEC
:109364001B7853B10020FEF725FF0120FEF722FFF2
:10937400BDE808400320FEF71DBFBDE80840FEF726
:1093840025BF00BFBD320020F8B57B4C23780546CD
:109394001BB100232370FFF7E1FF172D00F2888033
:1093A400DFE805F00C17174354657680888D888DA7
:1093B400959A9A9A9A9AC4C9D1D9E4E4FFF7CEFF50
:1093C4006E48FEF77DF86E4B002204461A70204664
:1093D400F8BD0020FEF7D4FEF8B10020FEF7EAFE47
:1093E400022D0CBF4FF4E1614FF47A61644B1D70A0
:1093F4004FF400404FF4FA740025E0FB01454FF4AC
:109404007A7200232046294602F02EFB00220146F0
:10941400BDE8F8405948FEF70BB8FEF7BFFE022D31
:109424000CBFC8214FF4C871E0E70020FEF7A8FE86
:1094340040B10020FEF7BEFE4FF44871504B0322AA
:109444001A70D5E7FEF7AAFEC821F7E70020FEF759
:1094540097FE38B10020FEF7ADFE4FF47A61484B19
:109464000422EDE7FEF79AFE4FF4C871F7E70020F7
:10947400FEF786FE48B10020FEF79CFE404B052215
:109484001A7041F69A110022C2E7FEF787FEF5E74B
:109494000020FEF7B9FE3A4B06221A70002240F66D
:1094A400CD41B5E70020FEF779FE354B07221A704F
:1094B40000248CE701202070FEF7A6FEEEE70120D1
:1094C4002070FEF7A1FE00224FF48041A0E7FEF7D2
:1094D4008CFE2B4B0C22EAE72A482B4EFDF7F0FFBB
:1094E400D5F1110504461CD0D8B9012D13D0C823D9
:1094F4005D434FF400474FF4FA7000214FF47A7241
:109504000023C7FB050102F0AFFA224601461D48BD
:10951400FDF78EFF04460220FEF740FE0123337060
:1095240055E70220FEF746FE0023F8E7FFF716FF93
:10953400134B1222BBE7FFF711FF0020FEF72EFEAC
:109544000F4B1322B3E7FFF709FF0120FEF726FEB6
:109554000B4B1422ABE7FFF701FF0020FEF71EFEC2
:109564000120FEF71BFE064B1522A0E7FEF73DFE89
:10957400034B1D709CE700BF3033002000330020F4
:1095840038330020C0320020BD320020044B1B6859
:10959400DB0703D5034B1878FFF7F6BE704700BF0F
:1095A4002C33002038330020032801D8FEF73EBEB8
:1095B40000207047044B1B6813F0010301D0FFF730
:1095C400E3BE1846704700BF2C33002038B51C4B4F
:1095D40018601C4B10F00204054619601AD01A4B8F
:1095E4001A480E221A700F22DA7010229A71112270
:1095F4005A72042140F26662FDF7E2FB044648B960
:10960400FDF732FC044628B90146114A1148FDF71A
:10961400FDFE0446EB0711D50120FEF72DFE6CB9C3
:1096240021460D4A0D48FDF7F1FE044630B9BDE868
:1096340038400B4A0B480121FDF7E8BE204638BDEF
:109644002C3300203433002020330020B4CB02001C
:1096540059930200D8CB020091950200DCCB0200A2
:10966400B5920200D4CB0200032811D8012A0AD1F2
:1096740001290FD100F10E02D2B20D4B00EB4000D4
:109684001A54002070470129F7D0022904D049B1A7
:10969400072070470022F8E7054B00EB4000184410
:1096A4004270EEE7024B00EB400018448270E8E79A
:1096B40020330020032808B512D8FEF7D7FD800018
:1096C40000F1A040D0F8003723F44033C0F800374D
:1096D400D0F8003743F44033C0F80037002008BD09
:1096E4000620FCE708B5012202210020FFF7BCFF99
:1096F40008B1072810D1072202210120FFF7B4FF87
:1097040008B1072808D100210A220846FFF7ACFF58
:1097140010B1072808BF002008BD00000388102BE3
:1097240010B502D0112B1ED010BD1A4C2168B1B94E
:1097340001220846FFF798FF08B1072824D1072221
:1097440002210120FFF790FF08B107281CD1042251
:1097540002210020FFF788FF08B1072814D12368ED
:1097640001332360E0E70B4A1368013B1360002BCD
:10977400DAD1FFF7B7FF0028D6D0074B1B68002BC0
:10978400D2D0BDE810401847034B1B68002BE6D02D
:109794009847E4E7443300204033002008B5002014
:1097A400FFF788FF08B1062806D10120FFF782FFE2
:1097B40010B1062808BF002008BD00000D4B10B5ED
:1097C40018600C4629B10120FFF7EEFE40B10223D8
:1097D4002370094B1B6853B9BDE81040FFF782BFE3
:1097E400FFF7E2FE08B10B23F2E72070F1E7002057
:1097F40010BD00BF4033002044330020F0B58DB0CD
:1098040000F090F9144C154E154F00F0EDFB00F0EC
:109814006DFA44F0010400F029FC054600F040FC18
:10982400002101901F2204A8039102F065FA2A4640
:10983400019B314603A802F010FA2321384600F0B8
:1098440059F94FF47A754FF47A40A047013DFAD1A3
:1098540000F05AFADFE700BF20CC0200E0CB0200A0
:10986400FFCB020076DF70477ADF70477CDF7047FA
:109874007FDF70478FDF7047B1DF704733DF70479A
:10988400FDF708BB08B50020FFF794FE08B1FDF70B
:1098940001FBFFF783FF08B1FDF7FCFAFFF7EEFFCA
:1098A40018B1BDE80840FDF7F5BA08BD0388212BBF
:1098B40013B5044629D007D8112B21D0132B2CD053
:1098C400102B0CD002B010BD522B2ED0562B01D031
:1098D4003B2BF7D1A0881321FFF7C4FF0BE007202F
:1098E400FFF768FE08B1FDF7D5FA144BA1881448B8
:1098F400198001F0FBFC0028E4D0FDF7CBFAE1E786
:109904000E4B4FF6FF721A80DCE7002301A9808812
:10991400ADF80430FFF7AEFFEDE7084800231A4620
:1099240085210088FFF7A4FFE5E7044800231A46D1
:1099340019460088FFF7A0FFDDE700BFBE2A00201C
:10994400B0360020074B4A881B889A4208D10A88FF
:1099540040F677239A4201BF8B88034A033B138066
:10996400704700BFBE2A0020BC2A002008B5037837
:109974004BB9054B3B211888FFF774FF18B1BDE8BC
:109984000840FDF787BA08BDBE2A0020072808B59D
:1099940013D00A280DD0042819D10D4B132118888F
:1099A400FFF760FF30F0080311D0BDE80840FDF771
:1099B40071BABDE80840FFF765BF054B1A884FF63A
:1099C400FF739A4203D1034801F05DF8EAE708BD4A
:1099D400BE2A00204034002008B548B103280BD12A
:1099E4000220FFF7E7FD38B1BDE80840FDF752BAA1
:1099F400BDE80840FFF746BF08BD0000F7B503788F
:109A0400012B33D0022B31D073BB1A4C1A4D207862
:109A14002844FDF731FE23780133DBB21D44237063
:109A240015F8012C0A2A05D00D2A03D0134A1288EE
:109A34009A4219D8012B15D9114D0F4E114F237885
:109A4400ADF806300DF106022B883146384601F098
:109A5400C3FD082806D01328F1D0052802D008B188
:109A6400FDF718FA0023237003B0F0BD4068FDF73A
:109A740011FAF9E73C34002048330020BC2A0020C6
:109A8400BE2A0020C02A002038B50478054654B107
:109A940038BD2B69185DFDF705FE18B11128F8D003
:109AA400FDF7F8F90134AA8AA242F2D82B691344CB
:109AB40013F8013C0D2BEBD10A20FDF7F3FD11281F
:109AC400F9E7FDF7E7B9000008B50849084801F0CF
:109AD400F9FA08B1FDF7DEF90548F72101F006FBB4
:109AE40018B1BDE80840FDF7D5B908BD4999020091
:109AF4009836002038B504464518A54205D10A20F9
:109B0400FDF7D0FD1128FAD038BD23780A2BF6D002
:109B14002078FDF7C7FD18B11128F9D0FDF7BAF97F
:109B24000134EAE730B5614D0FCDB1B005AC0FC4D7
:109B340095E803005E4B5F4A01934FF4807384E819
:109B44000300CDE9032302935B4A072301A905A877
:109B5400FDF73AFD08B1FDF79DF9FDF727FC08B1C3
:109B6400FDF798F955490320FFF730FD08B1FDF7DB
:109B740091F905A90020FFF721FE08B1FDF78AF944
:109B8400FEF71CF908B1FDF785F901F0A3FD08B152
:109B9400FDF780F9002305A90120059301F028FEB3
:109BA40008B1FDF777F905A801F0F2FE08B1FDF759
:109BB40071F9112342488DF8043002F0D0F840497D
:109BC40082B201A8FFF752FE08B1FDF763F9002144
:109BD400082205A802F090F83A494FF0C87305A886
:109BE400CDE90513FFF740FE08B1FDF753F9FFF780
:109BF4006BFF354B3548059305A901F065FB08B1AA
:109C0400FDF748F9042200210DEB020002F074F87C
:109C14002F4B3048019301A901F064FC08B1FDF712
:109C240039F9AC22002105A802F066F802238DF868
:109C340014304FF4A063284AADF816300123ADF870
:109C4400603019928DF89030402244F25063CDE98F
:109C540027232248224B2E9305A900F052FD08B178
:109C6400FDF718F91D48012100F048FD1C220021D0
:109C740005A802F041F800234FF42032CDE9053263
:109C8400ADF822304FF470228DF82430154B079232
:109C94000A930322144B8DF8202005A80B9301F09E
:109CA4000FF808B1FDF7F6F831B030BD30CC020042
:109CB400BC360020BC370020019A020091990200B2
:109CC40026CC020010003C00C79A0200B0360020E7
:109CD4008D9A0200C02A0020B82A002040340020B7
:109CE400DD990200719902008598020008B50548C3
:109CF400032100F085FD18B1BDE80840FDF7CAB89E
:109D040008BD00BF40340020FEF76EB8044B1A684B
:109D1400012393404FF0A042C2F80C35704700BFB6
:109D2400E42A0020044B1A68012393404FF0A04218
:109D3400C2F80835704700BFE42A0020044B1A68B3
:109D4400012393404FF0A042C2F80C35704700BF86
:109D5400E82A0020044B1A68012393404FF0A042E4
:109D6400C2F80835704700BFE82A002008B50F4B39
:109D74001A680F4B1B684FF0A04103F5E07302F51E
:109D8400E07240F2036041F8220041F82300FFF73B
:109D9400E1FFFFF7C7FFFFF7D1FFFFF7B7FFFFF7BB
:109DA400D9FFBDE80840FFF7BDBF00BFE42A00208B
:109DB400E82A00204FF0A043D3F80405024B1B68A7
:109DC400D84000F001007047E42A00204FF0A0437F
:109DD400D3F80405024B1B68D84000F0010070471B
:109DE400E82A0020024B802043F00103184700BFFB
:109DF40050CC020038B5FFF7ADFFFFF7F3FF08259D
:109E040000246400E4B2FFF78DFFFFF7D3FF0028BE
:109E1400F9D0FFF7E7FFFFF7D9FF08B144F00104D9
:109E2400FFF774FFFFF7DEFF013DEAD1FFF76EFF96
:109E3400FFF784FFFFF7D6FF204638BD38B5044648
:109E44000825FFF763FFFFF7CDFF230611D5FFF7C2
:109E540081FFFFF7C7FF6400FFF764FFFFF7C2FF4E
:109E6400013DE4B2EDD1FFF751FFBDE83840FFF703
:109E7400B9BFFFF763FFECE708B5FFF747FFFFF74C
:109E8400B1FFFFF75BFFFFF7ADFFFFF74BFFFFF7F6
:109E9400A9FFFFF73BFFBDE80840FFF7A3BF08B5E4
:109EA400FFF734FFFFF79EFFFFF754FFFFF79AFF1A
:109EB400FFF738FFFFF796FFFFF728FFBDE80840DC
:109EC400FFF790BF10B5FFF721FFFFF78BFFFFF7F8
:109ED40041FFFFF787FFFFF725FFFFF76BFF0446FE
:109EE4000028FAD0FFF77EFFFFF770FF30B1FFF7CD
:109EF4000DFFFFF777FF0024204610BDFFF706FF94
:109F0400FFF770FFF8E708B5FFF718FFFFF70AFF40
:109F1400FFF768FFFFF71EFFFFF764FFFFF7F6FE8A
:109F2400BDE80840FFF75EBF08B5FFF713FFFFF772
:109F3400F9FEFFF757FFFFF701FFFFF753FFFFF7A6
:109F4400E5FEBDE80840FFF74DBF2DE9F341884623
:109F540017460190FFF7E8FF0198FFF76FFFFFF73F
:109F6400B1FF0446B8B9FFF7CEFF10E00135AF42A8
:109F7400F9DD18F80500FFF761FFFFF7A3FF0646B8
:109F84000028F3D1FFF7BFFFFFF7CEFF344620468A
:109F940002B0BDE8F0810025E9E770B506460D463C
:109FA4001446FFF7C1FF46F00100FFF747FFFFF734
:109FB40089FF064618B1013D1CB9FFF7A4FF3046DE
:109FC40070BDFFF70FFFFFF715FF05F8010FFFF74F
:109FD40053FF012C04D1FFF762FF013CE4B2EBE72D
:109FE400FFF74AFFF9E7000038B5FFF7BFFE054D5C
:109FF400102445F001054FF47A40A847013CFAD1FA
:10A0040038BD00BF90CC02002DE9F7430D468DF812
:10A0140000001646694601228020FFF796FF044699
:10A02400A0B1114B032743F00108032201A98020AA
:10A03400FFF7B3FF044668B935B1A9464FF47A4037
:10A04400C047B9F10109F9D1013FEED1204603B06F
:10A05400BDE8F0839DF805309DF8042003F0FC036F
:10A0640043EA02233380F1E790CC020037B52C2178
:10A074000DF10602F320FFF7C7FF074DBDF80620D8
:10A0840006490446284601F0E8FD28463221FFF738
:10A0940031FDA0B203B030BDBC38002056CC020064
:10A0A40037B50E210DF10602F520FFF7ADFF074D80
:10A0B400BDF8062006490446284601F0CEFD284690
:10A0C4003221FFF717FDA0B203B030BDBC38002029
:10A0D4006ECC02000369C1688B429DBF8268D218AE
:10A0E40002F1FF3203F1FF3394BF501A581A70473C
:10A0F4002DE9F843D0E902940546A9EB0408406829
:10A10400904520440F46144404D901F0CCFDEC6082
:10A11400BDE8F8834246A4EB090401F0C4FD686875
:10A12400224607EB0801F0E72DE9F843C568064627
:10A13400894617464FF000083469B3687068A54231
:10A1440028BFE418013C621B5C1BBC4228BF3C4690
:10A15400944228BF144649462844224601F0A3FDF0
:10A16400B3682544AB4208BF00253F1BA044A1446B
:10A17400F560E1D14046BDE8F8830000F8B5184C1D
:10A18400182300FB033503FB00402544C46A012C5B
:10A194000F4616460FD0022C1AD0F4B92846FFF702
:10A1A40099FF864205D8324639462846FFF7A0FF74
:10A1B40034462046F8BD2846FFF78CFF86423446D5
:10A1C40028BF0446224639462846FFF791FFF0E7A8
:10A1D4002846BDE8F840FFF7A7BF0024E9E700BF21
:10A1E400F03800206DDF704779DF70477DDF7047FE
:10A1F40064DF70472DE9F04F85B000250E9CBDF853
:10A204003CB0B4F800A00191074690461E46A9460A
:10A214003A884A450DDC45B12388013BA3EB0A0388
:10A224009BB2FF2B3AD806F80A30002005B0BDE8EF
:10A23400F08F7A6852F82900039000220DF10B0187
:10A2440003A8FFF7D5FF0028F0D19DF80B20424565
:10A2540021D12288002D14BF0020022002EB080126
:10A26400014459451ADC3DB9013292B2019B228066
:10A27400B35422880132228022880DF10B0132442A
:10A2840003A8FFF7B5FF0028D0D121889DF80B2043
:10A294000A442280012509F10109B9E70C20C5E728
:10A2A4002DE9F341089FBDF824801546CDE90078D7
:10A2B400022204461E46FFF79DFF50B93346102282
:10A2C40029462046CDE9087802B0BDE8F041FFF701
:10A2D40091BF02B0BDE8F0812DE9F04F002317884B
:10A2E400138090F82D3085B006460D46144653B3BE
:10A2F400082F01D80C2027E102A8FFF773FF0028DC
:10A3040040F0228123880822EA54238801339BB237
:10A314001B222380EA542088013080B22080062248
:10A324000DF10901284401F0BEFC23889DF80820A2
:10A3340006339BB212F0FE0218BF01222380EA54B6
:10A34400238801332380B378FBB123880433BB42D1
:10A35400D0D802A8FFF748FF002840F0F5802388F2
:10A364000322EA54238801339BB219222380EA543E
:10A374002388BDF8082001339BB2E9182380EA54EE
:10A38400120A4A70238802332380F2789AB1238810
:10A39400D91CB942AED80221E954238801339BB2B7
:10A3A40001212380E95423880B449BB22380EA547F
:10A3B40023880B4423807268AAB12388D91CB9422C
:10A3C40098D8022192F90020E954238801339BB2E2
:10A3D4000A212380E954238801339BB22380EA5461
:10A3E4002388013323803389002B40F0A180338AF2
:10A3F4005BB1CDE900472B460722032106F110008B
:10A40400FFF74EFF002840F09F80338B5BB1CDE90E
:10A4140000472B461522142106F11800FFF740FFD0
:10A42400002840F09180326A002A40F09080D6F8EB
:10A434002480B8F1000F30D0B8F804302188981C7B
:10A444008A1C0244BA423FF655AFFE283FF652AF8B
:10A4540003336B54238801339BB2FF222380EA54D5
:10A46400238801339BB22380B8F80020EA54E9180A
:10A47400120A4A702088023080B22080B8F8042082
:10A484005AB1D8F8081000296BD0284401F00BFC0D
:10A494002388B8F804201344238096F82C30002B2A
:10A4A40040F09A80307800284ED03388012B58D061
:10A4B400228802F1020CBC453FF61CAF012805D1ED
:10A4C4007378023313449F42FFF414AF023FBF1A60
:10A4D400BFB202A905EB0C00ADF80870FFF786FEC9
:10A4E40090BB3178BDF80830022900F0BA80727848
:10A4F4009A4202D3BB4240F2B280012940F0B380B9
:10A50400974293B2C0F0AF80ADF808300821BDF88F
:10A514000830FE2B3FF6EEAE22880133AB5422887E
:10A52400013292B22280A9542288134423800BE082
:10A53400CDE900472B460622022106F10800FFF769
:10A54400AFFE00283FF453AF05B0BDE8F08FB4F878
:10A5540000C00CF10603BB423FF6CCAE11880529BE
:10A5640001D80720F0E76FF4486E01EB0E039BB2AD
:10A574004FF27D3E7345F4D95388052BF1D96FF41E
:10A584004860181880B27045EBD94FF6FF708142CD
:10A5940003D0834201D09942E3D8052305F80C3057
:10A5A400238801339BB212212380E9542388013389
:10A5B4009BB223801188E954E818090A4170238862
:10A5C40002339BB223805288EA54E918120A4A7073
:10A5D4002388023323802AE7B36A002BC1D04FF0CB
:10A5E40000094FF00C0A4FF0160B96F82C305FFA66
:10A5F40089F293427FF656AFB16A0AFB02F201EB8D
:10A604000208B8F80430981CFE283FF673AE208880
:10A6140003332B54238801339BB2238005F803B002
:10A62400238801339BB223808A5AEA54E918120A18
:10A634004A702088023080B22080B8F804205AB1D1
:10A64400D8F8081000298CD0284401F02CFB23886A
:10A65400B8F804201344238009F10109C5E709214E
:10A6640055E7BB42FBD9ADF808704FE770B5C0B1F0
:10A674004AB116880024B44203D305196D789D426B
:10A6840008D0A14201D800200BE0055D01352C441F
:10A69400A4B2F0E7A142F6D9A31C1380005D0138EF
:10A6A40080B270BD13B513460022ADF806200DF13B
:10A6B40006020446FFF7DAFF10B1BDF80630E018D1
:10A6C40002B010BD72DF704773DF704774DF7047EC
:10A6D40038B5012204460D46B0F83812D0F83402D9
:10A6E400FFF7E0FF00B1057004F13C0204F50D71C1
:10A6F40004F15400BDE83840FFF7E4BF80F830109F
:10A704007047F8B504460F46002975D0002873D069
:10A7140091F87A301BB191F89830002B6ED1D7F8AC
:10A72400A030042B6AD0D7F89C30042B66D04FF0AD
:10A73400000C84F802C007F178060FCE251D0FC562
:10A744000FCE0FC596E8070085E8070084F830C0EF
:10A75400D7F8A4306363D7F8A830A3634FF6FF7526
:10A7640004F50D73C4F84432A4F848520722614634
:10A7740004F24A2001F0C0FA23780BB984F854504B
:10A7840094F82430002B14BFEE231F2304F1550149
:10A79400C4F83412A4F8383204F50E723846FFF7C0
:10A7A4009BFD40BB94F82430002B14BFEE231F23E1
:10A7B40004F24311C4F83C12A4F8403204F51072B8
:10A7C40007F13C00FFF788FDA8B9A369A4F8483055
:10A7D4004FF480730125A4F8503063692064014666
:10A7E40084F83C50636404F13C0204F15400FFF724
:10A7F40069FF00B92570F8BD0E20FCE70720FAE7D1
:10A80400F8B5077804460D46002F00F0048100F2E5
:10A814004A26817007220021304601F06DFAE38850
:10A8240013B1A378012B04D0E3794BB1A378022BA5
:10A8340006D1636BA3B1012284F851220820984702
:10A84400334604F5147113F8012F12B99942FAD161
:10A8540017466B1E032B52D8DFE803F0050B0F12CB
:10A8640084F85132ECE7A3791BB194F8243003B98E
:10A874005FB9E3790BB1002F43D1237A002B42D186
:10A88400637A002B0CBF00250425636BA570002B95
:10A894003BD0033D012D38D86279002A35D094F895
:10A8A400522292BB84F85422012284F853220720B6
:10A8B400984704F13C0518220021284601F01CFAAF
:10A8C400E36A94F82420581E0121022828BF0B466D
:10A8D40084F83C1084F8513032B1884296BFA36AA0
:10A8E40084F8521084F85230A178002384F8503050
:10A8F40004291BD8DFE801F0770D22355900002523
:10A90400C3E70225C1E70325BFE7002384F85332D8
:10A91400CFE7C4E91063C4F844320223012284F867
:10A924003C30802384F83120A4F84830A378002BED
:10A934005CD1636B002B6AD1002067E00223002AFC
:10A9440084F8313014BF0723032384F83C3023698F
:10A95400A4F848300023C4F84432E36826646364EE
:10A96400E4E763696364A369A4F8483012B1062379
:10A9740084F83C306379B3B194F852329BB994F8BB
:10A98400543283B1022384F8503004212046FFF767
:10A994009FFE0028CAD1052384F8313004F50D73D5
:10A9A400C4F84432C2E70323F6E7E3696364236A25
:10A9B400A4F8483012B1062384F83C30637983B19B
:10A9C40094F852326BB994F8543253B1022384F898
:10A9D400503004212046FFF77BFE0028A6D1062331
:10A9E400DAE70423D8E784F831309FE7D4F8441237
:10A9F4002A4604F15400FFF765FE38B994F8301084
:10AA040094F85400FFF760FE002892D0F8BD94F843
:10AA14003100984790E70820F8E70388112B10B518
:10AA24000C460AD0262B1FD0102B05D1C37B012B3B
:10AA340002D18388A1F8483210BD0022838881F8AE
:10AA44005222B1F848229A42F6D10B79002BF3D165
:10AA540001212046FFF7D4FE0028EDD0A36B002B84
:10AA6400EAD0BDE810401847037A013B012BE3D834
:10AA7400897805230131B1FBF3F303EB8303C91A8E
:10AA8400C9B2E6E7704738B5044690F85400FFF7BA
:10AA94001DFE012384F85232002384F8543284F8D2
:10AAA400503006212046FFF713FE054638B9A17839
:10AAB4002046FFF7A5FE10B1A36B03B198472846C3
:10AAC40038BD75DF704776DF70477ADF70477BDF0C
:10AAD40070470000034B1A8882420CBF18460020BE
:10AAE400704700BF84390020024B9B6903B11847AB
:10AAF400704700BF6839002073B585B22846FFF758
:10AB0400E9FF044670B1164E027A337B9A420BD2A7
:10AB140000F10A012846FFF7D4FFE8B1112801D05B
:10AB2400FFF7E2FF02B070BD00230372337C43B130
:10AB34003B212846FFF7C7FF30F0080301D0FFF799
:10AB4400D3FF7369002BEDD000228DF80420ADF8FB
:10AB5400065001A89847E5E7237A01332372E1E719
:10AB64006839002037B50B46497A0F4A71B9D2E9E2
:10AB740001141D7A0246002D18BF21465868FCF7BF
:10AB840057FC08B1FFF7B0FF03B030BD00211972C4
:10AB94005369002BF8D00122ADF806008DF804208B
:10ABA40001A89847F0E700BF683900204B88028865
:10ABB4009A4213D842889A4210D380888A8840F2F5
:10ABC400F313984294BF031AC31A934206D800F2AF
:10ABD400F310904234BF00200120704700207047DA
:10ABE4000388122B70B5014659D004D8102B1ED0FF
:10ABF400112B44D070BD502BFCD12F4BC288DB8964
:10AC04009A42F7D1038A022BF4D186883046FFF7A3
:10AC140061FF05460028EDD001F1120000F05DF956
:10AC240038BB6868FCF74CFC0028E3D009E0C37B20
:10AC3400012BDFD14FF6FF70FFF74CFF054620B91B
:10AC44000420BDE87040FFF74FBF1C4A8E88068081
:10AC5400002303721368C0F80A305368C0F80E303A
:10AC640010310A30FFF7A2FF134B6872DB89002B07
:10AC7400C0D129463046BDE87040FFF773BF8088D5
:10AC8400FFF728FF04460028B4D04068FCF718FCFE
:10AC940008B1FFF729FF4FF6FF732380AAE78688E0
:10ACA4003046FFF717FF05460028A3D008310A30C5
:10ACB400FFF77CFF6872DCE76839002098390020D0
:10ACC400F8B5064648B305460FCD154F3C460FC4AC
:10ACD40095E8070084E807003068124C3C60B0B186
:10ACE400FFF7F3FEC0B932681368236053686360EA
:10ACF4000D480E4A4FF6FF7303800D4B40F8043F96
:10AD04000021FCF783FB002818BF032004E0204641
:10AD1400FFF7DDFE0028EBD0F8BD0E20FCE700BFF6
:10AD2400683900209839002084390020FDAA0200E7
:10AD3400A039002073B50191019C06466CB1002531
:10AD44002C46294601A8FCF722FD18B106EB440362
:10AD540001349D800135142DF3D13046346002B0A6
:10AD640070BD00002DE9F04703888488112B8CB056
:10AD740005463CD01A2B3FD0102B17D1284EB36870
:10AD8400DB43009371686846FCF72DFD009901A828
:10AD9400FFF7D0FF0DF108094FF00008019B98451B
:10ADA40007D3132C13D90420FCF774F80CB0BDE8B6
:10ADB400F08739F802AB00270137514606EB8700CC
:10ADC400FCF7DBFC1D2FF7D108F10108E6E7154875
:10ADD4002146FCF7C9FC14482146FCF7C5FCEB7B73
:10ADE400012BE3D011482146FCF7BEFCDEE70D48F9
:10ADF4002146FCF7C2FCD9E7037A0D481F2B4FEA22
:10AE04001315214606D9FCF7AFFC022D094821464B
:10AE1400EAD1EEE7FCF7B1FC06482146E9E700BFBA
:10AE2400C0390020C8390020C4390020CC390020A2
:10AE3400D0390020D43900201328014602D8024812
:10AE4400FCF7A5BC00207047C439002010B50446A7
:10AE5400FFF7F2FF002814BF2046142010BD70B580
:10AE64000546164608460AB90E2070BD0023136035
:10AE7400002DF9D02B68002BF6D0EB8813F00304D7
:10AE84000ED1FFF7E3FFC0B214280BD02B79834215
:10AE94000AD9EB882A6800FB032030602046E4E7E7
:10AEA4000720E2E70520E0E70420DEE7AADF704799
:10AEB400002301380B70042806D8DFE800F00306ED
:10AEC400080A0C0011230B7070472123FBE7312380
:10AED400F9E71223F7E72223F5E7007800F00100F1
:10AEE4007047F0B58B7891B0012B0C4638BF012325
:10AEF4008DF80E3005460B88ADF80C30002116464F
:10AF04006846032200F0F8FE607C6946FFF7D0FF34
:10AF1400A07C0DF10101FFF7CBFFE27B237B217DB8
:10AF240043EAC203227C43EA02139DF8022000296B
:10AF340022F0190203F0190314BF02210121134363
:10AF440061F342031C22002109A88DF8023000F0AD
:10AF5400D3FE637B13F0300F15D002AF0322002120
:10AF6400384600F0C9FEE07C0DF10901FFF7A0FFAF
:10AF740011238DF808309DF80A300E97012262F3F0
:10AF840042038DF80A30637B8DF824301422A37BAE
:10AF94008DF82530002104A800F0AEFE03AB049325
:10AFA400A388ADF81C30A368CDF814D01BB1E28897
:10AFB400ADF818200893A369002B31D001AF032208
:10AFC4000021384600F098FEA3691A88ADF82C20B9
:10AFD4005A88ADF82E205A680D97187B0A92394684
:10AFE400FFF766FFA3690DF10501587BFFF760FFCA
:10AFF400A269917A137A43EAC103D17A927B43EA34
:10B0040001139DF80610002A03F0190321F0190119
:10B0140014BF022201220B4362F342038DF806306F
:10B02400E36903B10C93334604AA09A92846FFF740
:10B034003DFF11B0F0BD90DF7047A5DF7047B5DF6D
:10B04400704700007FB50023ADF80810ADF80A1072
:10B054006A4602A9064603930093ADF80430FFF74D
:10B06400EAFF054600B3124B124CE41AE408FCF75D
:10B0740015FF240444F0010403460F4932462046D8
:10B08400FBF79FFCBDF80020BDF8023052EA030133
:10B0940003D00A492046FBF794FCBDF804201AB1FA
:10B0A40007492046FBF784FC284604B070BD00BF66
:10B0B400A4C40200E4C4020096CC0200E0CC020066
:10B0C4001FCD020080B14FF0F7130360FB2303711F
:10B0D400F723C3801723038141F6FB320023016168
:10B0E40043818281184670470E20704730B1A1F128
:10B0F4001703E02B04D80180002070470E2070470E
:10B104000720704713B5034680880C46B8B91A88DF
:10B11400242A00F0968014D8112A71D0232A00F032
:10B124009E80102A3BD0A37A4BB1E1880020FFF720
:10B1340084FF002840F099804FF48073638102B04B
:10B1440010BD3A2A65D0552AEDD1DB88C988A07292
:10B15400172B38BF17238B4228BF0B462381FFF7D9
:10B164006EFF60B1FCF79AFE484B494902464948D4
:10B174001B1ADB081B0443F00100FBF719FCE37AFC
:10B18400002BD0D12369002BCDD040F6772200923A
:10B194002289ADF80420694620469847C3E7DB7B43
:10B1A4000A790A73012B13D0022B14D0E188238966
:10B1B4008B4205D20020FFF740FF70B90123E372F0
:10B1C400217B637B8B42AED20020FFF73BFFAAE7D3
:10B1D4000B88E380EAE74B88FBE7112802D10123BF
:10B1E400A372EDE7FCF75AFE284B2B490246294887
:10B1F4001B1ADB081B0443F00100FBF7D9FBDFE754
:10B20400F723CB8017230B8141F6FB3348818B81D5
:10B2140089E75B89CA88934228BF1346172B0A69BA
:10B2240038BF17230B814AB1C97A39B140F6772167
:10B234000091ADF8043069462046904700236381AD
:10B2440071E71A7A0B694A73002B3FF46CAF4DF621
:10B254007A218DF8050000918DF804209BE7197A76
:10B26400237B994228BF1946AFE711283FF467AF03
:10B27400FCF714FE054B0849024606481B1ADB0876
:10B284001B0443F00100FBF793FB58E7E4C40200FE
:10B29400A6CD0200A4C4020075CD0200B0DF704741
:10B2A40066DF704710B5002104464088FFF7F8FFB9
:10B2B400034608B9237210BD112801D10123F9E70F
:10B2C4006368BDE81040184760B159B10378DE2BBC
:10B2D4000AD00B684360DE2303704FF6FF7343808C
:10B2E400002070470E2070470820704728B103786B
:10B2F400DE2B04D14180002070470E2070470820C7
:10B304007047F0B5054685B00C46F1B1E8B10B784D
:10B31400DE2B1AD182884B889A4204D10B7A13B15E
:10B324000846FFF7BFFF2B88112B32D0512B0ED0CC
:10B33400012B0AD12B7A012B07D1A988628891426B
:10B3440003D123722046FFF7ADFF05B0F0BDAE88F0
:10B354006388B342F9D1AF79022FF6D1AD7B2B1FAD
:10B36400022BF2D800211022684600F0C5FC052DFE
:10B3740014BF4FF4C0730023694630468DF8007043
:10B38400ADF80430FFF78AFF0028DED063689847E1
:10B39400DBE76388AA889A4204BF4FF6FF73638091
:10B3A400D3E7A8DF7047ADDF7047AEDF704762DFD9
:10B3B400704770B505468AB00C46002962D0002853
:10B3C40060D00388502B37D0572B72D0102B59D113
:10B3D40081886069002601AA0196FFF740FD0822D2
:10B3E40031460DEB020000F087FC0223218AA88875
:10B3F400CDF80CD002AA0293FFF7D5FF002841D163
:10B40400A369002B3ED00398FFF767FD002839D0CD
:10B41400019B0BB101221A701822002104A800F02C
:10B424006BFC02238DF81030AB88ADF81830019B0B
:10B4340005940793A36923E08188606902AAFFF752
:10B444000EFD1822002104A800F056FCAB882189C7
:10B45400ADF81830EB88029A05949942079218D1F6
:10B464002E8A022E15D16AB105F11200FFF735FDBF
:10B47400029B48B101221A708DF81060A3690BB1C8
:10B4840004A898470AB070BD187003238DF81030D3
:10B49400F4E7A2899A42F5D1A369002BF2D00022E5
:10B4A4008DF8102005F1120208922A8AADF82420A2
:10B4B400E6E78188606902AAFFF7D1FC014600280B
:10B4C400E0D1029B1B78002BDCD0182204A800F0EA
:10B4D40013FC01238DF81030AB88ADF818300594B7
:10B4E400029BA6E7F0B53A4B8FB002AD04460A467C
:10B4F40003F1100C2F46186859682E4603C608330A
:10B5040063453546F7D1002C5FD0002A5DD013681F
:10B51400A36121463846FFF74AFF002853D122464B
:10B52400012512F8023B8DF8063001A92846ADF832
:10B534000450FFF736FF002845D10146202206A813
:10B5440000F0DAFB22460223ADF8183012F80C3B67
:10B554008DF81A30BDF824301E4E6088079623F407
:10B564004F6323F00F0343F440632B4306A9ADF864
:10B5740024308DF829508DF82A50FFF7B2FC10BB07
:10B584000146202206A800F0B7FB22460323ADF8AB
:10B59400183012F8043B8DF81A30BDF82430608856
:10B5A400079623F4875323F01F0343F480532B435C
:10B5B400ADF8243006A940F201138DF82950ADF8F6
:10B5C4002A30FFF78EFC0FB0F0BD0E20FBE700BF62
:10B5D400EACD0200F4000100F0B50F4687B016462C
:10B5E4001C46054618B3406901AA1946FFF737FC03
:10B5F400D8B94FF6FF739C421BD0019BCBB11B788B
:10B60400CBB13388F42B18D80146102202A800F0DD
:10B6140073FBAB88ADF8083002A901232046CDE9BD
:10B6240004678DF80A30FFF7C0FE07B0F0BD0E20A6
:10B63400FBE70520F9E70820F7E70720F5E710DF27
:10B644007047000013B5044609496846FCF7F2FB4D
:10B65400019808B902B010BDD0E9002120469047F6
:10B6640018B16846FCF7F0FBF2E71120F2E700BFDF
:10B6740008CE020013B5044607496846FCF7DAFB16
:10B68400019B0BB902B010BD2046D3E900219047BD
:10B694006846FCF7D9FBF3E720CE02000B4991F88A
:10B6A40016335A09EC231341DB0706D5084B9A6875
:10B6B4003AB94FF480030B60704742F20200FBF783
:10B6C400E9BB1A6842F480021A60704700E100E0A6
:10B6D400C4310020F7B5194F3C7864BB184E0125DE
:10B6E40020463570FFF7AEFF112821D02046FFF722
:10B6F400C1FF144B8DF80340186801900DF103004D
:10B70400FBF7F8FF104901A8FFF799FF0446B0FAC8
:10B7140080F0400938709DF80300FCF70FF83CB93D
:10B724000A4B34701C70FFF7B9FF2846FFF7A2FFDD
:10B73400204603B0F0BD0824FAE700BF393A0020E0
:10B74400383A002002CE0200B56E02003A3A0020D8
:10B75400014B1878704700BF393A002007B50849F3
:10B764006846FCF767FB019B13B903B05DF804FB63
:10B77400D3E9002090476846FCF766FBF3E700BF77
:10B7840014CE0200FFF7EABF60DF704769DF70473D
:10B7940061DF704730B5114DADF5017D4FF4FA749A
:10B7A4000DF1020103A8ADF80240FFF7F1FF70B9F3
:10B7B400294601A8FCF73EFB029B002BF0D003A80E
:10B7C400D3E90021904701A8FCF73EFBF4E70528E4
:10B7D40001D0FBF75FFB0DF5017D30BDA8D0020061
:10B7E400024B1B780BB1FFF7D5BF70473B3A0020E3
:10B7F40030B5054685B00C46002900F0B5805B4B9A
:10B804000B600C22002101A800F076FA01238DF8C8
:10B81400063022688DF80450062301A92020ADF8D3
:10B824000830FFF7B3FF60B1FCF738FB504B5149C8
:10B83400024651481B1ADB081B0443F00100FBF7C6
:10B84400B7F80C22002101A800F056FA01238DF864
:10B8540005302268002301A94020ADF80630FFF727
:10B8640095FF60B1FCF71AFB414B4449024642483C
:10B874001B1ADB081B0443F00100FBF799F80C22A8
:10B88400002101A800F038FAF72322688DF804504B
:10B8940001A92320ADF80630FFF778FF60B1FCF76B
:10B8A400FDFA334B3649024633481B1ADB081B04A6
:10B8B40043F00100FBF77CF80C22002101A800F002
:10B8C4001BFA012022688DF8040001A9FFF75EFF2E
:10B8D40060B1FCF7E3FA264B2A49024626481B1AB4
:10B8E400DB081B0443F00100FBF762F80C22002183
:10B8F40001A800F001FA4FF4B0632268019301A992
:10B90400A120FFF743FF60B1FCF7C8FA184B1E49AA
:10B91400024619481B1ADB081B0443F00100FBF71D
:10B9240047F80C22002101A800F0E6F99DF8043044
:10B9340022686FF3000301A9A0208DF80430FFF7FB
:10B9440025FF034668B1FCF7A9FA094B0F490246E3
:10B9540009481B1ADB081B0443F00100FBF728F815
:10B964000023184605B030BD0E23FAE7982A0020BC
:10B97400F4C402002CCE0200A4C4020072CE020061
:10B98400BECE020005CF020051CF0200A2CF0200BA
:10B9940073B505460668FFF7F7FE2B68B342044605
:10B9A4001DD91A481A4B1B491B1ADB081B0443F008
:10B9B40002000190FAF7F8FF2B6817490198324604
:10B9C400FAF7FFFF4FF080532A68D3F80C3113497C
:10B9D40001989B0203F100539A1AFAF7E9FF2CB974
:10B9E4000F4B01221A70204602B070BD2046FCF7AE
:10B9F40055FA074B0B49024604481B1ADB081B0483
:10BA040043F00100FAF7D4FFEDE700BFA4C402003D
:10BA1400F4C40200F5CF020024D0020055D0020085
:10BA24003B3A00207FD002004BDF70471FB50D4C1E
:10BA340001A8FFF7F9FF70B9214602A8FCF7FAF94B
:10BA4400039B002BF4D00198D3E90021904702A86E
:10BA5400FCF7FAF9F4E7052801D0FBF71BFA04B068
:10BA640010BD00BFC0D0020053EA020C61D02DE922
:10BA7400F04BB3FA83F51E0007BFB2FA82F502FA5F
:10BA840005F403FA05F41646C5F120051EBF22FA93
:10BA940005F73C43203556EA044C4FEA144418BFDA
:10BAA4000134A3464FF00009C846904271EB030CE1
:10BAB40039D3094207BFB0FA80F700FA07F6B1FAA2
:10BAC40081F701FA07F6C7F120071EBF20FA07FC29
