:020000022000DC
:1060000000000120756302005D6302005F6302000F
:106010006163020063630200656302000000000028
:1060200000000000000000000000000067630200A4
:1060300069630200000000006B6302006D630200F0
:10604000AD8502006F630200E58902001D96020023
:106050006F6302006F630200618802006F630200D9
:106060006F6302006F6302006F6302006F630200E0
:106070006F6302006F6302006F6302006F630200D0
:106080006F630200E17002006F6302006F63020041
:106090007D7102006F6302001DB902006F63020090
:1060A0006F6302006F6302006F6302006F630200A0
:1060B0006F6302006F630200000000000000000038
:1060C0006F6302006F6302006F6302006F63020080
:1060D0006F6302006F6302006F6302000000000044
:1060E00000000000000000000000000000000000B0
:1060F00000000000000000000000000000000000A0
:10610000000000000000000000000000000000008F
:10611000000000000000000000000000000000007F
:10612000000000000000000000000000000000006F
:10613000000000000000000000000000000000005F
:10614000000000000000000000000000000000004F
:10615000000000000000000000000000000000003F
:10616000000000000000000000000000000000002F
:10617000000000000000000000000000000000001F
:10618000000000000000000000000000000000000F
:1061900000000000000000000000000000000000FF
:1061A00000000000000000000000000000000000EF
:1061B00000000000000000000000000000000000DF
:1061C00000000000000000000000000000000000CF
:1061D00000000000000000000000000000000000BF
:1061E00000000000000000000000000000000000AF
:1061F000000000000000000000000000000000009F
:10620000354936480A1A02D0072291438D4634494F
:1062100034480A1A06D00722914381F309880222E2
:1062200082F3148830483149314A00F044F831484B
:106230003149324A00F03FF831483249324A00F0E1
:106240003AF832483249334A00F035F83248334997
:10625000334A00F030F833483349344A00F02BF821
:1062600033483449344A00F026F83448344900228F
:1062700000F02CF833483449002200F027F8334866
:106280003349091A082902DB002202604160314AC1
:1062900090471F481F49884205D00268043003B464
:1062A000904703BCF7E700208646EC46002000211B
:1062B000294A9047FEE7884207D0521A05D0037852
:1062C00001300B700131013AF9D17047884202D098
:1062D00002700130FAE770470000012000E0002062
:1062E0000000012000000120B4D40200982A002000
:1062F0000C2B0020D4630200D4630200BCC5020052
:10630000B4D40200982A0020982A0020B8C60200BF
:10631000B8C60200B8C60200B8C60200B8C602007D
:10632000B8C60200B8C60200B8C60200B3D4020064
:1063300028D502000C2B00200C2B00200C2B002059
:10634000E4390020E4390020E4390020E439002059
:10635000E45900209D630200BD9D0200FEE7FEE7B8
:10636000FEE7FEE7FEE7FEE7FEE7FEE7FEE7FEE705
:10637000704700BF1048804710484FF0070188431E
:1063800085460F4880470F48016841F4700101605D
:10639000BFF34F8FBFF36F8FFFF732BF0A480B4930
:1063A0000B4A884207D0521A05D0037801300B708F
:1063B0000131013AF9D170477163020000000120F8
:1063C000B17F020088ED00E0B8C60200982A0020E4
:0463D000982A0020E7
:1063D400F0B595B01D46164608460C4601F008FD7A
:1063E4001A9B0D93CDE9086500252B46082205A9C3
:1063F40020460A958DF82C500C9501F016FD079B4C
:106404000293069B03939DF814308DF8115003F00A
:106414000302012A1DD1BDF81420059DC3F3C20354
:10642400C2F383168DF81030B20008230EA920465B
:1064340001F0FBFCC5F3952508AB0093324602AB93
:106444000EA9284600F004FB204601F0D5FC15B047
:10645400F0BD022AF8D1BDF81650C3F3C203C5F348
:1064640089158DF810300827082D2E4628BF0826D8
:106474003B4632460EA9204601F0D7FCAD1B08ABC3
:1064840002AA31460EA8374400F046FB002DEBD19A
:10649400DAE7037813F0040216D003F00303012BA8
:1064A40003D0022B09D0012070470A680088023209
:1064B400C0F3831002440A60F5E70B684288023394
:1064C40003EB92130B60EEE7104670472DE9F04F93
:1064D40087B000230446861C0DF107000F461546BD
:1064E4008DF8073001F04AF9454801683960D0E970
:1064F4000132134401335B1A824600F21C4700F553
:10650400836900F21448B3421CD30020002D73D0D9
:1065140004F00F039B0143F0050363F30F00DAF863
:106524000020DAF808301340033316444AF82300F5
:106534009DF80700CAF8006001F044F9012007B093
:10654400BDE8F08F0121384601F09DF9484601F07D
:10655400B2F9404601F0AFF9DAF80400DAF808B00D
:10656400029000EA0B0003300AEB800002A9FFF757
:1065740090FF029B50BB0BEA03020AEB820203F179
:10658400020CD2680392013303EA0B0B0AEB8B0B68
:1065940002F00302012ADBF80C10CDF808C023D066
:1065A400022A16D08346404601F088F910B1029BB6
:1065B400CAF804305946384601F065F9DAE901238E
:1065C4001344DAF8002001339B1A9CE70BEA03001A
:1065D400C9E7BDF80E30C3F3891303334FEA114BF7
:1065E4000CEB93030293DEE7BDF80C30C3F3831383
:1065F4004FEA114B6344F5E7A40544F006008EE727
:10660400DC2B002030B50A4C71B10A4A0A49121B2E
:10661400D20800239A4201D1002030BD31F8235022
:10662400854202D00133F5E7034654F83300F4E71A
:1066340038C60200A8C60200982A0020094B013976
:1066440003EBC000032909D8DFE801F00A020406BD
:1066540004207047007970474079704700207047E4
:106664000220704738C60200034BD3E90030C31A36
:1066740058425841704700BFDC2B00202DE9F043FD
:1066840087B0FFF7F1FF0646002840F0F9807D4D02
:10669400C5F81804BFF34F8F6B68AC6802932340AE
:1066A400033305EB830002A9FFF7F3FE029B18B145
:1066B400D5F81824002A5FD004EA0302991C013398
:1066C40005EB8202234005EB8303D268DB68049365
:1066D40002F00303022B0392029160D1BDF80E3045
:1066E4006948C3F38917502FB84628BF4FF05008A4
:1066F40068F38F1308F10801ADF80E3001F049FB7F
:106704000646002800F0A78001F072FB002308224F
:1067140003A9304601F07FFB029924EA0102013209
:10672400B8EB820F4FEA820332D95FFA88F85BB381
:106734002140DCB2A8EB040803315FFA88F9A046D3
:10674400524C05EB810108234246304601F063FBBD
:1067540034B108F108034A462146304601F05BFB98
:10676400029B033703EB97070297D5F81834002BE5
:1067740049D1D5F8104459E02A689A428FD86A6002
:10678400304607B0BDE8F08340491C469946DAE735
:106794000C40E11C0823424605EB8101DDE7012B97
:1067A40059D1BDF80C303848C3F38311062928BFEA
:1067B400062161F3891302318900ADF80C3001F030
:1067C400E8FA0646002846D001F012FB002308220E
:1067D40003A9304601F01FFB0027BDF80C20C2F3CB
:1067E4008312BB00974203F10803BED202994A1CEC
:1067F40021400331029205EB81010422304601F06D
:106804000AFB0137E9E7304601F0F6FAFFF72CFFFF
:1068140080F00100C6B2B3E7E3685B7923B1236873
:1068240031461B6820469847E3681C68002CF3D166
:10683400304601F0E1FA0DF107008DF8074000F051
:106844009DFFD5F818340BB9029B6B609DF80700C7
:1068540000F0B8FFDAE7D5F8104454B90C4B0D48F2
:106864000D49C01AC008000440F0020000F062F8AC
:10687400CCE7236820469B689847E3681C68ECE7EC
:1068840000267DE7DC2B002024C60200E82B002034
:1068940038C6020068C60200C9C602002DE9F74FD7
:1068A400224D04460F46924601A901221846D5F806
:1068B40008909B46FFF70AFE20B3019E4FF00008A4
:1068C400B21CD84508EB020126D11948002100F07A
:1068D400ABFF80F31000000440EA1440E400731C92
:1068E40004F0380403EA090306EA090644F0010443
:1068F40005EB8303033644EA881444EA8724D8600A
:1069040045F8264095F820341BB1FFF7B7FE002860
:10691400FBD103B0BDE8F08F09EA010105EB810169
:106924005AF82830CB6008F10108CAE7DC2B0020B4
:10693400F82F002000231A46FFF7B0BF07B5012344
:10694400019201AAFFF7AAFF03B05DF804FB07B5A3
:10695400CDE9002302236A46FFF7A0FF03B05DF8E8
:1069640004FB0000094A38B50123D2F8104482F828
:1069740020341D4604B938BDE3685D7123682046A0
:106984005B689847E3681C68F4E700BFDC2B0020D1
:1069940007B503460846197A052911D05B7A2BB14D
:1069A400094A0A49019000F0D5FF0198084901906D
:1069B40000F0D0FF019803B05DF804EB00F0BFBF16
:1069C400002AF8D0F2E700BFDEC60200E3C60200E8
:1069D40003C7020030B5C38885B004460D4633B101
:1069E400144A00921449154A284600F0B3FF217A4C
:1069F40005291DD0637A4BB1A088FFF71FFE104B09
:106A0400104953F82020284600F0A4FF227A0E4BA8
:106A1400A08853F8222003920021FFF7F3FD039A84
:106A24000A490346284605B0BDE8304000F092BF4D
:106A340005B030BDDEC60200EEC60200E6C60200A6
:106A44006CC70200E3C6020090C7020006C702003A
:106A54002DE9F04385B01F460C9D002395F80C905A
:106A64002B7306460C46904629463846FFF7B2FF7C
:106A7400B8F1060F09D8DFE808F00412181F28330C
:106A840040003146284600F065FF0022294638467A
:106A9400FFF77EFF85F80C9005B0BDE8F08322680F
:106AA4003146284600F056FFEFE7D4E9002331468B
:106AB400284600F04FFFE8E7A36800933146D4E985
:106AC4000023284600F046FFDFE7E3680193A3684C
:106AD40000933146D4E90023284600F03BFFD4E775
:106AE40023690293E3680193A36800933146D4E9D0
:106AF4000023284600F02EFFC7E763690393236948
:106B04000293E3680193A36800933146D4E9002318
:106B1400284600F01FFFB8E708292DE9F74F804603
:106B24000E4617461C4639D8002593F80C901D7361
:106B340019461046FFF74EFFDFF880A0DFF880B05B
:106B4400AE422ED918F805205946204600F002FF1F
:106B54000135082DF4D11849DFF868A0DFF868B0D2
:106B6400204600F0F7FE0025AE421FD918F8052094
:106B74000192104605F036F90028019A594608BFDB
:106B84002E22204600F0E6FE0135082DECD101222C
:106B940021463846FFF7FCFE84F80C9003B0BDE8AC
:106BA400F08F5146204600F0D5FED1E751462046ED
:106BB40000F0D0FEE8E700BF1AC7020016C70200C3
:106BC40010C7020018C702001CC70200014B0122B3
:106BD4001A707047413000207047000070B5124DA4
:106BE40006460FCD88B06C460FC495E80F00002E02
:106BF40084E80F004FF0FF334FF00602CDE9002385
:106C0400CDE90233094A0A484FF0EB7308BF00226A
:106C14006946069301F054FC08B100F07FF9054B76
:106C24001E7008B070BD00BFA4C70200D16B020083
:106C3400A02A00200030002007B5044B0093044A2A
:106C44004023FFF7C5FB03B05DF804FB596C020059
:106C54000130002038B50D4B0D4D002018700D4843
:106C640004782D5DD2B21C4665B1043002F07AFB83
:106C740008B100F053F9084B1A7812B12378002BAD
:106C8400FBD038BD0C3002F0EBF8F1E741300020C6
:106C940004320020A02A00200030002008B5084853
:106CA400084A0378D35C3BB1043002F0F9FABDE83A
:106CB40008400020FFF792BF0C3002F06FF8F6E7AF
:106CC400A02A0020043200202DE9F04F364E87B070
:106CD4004FF00009354B1B785FFA89F5AB4202D8B7
:106CE40007B0BDE8F08F324BD3F800A01AF8350096
:106CF4000124D6E9001EA0F12002C0F1200304FA09
:106D040002F224FA03F3134304FA00FC059301EAA4
:106D14000C030093059B0EEA03030193DDE90023B2
:106D240013430AEBC50B3BD0059B21EA0C012EEA69
:106D34000303C6E9001301F087FD01461AF8350084
:106D44001C4DA0F12002C0F1200304FA02F224FA3F
:106D540003F31343D5E900C28440134004EA0C044E
:106D64000393A0F12002C0F1200321FA03F302945B
:106D740001FA02F848EA0308DDE9023401FA00F7EF
:106D8400444508BFBB420BD1DBF8043043B19BF848
:106D94000120541E62426241551A69426941984772
:106DA40009F1010996E700BF70300020423000204D
:106DB4007830002068300020F8B506461E4800F000
:106DC400C3FBC0BB0125A6F12004C6F1200325FAAC
:106DD40003F305FA04F41C43184BD3E900C2B5408D
:106DE4000CEA050002EA040101431F461DD13046A6
:106DF40001F02AFD124BD3E9001288B12943224342
:106E0400C3E90012D7E900231C430E4B0A48196852
:106E14001543C7E900540022BDE8F84000F04CBB1C
:106E240021EA050122EA0402EAE72CEA050522EA3E
:106E34000404C3E90054F8BD483000207030002039
:106E44006830002044300020042A2DE9F34105462F
:106E54000C46164639D901F037FCD8B11C4B1D49F4
:106E64001D601D4BDFF884801C701C4B00221E60CB
:106E74000023C1E900231A49C1E90023013CE4B21B
:106E840000260327FF2C0CD1164A1748002100F0D6
:106E940001FB03E001F0DEFB0028DFD002B0BDE817
:106EA400F08105EBC40315F834009B788DF8066077
:106EB400424601A98DF804708DF8053001F00EFCEE
:106EC400013CE4B20028DDD0E8E70720E6E700BF94
:106ED4007830002068300020423000204430002008
:106EE40070300020CD6C0200D0C70200BD6D0200DE
:106EF40070B5084D084E00242B789C4201D3002025
:106F040070BD3368012113F8340001F059FC0134D9
:106F1400F2E700BF42300020783000201FB5002186
:106F2400039001AA44F20100CDE9011100F004F834
:106F340005B05DF804FB000010B572B6FFF712FD52
:106F4400FFF79CFB0028FBD1104B114C1149E41AAC
:106F5400E408240444F00100FFF7ECFC0E4B1B682A
:106F6400DB0700D500BE0D4944F00200FFF7E2FC48
:106F7400BFF34F8F0A490B4BCA6802F4E062134314
:106F8400CB60BFF34F8F00BFFDE700BF38C60200E0
:106F940068C60200D4C70200F0ED00E0E0C70200BA
:106FA40000ED00E00400FA0549B152B1531E1A4045
:106FB40007D1826001608380C260104670470E2052
:106FC40070470920704710B58468C2688388121B13
:106FD400934208D3C26813400268D154C368013392
:106FE400C360002010BD0420FCE78268C3689A4295
:106FF4000AD08268838813400268D35C0B7083686C
:10700400013383600020704705207047094A537894
:1070140091780133DBB2994208BF00231178994279
:107024001FBF03705078182303FB002014BF0430E3
:10703400002070477C30002073B5054600240DF114
:1070440007000E468DF8074000F098FB0DF106008E
:10705400FFF7DCFF90B10670094B9DF806204560F0
:107064005A709DF8070000F0ADFB24B9054B4FF4AE
:107074008012C3F80021204602B070BD0424F0E75A
:107084007C30002000E100E0024B4FF43C6043F010
:1070940001031847F0C7020038B50C4B0C4C4FF4F1
:1070A4000032C3F8802001254FF48033C4F84833FC
:1070B400C4F808336560FFF7E7FF064BA5600024BA
:1070C4001C60FFF7E1FF044B1C7038BD00E100E0D9
:1070D400001001409831002089310020F8B51F4B81
:1070E4001F491B680025C1F84051C1F84451C1F83B
:1070F4004851C1F84C51C1F80051C1F804514BB387
:10710400D1F8044517490968641A24F07F442F46CE
:107114001A68A24209D8A41A15441A7CDE691AB165
:10712400D3E905201F749047AEB90F4A0F4B11786D
:107134001B788B4205D10133DBB2022B08BF00233D
:10714400137012780A4B43F822500A4B4FF4801202
:10715400C3F80021F8BD3346DAE700BF9C310020B4
:107164000010014098310020953100209431002016
:107174008C31002000E100E02DE9F04FA24AA34940
:1071840013780978A24D994285B03CD00133DBB223
:10719400022B08BF002313709E4912789E4B0F6880
:1071A40053F822003B1823F07F4300220B602B6826
:1071B40016461446944613B942B12B6006E019688A
:1071C40081420ED902B12B60091A196001272B687C
:1071D400DFF84CA201934FF00008BEB9DFF848B2C3
:1071E40062E0401A0C44D968D3F81CE0C3F800C02C
:1071F40031B13A1922F07F42C3E90121DE611E4612
:1072040073460122D7E700263746E0E73446F6699D
:10721400804A63681268DFF814C2A068991A21F0E2
:107224007F41614500F2A88001442160012222745B
:107234002A680023C4E90133E361002A40F0A580F1
:107244002C60CAE79BF802105A1CD2B291428BF808
:10725400002004BF00228BF80020182202FB03B395
:107264002A6819799C68022977D0032900F0818063
:10727400012919D1207CB8B9D3E90312A2605A6953
:10728400E2609A69654BA2611B78002B0CBF0B4628
:1072940003466360BCE78C4200F094808946C96968
:1072A4000029F8D1002323749BF800309BF80120B7
:1072B4009A42C7D12B68B8F1000F04D1019A9A42BF
:1072C40001D1002F43D0002B79D0D3F800A0544D26
:1072D400504BD5F804751C68DFF854813E1B98F8B0
:1072E400003026F07F4603369BB94FF48033C5F84F
:1072F4004433C5F804334B4B4FF400324FF00109CB
:10730400C3F880211A60C5F80090FFF7BDFE88F825
:107314000090B2452CBF5444A41924F07F44C5F80E
:107324004045D5F80435DB1B23F07F43E41B0333CE
:1073340024F07F44A3420AD9D5F80435C5F8403572
:10734400FFF7A2FE374B4FF40032C3F80021334B52
:1073540000221A7005B0BDE8F08F114691469FE7F0
:107364001174D2690123002AFAD1002B9CD02A601F
:107374009AE700231946F6E7D31A23F07F438342A2
:1073840034BFC31A0023236050E72168136899426D
:1073940013D8591A1160E26152E7091AD8691A46DA
:1073A40038B1034618688842F7D3401A1860184663
:1073B40013462160E061DC610FE71346F2E7FFF753
:1073C4006BFEC4E74C4511D1D3692B6073B9DFF868
:1073D40044E00120CDE90212CAF80800CEF80030DA
:1073E4000E4B1870FFF750FEDDE902120B68C969F5
:1073F400C9F81C1011B1086803440B602B68934250
:1074040018BF4FF001084DE794310020953100205A
:107414009C310020983100208C31002088310020DC
:107424000010014000E100E07C300020FEFF7F00FE
:107434008931002008B5FFF72FFE104B00200B22E6
:1074440018809A700E4B18600E4B18700E4B187003
:107454000E4B4FF48012C021C3F8802183F814131B
:107464001A6002F18042A2F56F22C2F8080583F87F
:107474001113074BD2F804251A6008BD7C30002094
:107484009C310020943100209531002000E100E07F
:1074940098310020074B9B784BB132B128B1036877
:1074A400187C20B959745A61704707207047082026
:1074B400704700BF7C3000202DE9F743DFF884805B
:1074C40098F8023005460E461746ABB3A0B304291C
:1074D40030D9436983B3437C0024012B0DF10700A9
:1074E4000CBF8946A1468DF8074000F047F90DF11D
:1074F4000600FFF78BFDD8B1012303700F4B4560E5
:10750400D3F80435C0E90497C0E902369DF8063083
:1075140088F801309DF8070000F054F924B9084BAD
:107524004FF48012C3F80021204603B0BDE8F08375
:107534000424EFE70724F7E70824F5E700100140E7
:1075440000E100E07C300020064A92783AB130B184
:10755400426922B1002202740221FFF76DBD0820A6
:10756400704700BF7C3000200648074A037807496B
:10757400D35C012213B1043001F042BF0C3001F09E
:10758400C1BC00BFB42A002004320020C83100204E
:107594000648074A03780749D35C012213B1043033
:1075A40001F0E0BE0C3001F05BBC00BFB42A002047
:1075B40004320020C931002037B50578012D0BD0E5
:1075C400022D2CD0F5B91D491D48FFF70EFD0028EA
:1075D40030D1FFF7DDFF15E043681A4C19782046D7
:1075E400FFF7F1FC80B18DF800500190164B68460E
:1075F4001B689847A168E368A2885B1A9A420AD379
:10760400FFF7B2FF03B030BDA268E3689A42F1D03D
:107614008DF80000EAE70D4B01221A70F2E7C36807
:107624008DF800500193FFF79FFF074B68461B68D6
:107634009847E7E703238DF80030F6E7C9310020C7
:10764400B8310020A4310020A0310020B431002042
:10765400F0B51F46234B89B004461A600D46002935
:107664003DD08A8820480968FFF79EFC002834D161
:10767400AA89A9681D48FFF797FC00282DD11C4E44
:107684000FCE6D460FC596E80F0085E80F006369BD
:107694000693237C174A18488DF81C70003B18BFCA
:1076A40001238DF81430637C002B14BF0E230023B8
:1076B4008DF81530E3680293A3680393236801935C
:1076C40069466368009300F0FBFE30B90B4B1870F9
:1076D4002368013301D0FFF747FF09B0F0BD07204D
:1076E400FBE700BFA0310020A4310020B831002006
:1076F400F8C70200BD750200B42A0020B43100208E
:1077040070B5084D014608482E78FFF76EFC044614
:1077140036B100232B70FFF727FF08B1FFF7FEFBFC
:10772400204670BDB4310020A431002010B50146BC
:107734000E48FFF748FC0446A8B90D480D4A0378E3
:10774400D35C63B1043001F04FFE60B90A490748C5
:10775400FFF74BFC38B9BDE81040FFF719BF0C30F8
:1077640001F0C4FBF1E7204610BD00BFB831002092
:10777400B42A002004320020C931002070B5EFF390
:10778400108672B60C4A946801239CB993600B4B23
:107794000B4DD3F8801029401160C3F88050D3F802
:1077A400841051604FF0FF32C3F88420047006B98E
:1077B40062B670BD0370FAE7CC31002000E100E04E
:1077C400FC06FFBD084B9A6810B55AB150B9EFF3E7
:1077D400108172B6054A1C6814605C685460986035
:1077E40001B962B610BD00BFCC31002000E100E059
:1077F40001F01F024B090121914000EB830000F0CE
:107804001EB801F01F0301229A404B0900EB8300CC
:10781400D14300F02CB84B0901F01F0150F82300AC
:10782400C84000F00100704710B5034653E8000F4C
:107834000A4643E8002494F0000FF7D110BD10B5B8
:10784400034653E8002F42EA010043E8000494F0A1
:10785400000FF6D110BD10B5034653E8000F00EA3F
:10786400010243E8002494F0000FF6D110BD10B5D6
:10787400034653E8002F02EA010043E8000494F0B1
:10788400000FF6D110BD10B5034653E8002F02EBEC
:10789400010043E8000494F0000FF6D110BD10B5C8
:1078A400034653E8002FA2EB010043E8000494F0E0
:1078B400000FF6D110BD0121FFF7C1BF0021FFF772
:1078C400CABF37B5054600240DF107008DF80740FF
:1078D400FFF754FF2A686B68116899420ED9481E55
:1078E400106011F8014CEB68298A01FB0434AB6881
:1078F40011791B1ADBB2994238BF13719DF8070046
:10790400FFF760FF204603B030BD37B505460023BE
:107914000DF107000C468DF80730FFF72FFF2A689A
:107924001368591C1160E968641A298AB4FBF1F4DC
:107934001C709DF80700FFF745FF03B030BD826857
:1079440010B504462AB143690168006998470023C9
:10795400A36010BD0EB403B5039921B104AB01AA11
:10796400019300F06FF802B05DF804EB03B07047C8
:10797400826830B40468551C8560A154D0E9013292
:107984009A4202D330BCFFF7DABF30BC7047000024
:107994002DE9F84F9846DDE90A43154682460F461D
:1079A4000A464FF00109AA420FD2C14538BFC14669
:1079B40013F0010B01D16CB900240126B8F1010FB9
:1079C4001BD908F1FF386E43F8E709F10109B2FB4E
:1079D400F5F2E8E79B070ED5B8F1000F0CBF30268F
:1079E4002026A145E9D2013C31465046FFF7C0FFAD
:1079F400002CF6D1E0E72026F3E7B7FBF6F39D422F
:107A0400E1D9DFF83C80B7FBF6F3504618F80310D1
:107A140006FB1377FFF7ACFF3346AB42B6FBF5F634
:107A2400F1D2BBF1000F02D00CB1A14501D3BDE8E6
:107A3400F88F20215046013CFFF79AFFF4E700BF7E
:107A440018C802002DE9F74F054617468846002955
:107A540000F0428118F8011B49B92B7B002B00F080
:107A64003B81284603B0BDE8F04FFFF768BF2529E6
:107A740040F0B780002698F800302D2B424608F1DC
:107A8400010823D0302B24D02B2B25D000242A2BE3
:107A940002F1010123D13B681A1D1B683A601C44A2
:107AA4000A4613782E2B26D101324FF0000A1046D5
:107AB40010F8011BA1F1300CBCF1090F1DD80A23E9
:107AC40003FB0A13A3F1300A0246F0E746F001066D
:107AD400D1E746F00206CEE746F00406CBE711F8FC
:107AE400013CA3F130000928DBD80A2202FB04344C
:107AF400303C0A46CBE74FF0000A12F8011B01F0B4
:107B0400FB0068289046F8D0782909D86F290CD84A
:107B1400632962D022D8252963D0582900F08880AF
:107B240098F80030002B95D197E770390829F7D8D9
:107B340001A353F821F000BFB77C0200257B0200AB
:107B4400257B0200457C0200257B0200237C020089
:107B5400257B0200257B0200357C0200642901D0CC
:107B64006929DDD13A68D2F80090111D89EAE972D9
:107B74003960A2EBE9724FF0010B092A35DCD345D9
:107B840038BFD3462CB1B9F1000F01DB720700D521
:107B9400013CB30702D5BAF1000F03D0F00701D4BA
:107BA4004CBB0024B9F1000F2DDAC9F100092D21D5
:107BB4002846FFF7DDFE06F00302022A04D1BAF1DB
:107BC400000F01D11CBB0024CDE9004653460A2214
:107BD40049462846FFF7DCFEA2E73B681A1D1978E0
:107BE4003A602846FFF7C4FE9AE70A230BF1010B1B
:107BF400B2FBF3F2C1E7A345D4D220212846013CCD
:107C0400FFF7B6FECCE77107D5D52B21D0E7A34506
:107C1400DAD230212846013CFFF7AAFED2E73968C0
:107C2400CDE900460A1D3A6053460A220968D0E7A6
:107C340039680A1D3A60CDE9004653461022F5E73B
:107C44003B681A1D3A6016F00106D3F8009028D15B
:107C5400B9F1000F03D0484604F04BF90646B4428C
:107C640000D904BB09F1FF3919F8011F00293FF4B9
:107C740057AF2846FFF77CFEF6E728460136FFF7A4
:107C840077FE19F806100029F7D1A642BFF448AFD1
:107C9400002C3FF445AF20212846013CFFF768FE45
:107CA400F3E70026EDE720212846013CFFF760FEBC
:107CB400D5E73B681A1D3A60302128461C68FFF757
:107CC40057FE78212846FFF753FE00220823CDE90A
:107CD4000032214610227CE703B0BDE8F08F00BFDC
:107CE4002DE9F84FB0F806A04579D2F800B09DF818
:107CF40028900AFB05F5043D88460BEB0301A942D5
:107D040003F1040488BFA5EB030BB4FBFAF60746A2
:107D14000AFB1644C2F800B04EB9AAEB04055D454F
:107D240028BF5D46BBF1000F04D1BDE8F88F3F6862
:107D3400013EF1E7043408EB06003C442A46B9F15D
:107D4400000F0DD02146ABEB050B04F076F8DA45B5
:107D54002E443F6855464FF0000428BF5D46E1E7D6
:107D640001462046EFE7F8B546790146721E0546FE
:107D7400002393422D6803D30024A64202D8F8BD01
:107D84000133F6E70F682846FFF7BFFD0134394693
:107D9400F3E72DE9F843068ACD1C0746FFF791FD6A
:107DA400043E35440446B5FBF6F5F0B14FF4807358
:107DB400EDB28380C680013D076081464FF0000824
:107DC400A84512D23846FFF77CFD064648B16379D0
:107DD4000133637108F10108C9F8000007608146A6
:107DE400EEE72046FFF7BFFF34462046BDE8F883A0
:107DF40001210430FFF747BD10B5012104460430CA
:107E0400FFF74DFD10F0FF0F04D12046BDE81040F0
:107E1400FFF7A9BF10BD1FB503920022009203AA69
:107E2400FFF75EFF05B05DF804FB1FB50392012266
:107E3400009203AAFFF754FF05B05DF804FB41DF8D
:107E440070470000064B10B500241C70054B1C60E5
:107E5400BFF35F8F0449054800F030F8204610BD99
:107E6400E0310020E431002034C80200D831002081
:107E740007B500230DF107008DF80730FFF77EFCEE
:107E8400F1EE103A23F09F03E1EE103ABFF35F8F57
:107E9400094B4022C3F884219DF80700FFF792FCA8
:107EA40003F020FD20B1FFF7CAFF03B05DF804FB27
:107EB40020BF40BF20BFF8E700E100E00B684A683C
:107EC4004360934208BF0023016008BF43607047CA
:107ED400436843B10268916852680B44934243601B
:107EE40004BF00234360704710B50D49A1F5947297
:107EF400914201D800200FE08C1AE30F03EBE40356
:107F04005B1002EBC30452F83330834205D802D22B
:107F140004F10802ECE7606810BD2146E8E700BF01
:107F240038CD020008B5FFF7DFFF024B002808BF79
:107F3400184608BDFACB02000C4B1B78062B10D157
:107F44000B4B1B681A070CD10A4B186800F0F0039E
:107F5400302B08D000F0E000A0F140035842584113
:107F64007047002070470120704700BFE00F00F009
:107F7400E40F00F0E80F00F0094B1B78062B0CD13E
:107F8400084B1B681A0708D1074B186800F0F0006B
:107F9400A0F130035842584170470020704700BF99
:107FA400E00F00F0E40F00F0E80F00F008B5FFF771
:107FB400C3FF28B17D4B7E4A1B68C3F304231360BF
:107FC400FFF7DAFF10B17B4B7B4A1A60FFF7B4FF6F
:107FD40028B17A4B7A4A1B68C3F342331360FFF724
:107FE400CBFF20B1774AD36823F08073D360FFF7C7
:107FF400A3FF40B14FF080430022C3F80C21C3F823
:108004001021C3F83825FFF7B7FF10B16E4B0322D8
:108014001A60FFF7B1FF40B16C4B05221A600122D0
:108024009A6700229A603F225A60694B1B78062B9C
:1080340050D1684B1B6819074CD1674B1B6803F080
:10804400F003502B46D14FF08052644BD2F8041405
:10805400C3F82015D2F80814C3F82415D2F80C1468
:10806400C3F82815D2F81014C3F82C15D2F8141438
:10807400C3F83015D2F81814C3F83415D2F81C1408
:10808400C3F84015D2F82014C3F84415D2F82414C8
:10809400C3F84815D2F82814C3F84C15D2F82C1498
:1080A400C3F85015D2F83014C3F85415D2F8341468
:1080B400C3F86015D2F83814C3F86415D2F83C1428
:1080C400C3F86815D2F84014C3F86C15D2F84424E8
:1080D400C3F87025FFF730FF28B1414B414A1B68B4
:1080E40003F04F031360FFF727FF48B14FF08043BD
:1080F400D3F80024D20744BF6FF00102C3F8002470
:10810400394B1B68062B08D1384B1B68062B01BF63
:10811400374A136843F480631360364AD2F88830D0
:1081240043F47003C2F88830BFF34F8FBFF36F8FEF
:108134004FF01023D3F80022002A03DBD3F80432D3
:10814400002B2FDA2C4B0122C3F80425D3F800248A
:10815400002AFBD04FF010221521C2F80012D3F8E8
:108164000024002AFBD04FF010231522C3F8042268
:10817400214B1A46D3F800140029FBD00021C3F880
:108184000415D2F80034002BFBD0BFF34F8F1949EC
:108194001A4BCA6802F4E0621343CB60BFF34F8FFB
:1081A40000BFFDE7164B174A1A6008BD24030010F0
:1081B4004035014074C007400DF0ADBA44020010D0
:1081C4003C050040F0ED00E0A005004010560040E2
:1081D400E00F00F0E40F00F0E80F00F000C00040F2
:1081E40058020010E40E0040300100103401001069
:1081F4003C17004000ED00E000E001400400FA05F7
:10820400C82A00200090D003054A4FF0A043105C18
:10821400D3F8043523FA00F0C04300F0010070479E
:108224003CCD0200044B1A5C012393404FF0A04262
:10823400C2F80C35704700BF3CCD0200044B1A5CF9
:10824400012393404FF0A042C2F80835704700BFA5
:108254003CCD020008B50020FFF7F0FF0120FFF736
:10826400EDFF0220FFF7EAFFBDE808400320FFF717
:10827400E5BF08B50020FFF7D5FF0120FFF7D2FFC7
:108284000220FFF7CFFFBDE808400320FFF7CABF75
:10829400074A4FF0A041105CD1F804350122824016
:1082A40022EA03001340C1F80805C1F80C357047F1
:1082B4003CCD0200054A4FF0A043105CD3F81035C2
:1082C40023FA00F0C04300F00100704738CD0200EB
:1082D4000D2809D00E2809D00F2809D010280CBF6A
:1082E40003204FF0FF307047002070470120704793
:1082F40002207047014B185C704700BF38CD020064
:10830400C20708B501460CD54FF0A0430322C3F8B9
:108314004427C3F84827C3F84C27C3F85027FFF76E
:1083240099FF8B070AD54FF0A0430C22C3F83427DA
:10833400C3F83827C3F83C27C3F8402708BD00001A
:1083440038B5074C051E04F1080318BF1C46236802
:108354002BB11A6822605B6828469847F7E738BD56
:10836400F031002020B9054B01225A70FFF7E8BF15
:10837400012802D1014A9070F8E77047E8310020E3
:1083840020B9034B01225A70FFF7DABF704700BFD0
:10839400E831002038B50B4C237883B90A48636070
:1083A400A3602361E36000F0D3F8054603F09AFA72
:1083B40008B900F0D9F801232370284638BD852573
:1083C400FBE700BFE83100206983020037B50B4C9E
:1083D40000230DF107008DF80730FFF7CFF9E368AC
:1083E400013BE360E56815B900F0D2F8A5709DF88B
:1083F4000700FFF7E7F903B030BD00BFE831002004
:10840400012813B508D003281CD018B9104B012239
:10841400C3F8802002B010BD0E4C00230DF10700FC
:108424008DF80730FFF7AAF923780BB9FFF7B2FFED
:10843400E3689DF807000133E3600123A370FFF7AD
:10844400C1F9E7E700F090F8FFF7C0FFE2E700BFEB
:1084540000E100E0E83100201FB503788DF800301A
:1084640043680193037A8DF80830C368054A03937F
:10847400054B684653F8213052F82110984705B04F
:108484005DF804FBFC310020003200201FB50378A6
:108494008DF800304368019383688DF80830C36811
:1084A400054A0393054B684653F8213052F82110CE
:1084B400984705B05DF804FBFC3100200032002031
:1084C400F0B5194B90F800C091F81DE043F82C204A
:1084D400164B16460A6943F82C20154B03F80CE09A
:1084E4000C4607460FCC89B06D460FC594E80F00C3
:1084F40085E80F00CDF810C0BEF1000F09D0002EA2
:108504000C4A694608BF3246381D00F001FE09B026
:10851400F0BD002E084A694608BF324607F10C0038
:1085240000F07CFBF3E700BF00320020FC310020A8
:10853400043200205D8402009184020000F1804036
:10854400002382B0036003680193019B02B070476B
:10855400044A137923B901211060918018467047A9
:108564008520704708320020084B1A68D20706D4C9
:10857400C02283F800230122C3F880211A604FF03F
:1085840080430122C3F81825704700BF00E100E0D2
:10859400044B01221A604FF08042D2F81834DB03F6
:1085A400FBD470470C000040124B1B6810B573B12C
:1085B4004FF48070FFF7C2FF4FF080430122C3F8ED
:1085C40008230D4B587910B95A711B6898470B4B07
:1085D4001B6873B14FF48270FFF7B0FF4FF0804314
:1085E4000222C3F80823044BBDE810401B68012095
:1085F400184710BD0001004008320020040100406B
:1086040000F1804000F5C040002382B0036003689D
:108614000193019B02B07047800000F1A040D0F8A4
:10862400002722F44032C0F80027D0F8003743EA8C
:108634000141C0F800177047054B4FF0FF3207287F
:1086440043F8202084BFC01880F84820704700BF3A
:108654001032002010B5184C94F8583053BB04F174
:1086640030032021FF22013911F0FF0103F8012B0F
:10867400F9D1C8B2FFF7E0FF01310C29F9D1042286
:1086840000210E4803F002FC0D4BC02283F80623A0
:108694004022C3F880214FF4BE701A60FFF7B0FF88
:1086A400084B4FF00042C3F80423012384F85830E8
:1086B400002010BD0820FCE71032002064320020A6
:1086C40000E100E000600040034B93F858000038DC
:1086D40018BF0120704700BF10320020F0B5364D9E
:1086E4002C1894F93040002C64DA8C78C4F34004DC
:1086F400002C0BBF082300230C260826B34201D10B
:108704000420F0BD55F8237001373FD12E1845F8E9
:10871400232086F8303014B9EA1882F848008A78A1
:10872400540713D4D60733D5820002F1A042D2F8FD
:10873400004724F00204C2F80047204EC20800F0AB
:1087440007070124BC40B75C3C43B4548A780C78D6
:1087540012F0020225D09B0003F1804303F5C043CD
:108764000202D3F8101521F4473121F44071C3F803
:1087740010152404D3F8101502F4F85204F440340C
:1087840022430A43C3F810250020BAE70133B5E7B2
:108794004C7800F5E0724FF0A046A40046F8224061
:1087A400CBE7083B2B4493F8501041EA841483F838
:1087B4005040E9E70820A4E710320020643200208A
:1087C40038B51F4C251895F93020072A16DD2244A8
:1087D40092F848309B09032B0BD14FF0A043D3F8F8
:1087E4001015C14001F001010231BDE83840FFF726
:1087F40013BF012B0CBF02210321F6E7D3B2072BD1
:108804001CD8930003F1804303F5C043D3F810054B
:1088140040F00100C3F8100502F14000800080B26E
:10882400FFF7EEFE51B195F9303054F823302BB1F7
:10883400012303FA02F2034BC3F8042338BD00BF3B
:1088440010320020006000404FF0A043D3F81035F0
:1088540023FA00F000F00100704700002DE9F04F0A
:1088640087B000245A4D03944FF48072012102F121
:10887400804303F5C04390B21B68012B06D1D5F8A1
:1088840004330B4202D0FFF7BBFE0C430432B2F5B3
:10889400907F4FEA4101EAD14E4B1B68012B0AD16C
:1088A4004FF4BE70FFF7ACFE4FF0A04344F0004419
:1088B400D3F81035039314F0FF0F1AD0464F002558
:1088C4000126344210D0AB0003F1804303F5C043CA
:1088D400D3F81005D3F8101557F8253023B1C1F398
:1088E4000141C0F3042098470135082D4FEA46069C
:1088F400E7D1002C65DA00214FF0FF33CDE90413F2
:10890400354D01274FF0000A344ED1464FF0A048B0
:1089140016F9013B5A1C45D0C3F3C20106AA5018EC
:10892400DCB210F8042C03F03F0B03F0070307FA42
:1089340003F31A4236D005EB0B02A40992F9302056
:1089440055F8222052B9032C2CD10DF1100E1EF82B
:1089540001C04CEA030C0EF801C001E0032CF4D072
:108964000BF5E07110F80C0C58F821101842C1F303
:10897400014105D0022915D1032C0FD1214604E071
:1089840003290FD1032C09D102215846019209F180
:108994000109FFF741FE019A5FFA89F912B12146F4
:1089A400584690470AF1010ABAF1040FB0D1B9F15F
:1089B400000F06D04FF0A043039AD3F8103593422A
:1089C40002D107B0BDE8F08F0393049B059399E7A8
:1089D400006000407C6100401032002060320020C2
:1089E400014B1B68184700BF6C3200200E4B9842A5
:1089F40037B50C4602D0002003B030BD00230DF182
:108A040007008DF80730FEF7B9FE084B1D7915B93C
:108A140001221C601A719DF80700FEF7D3FE002D99
:108A2400E9D01120E8E700BF002000406C320020AC
:108A3400034B984201BF034B00221A601A7170471E
:108A4400002000406C3200200023435082B0435881
:108A54000193019B02B070470A4610B54FF48E7122
:108A6400FFF7F2FF136A9168C95C136A013313625A
:108A7400C0F81C1510BD024608B500684FF4927189
:108A8400FFF7E2FF4FF484711068FFF7DDFF13680E
:108A940001221A6008BD8B690A4610B54FF484712F
:108AA40023B9FFF7D1FFD0F8183510BDFFF7CCFF7D
:108AB400536AD168D0F81805C854536A0133536215
:108AC400F3E700001FB501238DF80030044BCDE916
:108AD4000110D3E900126846904705B05DF804FB25
:108AE4007432002030B54B48D0F8043313F4007FBF
:108AF40085B005464DD0D0F82431002B49D04FF431
:108B04009271FFF7A1FF4FF40173C0F80833424B91
:108B140093F829200AB9012242603E4902228DF8C5
:108B24000020D1F88024C1F8802403929A6902922B
:108B3400DA6801920022C3E906226846D3E90012EA
:108B440090473448D0F81C315BB133490A6A4B6909
:108B54009A420A464AD291F82830002B46D1FFF7B0
:108B64007BFF2C48D0F844318BB14FF4A271FFF74E
:108B74006BFF294B93F829200AB1012202609A69FC
:108B84002AB10022586AD9689A61FFF79BFF05B0A1
:108B940030BDD5F804335B07D3D5D5F80831002BA5
:108BA400CFD01D4C1B482146FFF775FF636AA269AD
:108BB4009A422346C5D1E269E1684AB12369E36078
:108BC4000023606AA261E3616362FFF77BFFB8E799
:108BD40094F829200AB901226A600E4A4FF4017000
:108BE400C2F808030022586A9A61EEE74FF48E71C6
:108BF4000848FFF729FF51690029B2D000230291E8
:108C040091688DF80030019153616846D2E90013F0
:108C14009847A6E700200040743200202DE9F8436D
:108C24005A4B057991462C2202FB0532064692F8EE
:108C34002A200C469846002A40F0A4805449006833
:108C4400FFF7D4FE0746002840F09E802168336871
:108C5400481C0BD04FF0A04001228A40C0F80825E0
:108C640001F5E0724FF0030C40F822C06068421C2A
:108C74001FBF00F5E0724FF0A04C4FF0000E4CF80F
:108C840022E0A269C3F8242594F814C0627DBCF1E3
:108C9400010F4CEA0202C3F86C25C3F81405C3F8AB
:108CA4000C151DD1A1684A1C1FBF01F5E0724FF0DD
:108CB400A0404FF0000C40F822C0E268501C0BD0DA
:108CC4004FF0A04C01209040CCF8080502F5E0706C
:108CD4004FF0030E4CF820E0C3F80825C3F8101534
:108CE4002C236B4308EB0302C2F80490226948F872
:108CF4000320B9F1000F32D03068227F4FF48E7117
:108D0400FFF7A2FE30684FF4A271FFF79DFE3368AF
:108D14002049C3F80413190B43F30733002BA8BFEE
:108D240003F160404FEA5313BCBF01F00F041A482B
:108D34004FEA4212A8BF00F561404FEA8303D2B262
:108D440003F16043B4BF025580F8002303F5614387
:108D540001F01F0101228A40C3F880211A603368A0
:108D64000422C3F800252C2303FB05830022C3E956
:108D7400062283F829205A61012283F82A203846E2
:108D8400BDE8F8830827FAE71127F8E774320020D2
:108D9400E98A02008000020014ED00E0F8B50479CD
:108DA40000682C4D0023C0F800352C2303FB04532A
:108DB4005B686BB1284BC0F8083340F30733C0F34A
:108DC40004315B0901228A402033244941F82320DD
:108DD400D0F80C65D0F81415D0F80835D0F8102563
:108DE4004FF0FF37BE42C0F8147518BF06F5E076A1
:108DF400C0F80C75C0F80875C0F810751EBF4FF0A8
:108E0400A0474FF0020C47F826C04E1C1FBF4FF07E
:108E1400A04601F5E071022746F82170511C1FBFDE
:108E24004FF0A04102F5E072022641F822605A1C7C
:108E34001FBF03F5E0734FF0A042022142F8231054
:108E4400FFF7F6FD2C2303FB0454002384F82A3097
:108E54006360F8BD743200208402020000E100E087
:108E64002DE9F843204B07794FF02C0909FB07340F
:108E7400054666699846002E33D100686261A16098
:108E840026624FF48E7184F82860FFF7DDFD2868B0
:108E9400012383602146FFF7DFFD6368A14683B9A0
:108EA4002868226A63699A4211D32B68D3F81C217B
:108EB400002AFBD00122DA602C2303FB0783002263
:108EC4005A613046BDE8F88394F828303BB9D0F8AD
:108ED4001C31002BF8D04946FFF7BEFDE1E70F2611
:108EE400EAE71126EDE700BF743200200379044A53
:108EF4002C2101FB03235869003818BF0120704757
:108F0400743200202DE9F843394F05792C2303FBF3
:108F1400057306465C6824B103684FF40170C3F816
:108F240008032C2303FB0573986950B1D869002802
:108F34003ED024B133684FF40172C3F804231124E2
:108F440033E09A61D9605862D8612C2303FB05731E
:108F540093F829301BB910B93046FFF78CFD4FF058
:108F64002C0909FB05783068D8F80430002B34D17B
:108F74004FF4A271C146FFF767FD3068D0F8243181
:108F8400D0F80821D0F84441B2B90CB9002BF4D080
:108F94002C2202FB05750022AA6123BB2CBB95F889
:108FA400291033680122B1B11A602046BDE8F88364
:108FB4001961DA610120C8E7002BE9D1002CE7D15F
:108FC4004946FFF768FDD8F82430D8F818209A42AB
:108FD400D3D82346DCE75A60E7E74FF40173C0F8BF
:108FE40004330024E1E70324DFE70F24DDE700BFB7
:108FF400743200200023435082B043580193019BF4
:1090040002B070471FB501238DF80030054B8DF871
:10901400080001916846D3E90012904705B05DF855
:1090240004FB00BFA03200207FB5374AD2F8246188
:10903400002E47D010464FF49271FFF7DBFF022356
:109044008DF80030D2F88034C2F880340393D2F81B
:109054003C358DF808302D4BDA6801920022C3E9C3
:1090640006226846D3E9001290472748D0F84431D5
:109074006BB14FF4A271FFF7BDFF244B9A6932B173
:1090840000229A61D0F83C05D968FFF7BBFF1E485F
:10909400D0F82031A3B14FF49071FFF7ABFF1B4B15
:1090A4005A696AB1D0F84C158DF8081000229968F5
:1090B4008DF8002001915A616846D3E90012904767
:1090C40004B070BDD2F81031002BCED04FF48871AB
:1090D4001046FFF78FFF0D4BD2F83C059969884283
:1090E400C3D1DC69D96864B1D2F8005225F02005F7
:1090F400C2F800521A699C61DA60DE61FFF782FFF0
:10910400B3E79C61FAE700BF00200040A0320020D2
:109114002DE9F8435E4B06799146242202FB063280
:10912400044692F820200D469846002A40F0AC8070
:1091340058490068FFF75AFC0746002840F0A6800B
:1091440029682368481C0BD04FF0A04001228A40B4
:10915400C0F8082501F5E0724FF0030C40F822C076
:109164006868421C1FBF00F5E0724FF0A04C4FF03E
:10917400000E4CF822E0AA69C3F8242595F814C01F
:109184006A7DBCF1010F4CEA0202C3F86C25C3F8F6
:109194000C15C3F814051DD1A9684A1C1FBF01F59D
:1091A400E0724FF0A0404FF0000C40F822C0EA6893
:1091B400501C0BD04FF0A04C01209040CCF8080577
:1091C40002F5E0704FF0030E4CF820E0C3F80825D8
:1091D400C3F810152423734308EB0302C2F8049068
:1091E4002A6948F80320B9F1000F3CD020682A7F8F
:1091F4004FF48871FFF7FEFE20684FF49071FFF77B
:10920400F9FE20684FF49271FFF7F4FE20684FF4E2
:10921400A271FFF7EFFE23681F49C3F80413190B6B
:1092240043F30733002BA8BF03F160404FEA531305
:10923400BCBF01F00F0519484FEA4212A8BF00F560
:1092440061404FEA8303D2B203F16043B4BF425595
:1092540080F8002303F5614301F01F0101228A40D5
:10926400C3F880211A6023680822C3F80025242348
:1092740003FB06830022C3E906225A61012283F814
:1092840020203846BDE8F8830827FAE71127F8E7D5
:10929400A03200202D9002001003020014ED00E023
:1092A400F8B5047900682C4D0023C0F80035242358
:1092B40003FB04535B686BB1284BC0F8083340F3DD
:1092C4000733C0F304315B0901228A402033244967
:1092D40041F82320D0F80C65D0F81415D0F80835DF
:1092E400D0F810254FF0FF37BE42C0F80C7518BFF8
:1092F40006F5E076C0F81475C0F80875C0F8107566
:109304001EBF4FF0A0474FF0020C47F826C04E1C7A
:109314001FBF4FF0A04601F5E071022746F8217007
:10932400511C1FBF4FF0A04102F5E072022641F824
:1093340022605A1C1FBF03F5E0734FF0A0420221C4
:1093440042F82310FFF774FB242303FB0454002387
:1093540084F820306360F8BDA032002010030200BE
:1093640000E100E001F06043B3F1005F2DE9F0415A
:10937400064632D11B4B0779242505FB0735984651
:109384006C6964BB6A610068A9604FF49071FFF76F
:1093940031FE4FF4AC713068FFF72CFE33686A6914
:1093A400A968C3F84415C3F8482501229A606A687D
:1093B40062B9D3F82021D3F8584152B9002CF8D01F
:1093C4000F24242303FB078700237B612046BDE889
:1093D400F081002C18BF0F24F3E71024F6E71124C2
:1093E400F4E700BFA03200200379044A242101FBE2
:1093F40003235869003818BF01207047A0320020A9
:10940400F8B501F06043B3F1005F04460F465ED146
:109414000379304D242101FB0351496821B10068CF
:109424004FF40476C0F80863242000FB03539E69BC
:1094340056B1D869002839D021B123684FF4047299
:10944400C3F80423112030E09A61DF60DE612068F4
:109454004FF48871FFF7CEFD20684FF4A271FFF737
:10946400C9FD2368C3F83475C3F8382516BB012237
:109474001A602179242202FB015252680ABBD3F8F4
:109484001041D3F84421D3F82401144302D1002815
:10949400F5D02246242303FB01550023984218BF2C
:1094A40003209A42AB6118BF0F20F8BD1F61DA6137
:1094B4000126CCE7D3F8002242F02002C3F80022B0
:1094C400D7E74FF40472C3F804230020EDE710201B
:1094D400EBE700BFA03200201FB503788DF8003001
:1094E4008388ADF8043083688DF80630C3688DF83E
:1094F4000730036902934369054A0393054B6846A1
:1095040053F8213052F82110984705B05DF804FB58
:10951400C4320020CC320020024B4FF4807043F060
:109524000103184770CD02002DE9F047174690F863
:109534000090324A42F82970314A42F829304B7B74
:1095440080460C4663B30868496882008B0002F1C8
:10955400A04203F1A04340F20C65C2F80057012673
:10956400C3F800574FF0A04506FA00F006FA01F1DF
:10957400C5F80805C5F8081540F20D61C2F80017D2
:10958400C3F80017FFF7C8FF4FF0000AD5F81025FD
:10959400636822FA03F3DB070ED5BAF1000F1ED17C
:1095A400002F184A4B4608BF3A46214608F10400EA
:1095B400BDE8F04700F0D2B8236806FA03F3C5F813
:1095C4000C35FFF7A9FF236806FA03F3C5F808353D
:1095D4000AF1010AFFF7A0FFBAF1090FD6D16368B7
:1095E40001254FF0A04605FA03F3C6F80C35FFF742
:1095F40093FF63689D40C6F80855D1E7CC3200203C
:10960400C4320020DD9402000023435082B043584A
:109614000193019B02B07047F0B54C484C4CD0F814
:10962400243187B005469BB14FF49271FFF7ECFFEC
:10963400D0F8043163B9A368C0F808330223A360E7
:10964400A368C0F8043301230362436107B0F0BD8B
:10965400D5F80431002B49D03E4F3C484FF4827179
:10966400FFF7D2FF0FCF01AE0FC63B68336094F80B
:109674002E307BB1237B012B0CBFD5F83C25D5F8CC
:109684004C250292022B314B0CBFD3F83C35D3F856
:109694004C3503932D484FF4B071FFF7B5FF2B48B9
:1096A4004FF4AE71FFF7B0FF94F8303013B194F873
:1096B4002E303BB1254B0022C3F80022A260264A7B
:1096C400C3F80823214AD2F8C434C2F8C4349A0730
:1096D40036D501238DF8003094F830300BB984F876
:1096E4002F30D4E9003168469847AFE717484FF464
:1096F400A471FFF789FF237B83B9164F0FCF01AE07
:109704000FC63B68336094F83030002BDAD1C5F8CB
:109714000032A360104BC5F80833D3E74FF400734D
:10972400C5F8003240F20223A36003F1CE73C5F8FA
:109734000833A368C5F804330123AB602B6285E7C3
:1097440013F0040318BF0223C4E700BF0030004035
:10975400D4320020E032002002029C012DE9F84FAF
:109764000679374D4FF0340A0AFB06FA05EB0A0472
:109774009B4694F82D3080460F469146002B5AD1D3
:1097840030490068FFF732F9002856D13A687B7BEC
:1097940084F832304FF0A04102F5E073A060C4F8C1
:1097A40004B084F82F0084F8300040F20C6445F8CB
:1097B4000A9041F823407B6803F5E07C41F82C4093
:1097C400D8F80040C4F80825C4F80C35BB68C4F8C0
:1097D4002435B9F1000F26D044F30733002B3A7B2C
:1097E400B4BF194903F16041C4F307344FEA53137A
:1097F400B8BF04F00F074FEA4212A8BF01F5614158
:109804004FEA8303D2B203F16043B4BFCA5581F86F
:10981400002303F5614304F01F04012202FA04F457
:10982400C3F880411C60342303FB0655012385F8EB
:109834002D30BDE8F88F0820FBE71120F9E700BFC1
:10984400D43200201D96020014ED00E00268037972
:109854000621C2F80015044A342101FB0323022225
:1098640083F82D20704700BFD43200200220FEF779
:109874000FBD00002DE9F04780460D46FEF728FD98
:109884000328044610D8012D10D0022D30D05DB924
:109894001A48FDF759FE1A4B04EB440213449E7810
:1098A400184B1B5DB34219D0BDE8F087144D00EB93
:1098B4004002A918AE5C4A78470052B1DFF84C90D8
:1098C4000E484A464FF40041FDF7F6FD08B989F801
:1098D40000803B192B449A780A4B1A55002EE3D08A
:1098E400094B1B68002BDFD03046BDE8F047184712
:1098F40000EB4004024804446678EFE72C33002070
:109904006C3300208533002080330020083300208E
:1099140000780221FFF7AEBF08B5094B1B7853B19D
:109924000020FEF78BFC0120FEF788FCBDE8084010
:109934000320FEF783BCBDE80840FEF78BBC00BFE4
:1099440009330020F8B57B4C237805461BB100236E
:109954002370FFF7E1FF172D00F28880DFE805F0A0
:109964000C17174354657680888D888D959A9A9A3A
:109974009A9AC4C9D1D9E4E4FFF7CEFF6E48FDF743
:10998400E3FD6E4B002204461A702046F8BD002009
:10999400FEF73AFCF8B10020FEF750FC022D0CBF94
:1099A4004FF4E1614FF47A61644B1D704FF4004051
:1099B4004FF4FA740025E0FB01454FF47A7200235A
:1099C4002046294602F01AF900220146BDE8F84073
:1099D4005948FDF771BDFEF725FC022D0CBFC821C7
:1099E4004FF4C871E0E70020FEF70EFC40B1002000
:1099F400FEF724FC4FF44871504B03221A70D5E74C
:109A0400FEF710FCC821F7E70020FEF7FDFB38B194
:109A14000020FEF713FC4FF47A61484B0422EDE773
:109A2400FEF700FC4FF4C871F7E70020FEF7ECFBEB
:109A340048B10020FEF702FC404B05221A7041F6A3
:109A44009A110022C2E7FEF7EDFBF5E70020FEF7CE
:109A54001FFC3A4B06221A70002240F6CD41B5E7AE
:109A64000020FEF7DFFB354B07221A7000248CE739
:109A740001202070FEF70CFCEEE701202070FEF7B9
:109A840007FC00224FF48041A0E7FEF7F2FB2B4BCA
:109A94000C22EAE72A482B4EFDF756FDD5F11105B5
:109AA40004461CD0D8B9012D13D0C8235D434FF40C
:109AB40000474FF4FA7000214FF47A720023C7FB79
:109AC400050102F09BF8224601461D48FDF7F4FC0F
:109AD40004460220FEF7A6FB0123337055E702205B
:109AE400FEF7ACFB0023F8E7FFF716FF134B122237
:109AF400BBE7FFF711FF0020FEF794FB0F4B132287
:109B0400B3E7FFF709FF0120FEF78CFB0B4B142290
:109B1400ABE7FFF701FF0020FEF784FB0120FEF70F
:109B240081FB064B1522A0E7FEF7A3FB034B1D7038
:109B34009CE700BF7C3300204C330020843300209A
:109B44000C33002009330020044B1B68DB0703D5CA
:109B5400034B1878FFF7F6BE704700BF7833002038
:109B640084330020032801D8FEF7A4BB00207047EB
:109B7400044B1B6813F0010301D0FFF7E3BE184642
:109B8400704700BF7833002038B51C4B18601C4B5D
:109B940010F00204054619601AD01A4B1A480E2216
:109BA4001A700F22DA7010229A7111225A7204214B
:109BB40040F26662FDF748F9044648B9FDF798F9A2
:109BC400044628B90146114A1148FDF763FC0446CE
:109BD400EB0711D50120FEF793FB6CB921460D4A22
:109BE4000D48FDF757FC044630B9BDE838400B4A30
:109BF4000B480121FDF74EBC204638BD78330020C8
:109C0400803300206C3300207CCD020015990200C3
:109C1400A0CD02004D9B0200A4CD02007198020069
:109C24009CCD0200032811D8012A0AD101290FD1A1
:109C340000F10E02D2B20D4B00EB40001A5400208A
:109C440070470129F7D0022904D049B10720704791
:109C54000022F8E7054B00EB400018444270EEE7A1
:109C6400024B00EB400018448270E8E76C3300209C
:109C7400032808B512D8FEF73DFB800000F1A04090
:109C8400D0F8003723F44033C0F80037D0F8003759
:109C940043F44033C0F80037002008BD0620FCE739
:109CA40008B5012202210020FFF7BCFF08B10728F4
:109CB40010D1072202210120FFF7B4FF08B10728C1
:109CC40008D100210A220846FFF7ACFF10B107288B
:109CD40008BF002008BD00000388102B10B502D077
:109CE400112B1ED010BD1A4C2168B1B901220846AF
:109CF400FFF798FF08B1072824D107220221012089
:109D0400FFF790FF08B107281CD10422022100208C
:109D1400FFF788FF08B1072814D1236801332360B3
:109D2400E0E70B4A1368013B1360002BDAD1FFF71D
:109D3400B7FF0028D6D0074B1B68002BD2D0BDE854
:109D440010401847034B1B68002BE6D09847E4E704
:109D5400903300208C33002008B50020FFF788FFE3
:109D640008B1062806D10120FFF782FF10B10628AA
:109D740008BF002008BD00000D4B10B518600C464C
:109D840029B10120FFF7EEFE40B102232370094BF5
:109D94001B6853B9BDE81040FFF782BFFFF7E2FE2E
:109DA40008B10B23F2E72070F1E7002010BD00BFDB
:109DB4008C3300209033002080B51C4C1C4D8CB09B
:109DC40000F09AF900F0B0FA00F07AFA276845F04A
:109DD4000105616838466B4603C3A068186000211A
:109DE4001F2204A8039102F051F8502314221149B0
:109DF40003A801F0FCFF0C21684600F071FA0C2165
:109E0400684600F061F9232103A800F069FA2321D0
:109E140003A800F059F94FF47A764FF47A40A84732
:109E2400013EFAD100F05AFAD3E700BFC7CD0200D1
:109E3400E0CD0200A8CD020076DF70477ADF7047DC
:109E44007CDF70477FDF70478FDF7047B1DF70477B
:109E540033DF7047FDF762B808B50020FFF788FECE
:109E640008B1FDF75BF8FFF777FF08B1FDF756F887
:109E7400FFF7EEFF18B1BDE80840FDF74FB808BD85
:109E84000388212B13B5044629D007D8112B21D0E0
:109E9400132B2CD0102B0CD002B010BD522B2ED073
:109EA400562B01D03B2BF7D1A0881321FFF7C4FF19
:109EB4000BE00720FFF75CFE08B1FDF72FF8144B09
:109EC400A1881448198001F0DBFA0028E4D0FDF7DA
:109ED40025F8E1E70E4B4FF6FF721A80DCE700230A
:109EE40001A98088ADF80430FFF7AEFFEDE708481C
:109EF40000231A4685210088FFF7A4FFE5E70448FC
:109F040000231A4619460088FFF7A0FFDDE700BFCB
:109F1400D22A0020FC360020074B4A881B889A422C
:109F240008D10A8840F677239A4201BF8B88034AF6
:109F3400033B1380704700BFD22A0020D02A0020A0
:109F440008B503784BB9054B3B211888FFF774FF1C
:109F540018B1BDE80840FCF7E1BF08BDD22A0020D3
:109F6400072808B513D00A280DD0042819D10D4BA1
:109F740013211888FFF760FF30F0080311D0BDE803
:109F84000840FCF7CBBFBDE80840FFF765BF054BB1
:109F94001A884FF6FF739A4203D1034800F03DFE3E
:109FA400EAE708BDD22A00208C34002008B548B165
:109FB40003280BD10220FFF7DBFD38B1BDE80840D0
:109FC400FCF7ACBFBDE80840FFF746BF08BD000082
:109FD400F7B50378012B33D0022B31D073BB1A4C65
:109FE4001A4D20782844FDF78BFB23780133DBB22C
:109FF4001D44237015F8012C0A2A05D00D2A03D01C
:10A00400134A12889A4219D8012B15D9114D0F4EB3
:10A01400114F2378ADF806300DF106022B88314636
:10A02400384601F0A3FB082806D01328F1D00528F0
:10A0340002D008B1FCF772FF0023237003B0F0BD17
:10A044004068FCF76BFFF9E7883400209433002064
:10A05400D02A0020D22A0020D42A002038B504783F
:10A06400054654B138BD2B69185DFDF75FFB18B187
:10A074001128F8D0FCF752FF0134AA8AA242F2D880
:10A084002B69134413F8013C0D2BEBD10A20FDF787
:10A094004DFB1128F9E7FCF741BF000008B508495A
:10A0A400084801F0D9F808B1FCF738FF0548F72152
:10A0B40001F0E6F818B1BDE80840FCF72FBF08BD71
:10A0C4001D9F0200E436002038B504464518A54219
:10A0D40005D10A20FDF72AFB1128FAD038BD2378D0
:10A0E4000A2BF6D02078FDF721FB18B11128F9D0FE
:10A0F400FCF714FF0134EAE730B5614D0FCDB1B080
:10A1040005AC0FC495E803005E4B5F4A01934FF41E
:10A11400807384E80300CDE9032302935B4A072399
:10A1240001A905A8FDF794FA08B1FCF7F7FEFDF7BD
:10A1340081F908B1FCF7F2FE55490320FFF724FD2D
:10A1440008B1FCF7EBFE05A90020FFF715FE08B1E6
:10A15400FCF7E4FEFDF776FE08B1FCF7DFFE01F044
:10A1640083FB08B1FCF7DAFE002305A9012005935F
:10A1740001F008FC08B1FCF7D1FE05A801F0D2FCFF
:10A1840008B1FCF7CBFE112342488DF8043001F0EE
:10A19400B0FE404982B201A8FFF752FE08B1FCF7B5
:10A1A400BDFE0021082205A801F070FE3A494FF0D7
:10A1B400C87305A8CDE90513FFF740FE08B1FCF705
:10A1C400ADFEFFF76BFF354B3548059305A901F04C
:10A1D40045F908B1FCF7A2FE042200210DEB0200B0
:10A1E40001F054FE2F4B3048019301A901F044FAC9
:10A1F40008B1FCF793FEAC22002105A801F046FE4D
:10A2040002238DF814304FF4A063284AADF81630B9
:10A214000123ADF8603019928DF89030402244F259
:10A224005063CDE927232248224B2E9305A900F041
:10A2340032FB08B1FCF772FE1D48012100F028FB37
:10A244001C22002105A801F021FE00234FF4203236
:10A25400CDE90532ADF822304FF470228DF8243068
:10A26400154B07920A930322144B8DF8202005A85E
:10A274000B9300F0EFFD08B1FCF750FE31B030BD98
:10A28400F0CD02000837002008380020D59F0200D6
:10A29400659F0200E6CD020010003C009BA0020076
:10A2A400FC36002061A00200D42A0020CC2A002021
:10A2B4008C340020B19F0200459F0200599E020089
:10A2C40008B50548032100F065FB18B1BDE8084056
:10A2D400FCF724BE08BD00BF8C340020FDF7C8BDC8
:10A2E40073B50B4D0B4EADF8061004462B880DF1DB
:10A2F40006022146304601F039FA082806D0132810
:10A30400F4D0052802D008B1FCF708FE02B070BDF5
:10A31400D22A0020D42A0020037813B9014B012249
:10A324001A707047083900201FB51B211A22CDE985
:10A3340000124FF0CD620292022200238DF80C200D
:10A344000A480B4AADF80D3069468DF80F30FFF717
:10A35400EBF8044608B1FCF7E1FD0648FFF776FA8E
:10A36400B4FA84F0400904B010BD00BF08CE020066
:10A374001DA302000CCE02006DDF704779DF704729
:10A384007DDF704764DF70472DE9F04F85B000250D
:10A394000E9CBDF83CB0B4F800A00191074690466D
:10A3A4001E46A9463A884A450DDC45B12388013B3F
:10A3B400A3EB0A039BB2FF2B3AD806F80A3000201D
:10A3C40005B0BDE8F08F7A6852F8290003900022A6
:10A3D4000DF10B0103A8FFF7D5FF0028F0D19DF87C
:10A3E4000B20424521D12288002D14BF00200220D9
:10A3F40002EB0801014459451ADC3DB9013292B21D
:10A40400019B2280B35422880132228022880DF1DC
:10A414000B01324403A8FFF7B5FF0028D0D12188EF
:10A424009DF80B200A442280012509F10109B9E7AE
:10A434000C20C5E72DE9F341089FBDF8248015469B
:10A44400CDE90078022204461E46FFF79DFF50B96D
:10A454003346102229462046CDE9087802B0BDE8EB
:10A46400F041FFF791BF02B0BDE8F0812DE9F04F54
:10A4740000231788138090F82D3085B006460D46CA
:10A48400144653B3082F01D80C2027E102A8FFF784
:10A4940073FF002840F0228123880822EA5423888D
:10A4A40001339BB21B222380EA542088013080B2FE
:10A4B400208006220DF10901284401F0BEFC238806
:10A4C4009DF8082006339BB212F0FE0218BF012249
:10A4D4002380EA54238801332380B378FBB1238893
:10A4E4000433BB42D0D802A8FFF748FF002840F04D
:10A4F400F58023880322EA54238801339BB219226E
:10A504002380EA542388BDF8082001339BB2E9185C
:10A514002380EA54120A4A70238802332380F27893
:10A524009AB12388D91CB942AED80221E9542388B0
:10A5340001339BB201212380E95423880B449BB24D
:10A544002380EA5423880B4423807268AAB12388A9
:10A55400D91CB94298D8022192F90020E9542388E1
:10A5640001339BB20A212380E954238801339BB22F
:10A574002380EA542388013323803389002B40F05D
:10A58400A180338A5BB1CDE900472B460722032122
:10A5940006F11000FFF74EFF002840F09F80338B38
:10A5A4005BB1CDE900472B461522142106F11800B2
:10A5B400FFF740FF002840F09180326A002A40F003
:10A5C4009080D6F82480B8F1000F30D0B8F8043069
:10A5D4002188981C8A1C0244BA423FF655AFFE28D3
:10A5E4003FF652AF03336B54238801339BB2FF22EF
:10A5F4002380EA54238801339BB22380B8F80020D7
:10A60400EA54E918120A4A702088023080B2208085
:10A61400B8F804205AB1D8F8081000296BD028449F
:10A6240001F00BFC2388B8F804201344238096F827
:10A634002C30002B40F09A80307800284ED033889C
:10A64400012B58D0228802F1020CBC453FF61CAF06
:10A65400012805D17378023313449F42FFF414AFE9
:10A66400023FBF1ABFB202A905EB0C00ADF8087097
:10A67400FFF786FE90BB3178BDF80830022900F060
:10A68400BA8072789A4202D3BB4240F2B280012966
:10A6940040F0B380974293B2C0F0AF80ADF8083079
:10A6A4000821BDF80830FE2B3FF6EEAE22880133B8
:10A6B400AB542288013292B22280A95422881344D6
:10A6C40023800BE0CDE900472B460622022106F148
:10A6D4000800FFF7AFFE00283FF453AF05B0BDE814
:10A6E400F08FB4F800C00CF10603BB423FF6CCAEC9
:10A6F4001188052901D80720F0E76FF4486E01EBB3
:10A704000E039BB24FF27D3E7345F4D95388052B5B
:10A71400F1D96FF44860181880B27045EBD94FF640
:10A72400FF70814203D0834201D09942E3D80523CC
:10A7340005F80C30238801339BB212212380E9549D
:10A74400238801339BB223801188E954E818090A4D
:10A754004170238802339BB223805288EA54E9185B
:10A76400120A4A702388023323802AE7B36A002B33
:10A77400C1D04FF000094FF00C0A4FF0160B96F8B9
:10A784002C305FFA89F293427FF656AFB16A0AFB26
:10A7940002F201EB0208B8F80430981CFE283FF6D8
:10A7A40073AE208803332B54238801339BB2238058
:10A7B40005F803B0238801339BB223808A5AEA54F4
:10A7C400E918120A4A702088023080B22080B8F852
:10A7D40004205AB1D8F8081000298CD0284401F07C
:10A7E4002CFB2388B8F804201344238009F10109C1
:10A7F400C5E7092155E7BB42FBD9ADF808704FE71F
:10A8040070B5C0B14AB116880024B44203D3051907
:10A814006D789D4208D0A14201D800200BE0055D6F
:10A8240001352C44A4B2F0E7A142F6D9A31C13804D
:10A83400005D013880B270BD13B513460022ADF837
:10A8440006200DF106020446FFF7DAFF10B1BDF849
:10A854000630E01802B010BD72DF704773DF704736
:10A8640074DF704738B5012204460D46B0F838123B
:10A87400D0F83402FFF7E0FF00B1057004F13C02A8
:10A8840004F50D7104F15400BDE83840FFF7E4BF4E
:10A8940080F830107047F8B504460F46002975D08B
:10A8A400002873D091F87A301BB191F89830002BBE
:10A8B4006ED1D7F8A030042B6AD0D7F89C30042B83
:10A8C40066D04FF0000C84F802C007F178060FCE72
:10A8D400251D0FC50FCE0FC596E8070085E80700B4
:10A8E40084F830C0D7F8A4306363D7F8A830A363E2
:10A8F4004FF6FF7504F50D73C4F84432A4F84852BA
:10A904000722614604F24A2001F0C0FA23780BB909
:10A9140084F8545094F82430002B14BFEE231F23E2
:10A9240004F15501C4F83412A4F8383204F50E7257
:10A934003846FFF79BFD40BB94F82430002B14BF2E
:10A94400EE231F2304F24311C4F83C12A4F840324E
:10A9540004F5107207F13C00FFF788FDA8B9A3695C
:10A96400A4F848304FF480730125A4F8503063698B
:10A974002064014684F83C50636404F13C0204F111
:10A984005400FFF769FF00B92570F8BD0E20FCE7FD
:10A994000720FAE7F8B5077804460D46002F00F0C3
:10A9A400048100F24A26817007220021304601F01A
:10A9B4006DFAE38813B1A378012B04D0E3794BB18A
:10A9C400A378022B06D1636BA3B1012284F8512230
:10A9D40008209847334604F5147113F8012F12B96F
:10A9E4009942FAD117466B1E032B52D8DFE803F0C5
:10A9F400050B0F1284F85132ECE7A3791BB194F8DC
:10AA0400243003B95FB9E3790BB1002F43D1237A22
:10AA1400002B42D1637A002B0CBF00250425636B05
:10AA2400A570002B3BD0033D012D38D86279002A54
:10AA340035D094F8522292BB84F85422012284F82F
:10AA440053220720984704F13C0518220021284688
:10AA540001F01CFAE36A94F82420581E012102280C
:10AA640028BF0B4684F83C1084F8513032B1884238
:10AA740096BFA36A84F8521084F85230A178002358
:10AA840084F8503004291BD8DFE801F0770D223513
:10AA940059000025C3E70225C1E70325BFE70023CA
:10AAA40084F85332CFE7C4E91063C4F84432022374
:10AAB400012284F83C30802384F83120A4F8483003
:10AAC400A378002B5CD1636B002B6AD1002067E074
:10AAD4000223002A84F8313014BF0723032384F8A7
:10AAE4003C302369A4F848300023C4F84432E368B6
:10AAF40026646364E4E763696364A369A4F8483083
:10AB040012B1062384F83C306379B3B194F852321D
:10AB14009BB994F8543283B1022384F85030042151
:10AB24002046FFF79FFE0028CAD1052384F8313060
:10AB340004F50D73C4F84432C2E70323F6E7E3696E
:10AB44006364236AA4F8483012B1062384F83C30C5
:10AB5400637983B194F852326BB994F8543253B197
:10AB6400022384F8503004212046FFF77BFE00289E
:10AB7400A6D10623DAE70423D8E784F831309FE727
:10AB8400D4F844122A4604F15400FFF765FE38B99C
:10AB940094F8301094F85400FFF760FE002892D027
:10ABA400F8BD94F83100984790E70820F8E7038847
:10ABB400112B10B50C460AD0262B1FD0102B05D113
:10ABC400C37B012B02D18388A1F8483210BD002237
:10ABD400838881F85222B1F848229A42F6D10B793F
:10ABE400002BF3D101212046FFF7D4FE0028EDD03D
:10ABF400A36B002BEAD0BDE810401847037A013B51
:10AC0400012BE3D8897805230131B1FBF3F303EB7E
:10AC14008303C91AC9B2E6E7704738B5044690F809
:10AC24005400FFF71DFE012384F85232002384F8F8
:10AC3400543284F8503006212046FFF713FE0546AF
:10AC440038B9A1782046FFF7A5FE10B1A36B03B174
:10AC54009847284638BD75DF704776DF70477ADF3E
:10AC640070477BDF70470000034B1A8882420CBF99
:10AC740018460020704700BF28390020024B9B690A
:10AC840003B11847704700BF0C39002073B585B273
:10AC94002846FFF7E9FF044670B1164E027A337B6B
:10ACA4009A420BD200F10A012846FFF7D4FFE8B11B
:10ACB400112801D0FFF7E2FF02B070BD0023037238
:10ACC400337C43B13B212846FFF7C7FF30F008032C
:10ACD40001D0FFF7D3FF7369002BEDD000228DF86C
:10ACE4000420ADF8065001A89847E5E7237A01331C
:10ACF4002372E1E70C39002037B50B46497A0F4A35
:10AD040071B9D2E901141D7A0246002D18BF2146FB
:10AD14005868FCF7D1FB08B1FFF7B0FF03B030BDB2
:10AD2400002119725369002BF8D00122ADF80600F6
:10AD34008DF8042001A89847F0E700BF0C390020E3
:10AD44004B8802889A4213D842889A4210D380884A
:10AD54008A8840F2F313984294BF031AC31A9342A9
:10AD640006D800F2F310904234BF0020012070474F
:10AD7400002070470388122B70B5014659D004D8BF
:10AD8400102B1ED0112B44D070BD502BFCD12F4B57
:10AD9400C288DB899A42F7D1038A022BF4D18688D0
:10ADA4003046FFF761FF05460028EDD001F112009F
:10ADB40000F05DF938BB6868FCF7C6FB0028E3D0F7
:10ADC40009E0C37B012BDFD14FF6FF70FFF74CFF87
:10ADD400054620B90420BDE87040FFF74FBF1C4A68
:10ADE4008E880680002303721368C0F80A30536803
:10ADF400C0F80E3010310A30FFF7A2FF134B68720F
:10AE0400DB89002BC0D129463046BDE87040FFF7EE
:10AE140073BF8088FFF728FF04460028B4D0406839
:10AE2400FCF792FB08B1FFF729FF4FF6FF7323806D
:10AE3400AAE786883046FFF717FF05460028A3D007
:10AE440008310A30FFF77CFF6872DCE70C39002018
:10AE54003C390020F8B5064648B305460FCD154FDA
:10AE64003C460FC495E8070084E807003068124C9C
:10AE74003C60B0B1FFF7F3FEC0B9326813682360D9
:10AE8400536863600D480E4A4FF6FF7303800D4B01
:10AE940040F8043F0021FCF7FDFA002818BF032006
:10AEA40004E02046FFF7DDFE0028EBD0F8BD0E20BD
:10AEB400FCE700BF0C3900203C3900202839002071
:10AEC40091AC02004439002073B50191019C0646FF
:10AED4006CB100252C46294601A8FCF79CFC18B14E
:10AEE40006EB440301349D800135142DF3D1304623
:10AEF400346002B070BD00002DE9F04703888488F7
:10AF0400112B8CB005463CD01A2B3FD0102B17D1F7
:10AF1400284EB368DB43009371686846FCF7A7FCCE
:10AF2400009901A8FFF7D0FF0DF108094FF00008C0
:10AF3400019B984507D3132C13D90420FBF7EEFF8C
:10AF44000CB0BDE8F08739F802AB00270137514651
:10AF540006EB8700FCF755FC1D2FF7D108F101081B
:10AF6400E6E715482146FCF743FC14482146FCF764
:10AF74003FFCEB7B012BE3D011482146FCF738FC66
:10AF8400DEE70D482146FCF73CFCD9E7037A0D487F
:10AF94001F2B4FEA1315214606D9FCF729FC022D75
:10AFA40009482146EAD1EEE7FCF72BFC0648214686
:10AFB400E9E700BF643900206C39002068390020BB
:10AFC4007039002074390020783900201328014694
:10AFD40002D80248FCF71FBC0020704768390020E3
:10AFE40010B50446FFF7F2FF002814BF20461420D2
:10AFF40010BD70B50546164608460AB90E2070BD48
:10B0040000231360002DF9D02B68002BF6D0EB88B9
:10B0140013F003040ED1FFF7E3FFC0B214280BD0E2
:10B024002B7983420AD9EB882A6800FB032030601D
:10B034002046E4E70720E2E70520E0E70420DEE716
:10B04400AADF7047002301380B70042806D8DFE814
:10B0540000F00306080A0C0011230B70704721232B
:10B06400FBE73123F9E71223F7E72223F5E700781A
:10B0740000F001007047F0B58B7891B0012B0C46BD
:10B0840038BF01238DF80E3005460B88ADF80C301F
:10B09400002116466846032200F0F8FE607C6946EB
:10B0A400FFF7D0FFA07C0DF10101FFF7CBFFE27B9E
:10B0B400237B217D43EAC203227C43EA02139DF8E9
:10B0C4000220002922F0190203F0190314BF0221FF
:10B0D4000121134361F342031C22002109A88DF8C6
:10B0E400023000F0D3FE637B13F0300F15D002AFB3
:10B0F40003220021384600F0C9FEE07C0DF109016D
:10B10400FFF7A0FF11238DF808309DF80A300E9741
:10B11400012262F342038DF80A30637B8DF82430F8
:10B124001422A37B8DF82530002104A800F0AEFE84
:10B1340003AB0493A388ADF81C30A368CDF814D0F6
:10B144001BB1E288ADF818200893A369002B31D015
:10B1540001AF03220021384600F098FEA3691A8843
:10B16400ADF82C205A88ADF82E205A680D97187B1C
:10B174000A923946FFF766FFA3690DF10501587B72
:10B18400FFF760FFA269917A137A43EAC103D17A87
:10B19400927B43EA01139DF80610002A03F0190379
:10B1A40021F0190114BF022201220B4362F342036E
:10B1B4008DF80630E36903B10C93334604AA09A958
:10B1C4002846FFF73DFF11B0F0BD90DF7047A5DFC3
:10B1D4007047B5DF704700007FB50023ADF8081055
:10B1E400ADF80A106A4602A9064603930093ADF827
:10B1F4000430FFF7EAFF054600B3124B124CE41A81
:10B20400E408FCF78FFE240444F0010403460F49CC
:10B2140032462046FBF79BFBBDF80020BDF8023008
:10B2240052EA030103D00A492046FBF790FBBDF81C
:10B2340004201AB107492046FBF780FB284604B0D6
:10B2440070BD00BF38C6020080C6020018CE0200DE
:10B2540062CE0200A1CE020080B14FF0F71303606A
:10B26400FB230371F723C3801723038141F6FB32C9
:10B274000023016143818281184670470E20704784
:10B2840030B1A1F11703E02B04D8018000207047EE
:10B294000E2070470720704713B5034680880C467C
:10B2A400B8B91A88242A00F0968014D8112A71D0CB
:10B2B400232A00F09E80102A3BD0A37A4BB1E18868
:10B2C4000020FFF784FF002840F099804FF480733A
:10B2D400638102B010BD3A2A65D0552AEDD1DB88CE
:10B2E400C988A072172B38BF17238B4228BF0B467F
:10B2F4002381FFF76EFF60B1FCF714FE484B494908
:10B30400024649481B1ADB081B0443F00100FBF703
:10B3140015FBE37A002BD0D12369002BCDD040F666
:10B32400772200922289ADF8042069462046984786
:10B33400C3E7DB7B0A790A73012B13D0022B14D0E9
:10B34400E18823898B4205D20020FFF740FF70B9C2
:10B354000123E372217B637B8B42AED20020FFF793
:10B364003BFFAAE70B88E380EAE74B88FBE7112859
:10B3740002D10123A372EDE7FCF7D4FD284B2B493E
:10B38400024629481B1ADB081B0443F00100FBF7A3
:10B39400D5FADFE7F723CB8017230B8141F6FB3384
:10B3A40048818B8189E75B89CA88934228BF134609
:10B3B400172B0A6938BF17230B814AB1C97A39B1EF
:10B3C40040F677210091ADF8043069462046904755
:10B3D4000023638171E71A7A0B694A73002B3FF4E7
:10B3E4006CAF4DF67A218DF8050000918DF804209C
:10B3F4009BE7197A237B994228BF1946AFE71128A6
:10B404003FF467AFFCF78EFD054B0849024606483A
:10B414001B1ADB081B0443F00100FBF78FFA58E703
:10B4240080C6020028CF020038C60200F7CE020010
:10B43400B0DF704766DF704710B5002104464088CE
:10B44400FFF7F8FF034608B9237210BD112801D194
:10B454000123F9E76368BDE81040184760B159B1AA
:10B464000378DE2B0AD00B684360DE2303704FF6AB
:10B47400FF734380002070470E20704708207047F8
:10B4840028B10378DE2B04D14180002070470E20C0
:10B49400704708207047F0B5054685B00C46F1B1F9
:10B4A400E8B10B78DE2B1AD182884B889A4204D1FA
:10B4B4000B7A13B10846FFF7BFFF2B88112B32D04C
:10B4C400512B0ED0012B0AD12B7A012B07D1A9883D
:10B4D4006288914203D123722046FFF7ADFF05B085
:10B4E400F0BDAE886388B342F9D1AF79022FF6D1AB
:10B4F400AD7B2B1F022BF2D800211022684600F0EE
:10B50400C5FC052D14BF4FF4C073002369463046B3
:10B514008DF80070ADF80430FFF78AFF0028DED004
:10B5240063689847DBE76388AA889A4204BF4FF6AA
:10B53400FF736380D3E7A8DF7047ADDF7047AEDFEA
:10B54400704762DF704770B505468AB00C46002923
:10B5540062D0002860D00388502B37D0572B72D08C
:10B56400102B59D181886069002601AA0196FFF742
:10B5740040FD082231460DEB020000F087FC022357
:10B58400218AA888CDF80CD002AA0293FFF7D5FF30
:10B59400002841D1A369002B3ED00398FFF767FD33
:10B5A400002839D0019B0BB101221A701822002106
:10B5B40004A800F06BFC02238DF81030AB88ADF8C2
:10B5C4001830019B05940793A36923E0818860697F
:10B5D40002AAFFF70EFD1822002104A800F056FC71
:10B5E400AB882189ADF81830EB88029A059499420A
:10B5F400079218D12E8A022E15D16AB105F11200D4
:10B60400FFF735FD029B48B101221A708DF81060D6
:10B61400A3690BB104A898470AB070BD187003233E
:10B624008DF81030F4E7A2899A42F5D1A369002B72
:10B63400F2D000228DF8102005F1120208922A8A15
:10B64400ADF82420E6E78188606902AAFFF7D1FCFF
:10B6540001460028E0D1029B1B78002BDCD0182285
:10B6640004A800F013FC01238DF81030AB88ADF86A
:10B6740018300594029BA6E7F0B53A4B8FB002ADA3
:10B6840004460A4603F1100C2F46186859682E46E2
:10B6940003C6083363453546F7D1002C5FD0002A32
:10B6A4005DD01368A36121463846FFF74AFF00289E
:10B6B40053D12246012512F8023B8DF8063001A928
:10B6C4002846ADF80450FFF736FF002845D101465F
:10B6D400202206A800F0DAFB22460223ADF8183037
:10B6E40012F80C3B8DF81A30BDF824301E4E6088D9
:10B6F400079623F44F6323F00F0343F440632B4373
:10B7040006A9ADF824308DF829508DF82A50FFF79A
:10B71400B2FC10BB0146202206A800F0B7FB22466B
:10B724000323ADF8183012F8043B8DF81A30BDF835
:10B7340024306088079623F4875323F01F0343F4CF
:10B7440080532B43ADF8243006A940F201138DF841
:10B754002950ADF82A30FFF78EFC0FB0F0BD0E2053
:10B76400FBE700BF6CCF0200F4000100F0B50F4608
:10B7740087B016461C46054618B3406901AA194607
:10B78400FFF737FCD8B94FF6FF739C421BD0019BDF
:10B79400CBB11B78CBB13388F42B18D801461022D7
:10B7A40002A800F073FBAB88ADF8083002A90123AE
:10B7B4002046CDE904678DF80A30FFF7C0FE07B0D4
:10B7C400F0BD0E20FBE70520F9E70820F7E7072086
:10B7D400F5E710DF7047000013B5044609496846D1
:10B7E400FCF76CFB019808B902B010BDD0E9002148
:10B7F4002046904718B16846FCF76AFBF2E711202F
:10B80400F2E700BF88CF020013B504460749684633
:10B81400FCF754FB019B0BB902B010BD2046D3E9E1
:10B82400002190476846FCF753FBF3E7A0CF0200E2
:10B834000B4991F816335A09EC231341DB0706D55B
:10B84400084B9A683AB94FF480030B60704742F290
:10B854000200FBF763BB1A6842F480021A60704767
:10B8640000E100E0CC310020F7B5194F3C7864BB0F
:10B87400184E012520463570FFF7AEFF112821D060
:10B884002046FFF7C1FF144B8DF803401868019060
:10B894000DF10300FBF772FF104901A8FFF799FFB0
:10B8A4000446B0FA80F0400938709DF80300FBF7B5
:10B8B40089FF3CB90A4B34701C70FFF7B9FF284666
:10B8C400FFF7A2FF204603B0F0BD0824FAE700BF4B
:10B8D400DD390020DC39002084CF02003D6F0200F6
:10B8E400DE390020014B1878704700BFDD39002095
:10B8F40007B508496846FCF7E1FA019B13B903B0A0
:10B904005DF804FBD3E9002090476846FCF7E0FAB1
:10B91400F3E700BF94CF0200FFF7EABF60DF704790
:10B9240069DF704761DF704730B5114DADF5017DBA
:10B934004FF4FA740DF1020103A8ADF80240FFF7C9
:10B94400F1FF70B9294601A8FCF7B8FA029B002B55
:10B95400F0D003A8D3E90021904701A8FCF7B8FA76
:10B96400F4E7052801D0FBF7D9FA0DF5017D30BDC8
:10B9740028D20200024B1B780BB1FFF7D5BF7047EA
:10B98400DF39002030B5054685B00C46002900F0AB
:10B99400B5805B4B0B600C22002101A800F076FA05
:10B9A40001238DF8063022688DF80450062301A97E
:10B9B4002020ADF80830FFF7B3FF60B1FCF7B2FA0E
:10B9C400504B5149024651481B1ADB081B0443F0F3
:10B9D4000100FAF7B3FF0C22002101A800F056FA87
:10B9E40001238DF805302268002301A94020ADF819
:10B9F4000630FFF795FF60B1FCF794FA414B4449D8
:10BA0400024642481B1ADB081B0443F00100FAF704
:10BA140095FF0C22002101A800F038FAF7232268D0
:10BA24008DF8045001A92320ADF80630FFF778FF04
:10BA340060B1FCF777FA334B3649024633481B1A98
:10BA4400DB081B0443F00100FAF778FF0C22002105
:10BA540001A800F01BFA012022688DF8040001A956
:10BA6400FFF75EFF60B1FCF75DFA264B2A490246F8
:10BA740026481B1ADB081B0443F00100FAF75EFF9B
:10BA84000C22002101A800F001FA4FF4B0632268EF
:10BA9400019301A9A120FFF743FF60B1FCF742FA2B
:10BAA400184B1E49024619481B1ADB081B0443F0B5
:10BAB4000100FAF743FF0C22002101A800F0E6F987
:10BAC4009DF8043022686FF3000301A9A0208DF8CB
