:020000022000DC
:1060000000000120756302005D6302005F6302000F
:106010006163020063630200656302000000000028
:1060200000000000000000000000000067630200A4
:1060300069630200000000006B6302006D630200F0
:10604000CD8502006F630200058A02006F630200C3
:106050006F6302006F630200818802006F630200B9
:106060006F6302006F6302006F6302006F630200E0
:106070006F6302006F6302006F6302006F630200D0
:106080006F630200FD7002006F6302006F63020025
:10609000997102006F63020045B502006F63020050
:1060A0006F6302006F6302006F6302006F630200A0
:1060B0006F6302006F630200000000000000000038
:1060C0006F6302006F6302006F6302006F63020080
:1060D0006F6302006F6302006F6302000000000044
:1060E00000000000000000000000000000000000B0
:1060F00000000000000000000000000000000000A0
:10610000000000000000000000000000000000008F
:10611000000000000000000000000000000000007F
:10612000000000000000000000000000000000006F
:10613000000000000000000000000000000000005F
:10614000000000000000000000000000000000004F
:10615000000000000000000000000000000000003F
:10616000000000000000000000000000000000002F
:10617000000000000000000000000000000000001F
:10618000000000000000000000000000000000000F
:1061900000000000000000000000000000000000FF
:1061A00000000000000000000000000000000000EF
:1061B00000000000000000000000000000000000DF
:1061C00000000000000000000000000000000000CF
:1061D00000000000000000000000000000000000BF
:1061E00000000000000000000000000000000000AF
:1061F000000000000000000000000000000000009F
:10620000354936480A1A02D0072291438D4634494F
:1062100034480A1A06D00722914381F309880222E2
:1062200082F3148830483149314A00F044F831484B
:106230003149324A00F03FF831483249324A00F0E1
:106240003AF832483249334A00F035F83248334997
:10625000334A00F030F833483349344A00F02BF821
:1062600033483449344A00F026F83448344900228F
:1062700000F02CF833483449002200F027F8334866
:106280003349091A082902DB002202604160314AC1
:1062900090471F481F49884205D00268043003B464
:1062A000904703BCF7E700208646EC46002000211B
:1062B000294A9047FEE7884207D0521A05D0037852
:1062C00001300B700131013AF9D17047884202D098
:1062D00002700130FAE770470000012000E0002062
:1062E000000001200000012088D10200982A00202F
:1062F000042B0020D4630200D463020044C20200D5
:1063000088D10200982A0020982A002038C3020071
:1063100038C3020038C3020038C3020038C3020089
:1063200038C3020038C3020038C3020087D102001C
:10633000F4D10200042B0020042B0020042B0020A9
:10634000BC3C0020BC3C0020BC3C0020BC3C0020ED
:10635000BC5C00209D630200C59B0200FEE7FEE7D7
:10636000FEE7FEE7FEE7FEE7FEE7FEE7FEE7FEE705
:10637000704700BF1048804710484FF0070188431E
:1063800085460F4880470F48016841F4700101605D
:10639000BFF34F8FBFF36F8FFFF732BF0A480B4930
:1063A0000B4A884207D0521A05D0037801300B708F
:1063B0000131013AF9D170477163020000000120F8
:1063C000D17F020088ED00E038C30200982A002047
:0463D000982A0020E7
:1063D4007047000007B5044B0093044A402300F0C3
:1063E40032F803B05DF804FBF5630200052B0020CE
:1063F4002DE9F84388461446B2B10F4B0F4E0325DE
:10640400002743F00109224608EB0701002003F0AE
:1064140091FD0744241A48B933782BB14FF47A40DC
:10642400C847013D02D13570BDE8F88301233370BC
:10643400002CE8D1F8E700BF40C30200042B002081
:10644400704703F0ABBDF0B595B01D46164608463F
:106454000C4601F0F3FC1A9B0D93CDE90865002569
:106464002B46082205A920460A958DF82C500C9538
:1064740001F001FD079B0293069B03939DF81430E2
:106484008DF8115003F00302012A1DD1BDF8142028
:10649400059DC3F3C203C2F383168DF81030B20016
:1064A40008230EA9204601F0E6FCC5F3952508ABA8
:1064B4000093324602AB0EA9284600F055FB204655
:1064C40001F0C0FC15B0F0BD022AF8D1BDF8165099
:1064D400C3F3C203C5F389158DF810300827082DBE
:1064E4002E4628BF08263B4632460EA9204601F018
:1064F400C2FCAD1B08AB02AA31460EA8374400F01B
:1065040097FB002DEBD1DAE708B5FFF79AFF0448B3
:10651400042100F091FA034B01225A7108BD00BF17
:1065240028C30200982A0020037813F0040216D02E
:1065340003F00303012B03D0022B09D00120704781
:106544000A6800880232C0F3831002440A60F5E747
:106554000B684288023303EB92130B60EEE710469C
:10656400704700002DE9F04F87B000230446861CD5
:106574000DF107000F4615468DF8073001F00CF9B0
:10658400454801683960D0E90132134401335B1A8C
:10659400824600F21C4700F5836900F21448B342B6
:1065A4001CD30020002D73D004F00F039B0143F093
:1065B400050363F30F00DAF80020DAF8083013401B
:1065C400033316444AF823009DF80700CAF8006014
:1065D40001F006F9012007B0BDE8F08F012138462B
:1065E40001F05FF9484601F074F9404601F071F991
:1065F400DAF80400DAF808B0029000EA0B0003307D
:106604000AEB800002A9FFF78FFF029B50BB0BEA45
:1066140003020AEB820203F1020CD26803920133F3
:1066240003EA0B0B0AEB8B0B02F00302012ADBF8E3
:106634000C10CDF808C023D0022A16D08346404659
:1066440001F04AF910B1029BCAF8043059463846A1
:1066540001F027F9DAE901231344DAF800200133C1
:106664009B1A9CE70BEA0300C9E7BDF80E30C3F39D
:10667400891303334FEA114B0CEB93030293DEE7C8
:10668400BDF80C30C3F383134FEA114B6344F5E7B1
:10669400A40544F006008EE7182C00200B4B0C4890
:1066A400FF2210B59A600022C3F81824C3E900221F
:1066B400C3F8142483F8202401F079FB044610B9AC
:1066C400044801F0F9FB204610BD00BF182C00203F
:1066D400ACC202007CC3020030B50A4C71B10A4A54
:1066E4000A49121BD20800239A4201D1002030BD6E
:1066F40031F82350854202D00133F5E7034654F8BC
:106704003300F4E7C0C2020028C30200982A002024
:10671400094B013903EBC000032909D8DFE801F074
:106724000A020406042070470079704740797047D4
:106734000020704702207047C0C20200034BD3E917
:106744000030C31A58425841704700BF182C00202B
:106754002DE9F04387B0FFF7F1FF0646002840F02B
:10676400F9807D4DC5F81804BFF34F8F6B68AC6892
:1067740002932340033305EB830002A9FFF7D4FE01
:10678400029B18B1D5F81824002A5FD004EA03024A
:10679400991C013305EB8202234005EB8303D26885
:1067A400DB68049302F00303022B0392029160D18D
:1067B400BDF80E306948C3F38917502FB84628BF77
:1067C4004FF0500868F38F1308F10801ADF80E304C
:1067D40001F005FB0646002800F0A78001F02EFB1F
:1067E4000023082203A9304601F03BFB029924EA66
:1067F40001020132B8EB820F4FEA820332D95FFA09
:1068040088F85BB32140DCB2A8EB040803315FFADB
:1068140088F9A046524C05EB8101082342463046D4
:1068240001F01FFB34B108F108034A462146304603
:1068340001F017FB029B033703EB97070297D5F888
:106844001834002B49D1D5F8104459E02A689A42EB
:106854008FD86A60304607B0BDE8F08340491C46D3
:106864009946DAE70C40E11C0823424605EB810116
:10687400DDE7012B59D1BDF80C303848C3F383113F
:10688400062928BF062161F3891302318900ADF876
:106894000C3001F0A4FA0646002846D001F0CEFAE6
:1068A4000023082203A9304601F0DBFA0027BDF8D3
:1068B4000C20C2F38312BB00974203F10803BED23B
:1068C40002994A1C21400331029205EB8101042202
:1068D400304601F0C6FA0137E9E7304601F0B2FA72
:1068E400FFF72CFF80F00100C6B2B3E7E3685B79E1
:1068F40023B1236831461B6820469847E3681C6827
:10690400002CF3D1304601F09DFA0DF107008DF80B
:10691400074000F041FFD5F818340BB9029B6B60B7
:106924009DF8070000F05CFFDAE7D5F8104454B98D
:106934000C4B0D480D49C01AC008000440F0020079
:1069440000F062F8CCE7236820469B689847E36828
:106954001C68ECE700267DE7182C0020ACC202007E
:10696400242C0020C0C20200E8C2020064C302005A
:106974002DE9F74F224D04460F46924601A9012204
:106984001846D5F808909B46FFF7ECFD20B3019E0E
:106994004FF00008B21CD84508EB020126D1194873
:1069A400002100F04FFF80F31000000440EA14407F
:1069B400E400731C04F0380403EA090306EA090638
:1069C40044F0010405EB8303033644EA881444EAE3
:1069D4008724D86045F8264095F820341BB1FFF78A
:1069E400B7FE0028FBD103B0BDE8F08F09EA01012E
:1069F40005EB81015AF82830CB6008F10108CAE799
:106A0400182C00203430002000231A46FFF7B0BFB2
:106A140007B50123019201AAFFF7AAFF03B05DF8AD
:106A240004FB07B5CDE9002302236A46FFF7A0FF64
:106A340003B05DF804FB000030B50F49D1F8102411
:106A440003460020144634B9DC6820714AB9C1F801
:106A54001034226030BDE4682579854206D024686C
:106A6400F1E7D268116821601360F3E701300A2866
:106A7400E8D14FF0FF30EDE7182C0020094A38B573
:106A84000123D2F8104482F820341D4604B938BDDD
:106A9400E3685D71236820465B689847E3681C6877
:106AA400F4E700BF182C002007B503460846197AFE
:106AB400052911D05B7A2BB1094A0A49019000F0EB
:106AC4006EFF01980849019000F069FF019803B036
:106AD4005DF804EB00F058BF002AF8D0F2E700BFDD
:106AE40088C302008DC3020085CA020030B5C38882
:106AF40085B004460D4633B1144A00921449154A30
:106B0400284600F04CFF217A05291DD0637A4BB149
:106B1400A088FFF7FDFD104B104953F820202846AC
:106B240000F03DFF227A0E4BA08853F822200392F6
:106B34000021FFF7D1FD039A0A490346284605B010
:106B4400BDE8304000F02BBF05B030BD88C3020063
:106B540098C3020090C3020014C402008DC3020053
:106B640038C40200B0C302002DE9F04385B01F46CB
:106B74000C9D002395F80C902B7306460C4690460A
:106B840029463846FFF7B2FFB8F1060F09D8DFE807
:106B940008F00412181F283340003146284600F03C
:106BA400FEFE002229463846FFF77EFF85F80C904A
:106BB40005B0BDE8F08322683146284600F0EFFEB8
:106BC400EFE7D4E900233146284600F0E8FEE8E781
:106BD400A36800933146D4E90023284600F0DFFE81
:106BE400DFE7E3680193A36800933146D4E9002307
:106BF400284600F0D4FED4E723690293E3680193A6
:106C0400A36800933146D4E90023284600F0C7FE68
:106C1400C7E76369039323690293E3680193A36855
:106C240000933146D4E90023284600F0B8FEB8E7C3
:106C340008292DE9F74F80460E4617461C4639D8D9
:106C4400002593F80C901D7319461046FFF74EFF6C
:106C5400DFF880A0DFF880B0AE422ED918F8052006
:106C64005946204600F09BFE0135082DF4D1184901
:106C7400DFF868A0DFF868B0204600F090FE002539
:106C8400AE421FD918F805200192104604F0BEFE4A
:106C94000028019A594608BF2E22204600F07FFEA4
:106CA4000135082DECD1012221463846FFF7FCFEC0
:106CB40084F80C9003B0BDE8F08F5146204600F0F4
:106CC4006EFED1E75146204600F069FEE8E700BFBA
:106CD400C4C30200C0C30200BAC30200C2C302009C
:106CE400C6C302002DE9F04F364E87B04FF00009BD
:106CF400354B1B785FFA89F5AB4202D807B0BDE883
:106D0400F08F324BD3F800A01AF835000124D6E9ED
:106D1400001EA0F12002C0F1200304FA02F224FABA
:106D240003F3134304FA00FC059301EA0C030093F4
:106D3400059B0EEA03030193DDE9002313430AEBE9
:106D4400C50B3BD0059B21EA0C012EEA0303C6E9DF
:106D5400001301F089FD01461AF835001C4DA0F11D
:106D64002002C0F1200304FA02F224FA03F31343CD
:106D7400D5E900C28440134004EA0C040393A0F153
:106D84002002C0F1200321FA03F3029401FA02F86D
:106D940048EA0308DDE9023401FA00F7444508BF74
:106DA400BB420BD1DBF8043043B19BF80120541EE5
:106DB40062426241551A69426941984709F10109E1
:106DC40096E700BF08310020D430002010310020A5
:106DD40000310020F8B506461E4800F0C3FBC0BBD6
:106DE4000125A6F12004C6F1200325FA03F305FAD0
:106DF40004F41C43184BD3E900C2B5400CEA050067
:106E040002EA040101431F461DD1304601F02CFD66
:106E1400124BD3E9001288B129432243C3E900127B
:106E2400D7E900231C430E4B0A4819681543C7E9E8
:106E340000540022BDE8F84000F04CBB21EA0501F3
:106E440022EA0402EAE72CEA050522EA0404C3E97B
:106E54000054F8BDDC30002008310020003100204F
:106E6400D8300020042A2DE9F34105460C46164685
:106E740039D901F039FCD8B11C4B1D491D601D4B9B
:106E8400DFF884801C701C4B00221E600023C1E9C3
:106E940000231A49C1E90023013CE4B20026032778
:106EA400FF2C0CD1164A1748002100F001FB03E027
:106EB40001F0E0FB0028DFD002B0BDE8F08105EB73
:106EC400C40315F834009B788DF80660424601A986
:106ED4008DF804708DF8053001F010FC013CE4B22B
:106EE4000028DDD0E8E70720E6E700BF10310020E6
:106EF40000310020D4300020D83000200831002098
:106F0400E96C02004CC40200D96D020070B5084D52
:106F1400084E00242B789C4201D3002070BD3368B6
:106F2400012113F8340001F05BFC0134F2E700BFE7
:106F3400D4300020103100201FB50021039001AA95
:106F440044F20100CDE9011100F004F805B05DF848
:106F540004FB000010B572B6FFF790FDFFF7F8FBD5
:106F64000028FBD1104B114C1149E41AE408240405
:106F740044F00100FFF748FD0E4B1B68DB0700D50A
:106F840000BE0D4944F00200FFF73EFDBFF34F8FF2
:106F94000A490B4BCA6802F4E0621343CB60BFF3A7
:106FA4004F8F00BFFDE700BFC0C20200E8C202006D
:106FB40050C40200F0ED00E05CC4020000ED00E00B
:106FC4000400FA0549B152B1531E1A4007D1826038
:106FD40001608380C260104670470E20704709200C
:106FE400704710B58468C2688388121B934208D323
:106FF400C26813400268D154C3680133C3600020DF
:1070040010BD0420FCE78268C3689A420AD08268F3
:10701400838813400268D35C0B70836801338360F8
:107024000020704705207047094A5378917801334E
:10703400DBB2994208BF0023117899421FBF037045
:107044005078182303FB002014BF0430002070473D
:107054001431002073B5054600240DF107000E46D7
:107064008DF8074000F098FB0DF10600FFF7DCFFF8
:1070740090B10670094B9DF8062045605A709DF842
:10708400070000F0ADFB24B9054B4FF48012C3F8A0
:107094000021204602B070BD0424F0E71431002022
:1070A40000E100E0024B4FF43C6043F00103184759
:1070B40070C4020038B50C4B0C4C4FF40032C3F8CA
:1070C400802001254FF48033C4F84833C4F80833D2
:1070D4006560FFF7E7FF064BA56000241C60FFF71F
:1070E400E1FF044B1C7038BD00E100E000100140DA
:1070F4003032002021320020F8B51F4B1F491B6895
:107104000025C1F84051C1F84451C1F84851C1F8B3
:107114004C51C1F80051C1F804514BB3D1F80445A6
:1071240017490968641A24F07F442F461A68A2425A
:1071340009D8A41A15441A7CDE691AB1D3E90520CA
:107144001F749047AEB90F4A0F4B11781B788B42CE
:1071540005D10133DBB2022B08BF00231370127870
:107164000A4B43F822500A4B4FF48012C3F8002113
:10717400F8BD3346DAE700BF343200200010014086
:10718400303200202D3200202C3200202432002006
:1071940000E100E02DE9F04FA24AA34913780978F1
:1071A400A24D994285B03CD00133DBB2022B08BF1B
:1071B400002313709E4912789E4B0F6853F82200E7
:1071C4003B1823F07F4300220B602B6816461446BD
:1071D400944613B942B12B6006E0196881420ED976
:1071E40002B12B60091A196001272B68DFF84CA241
:1071F40001934FF00008BEB9DFF848B262E0401ACC
:107204000C44D968D3F81CE0C3F800C031B13A1972
:1072140022F07F42C3E90121DE611E46734601224A
:10722400D7E700263746E0E73446F669804A6368C4
:107234001268DFF814C2A068991A21F07F416145F1
:1072440000F2A88001442160012222742A680023EC
:10725400C4E90133E361002A40F0A5802C60CAE749
:107264009BF802105A1CD2B291428BF8002004BF42
:1072740000228BF80020182202FB03B32A68197934
:107284009C68022977D0032900F08180012919D153
:10729400207CB8B9D3E90312A2605A69E2609A6902
:1072A400654BA2611B78002B0CBF0B460346636041
:1072B400BCE78C4200F094808946C9690029F8D162
:1072C400002323749BF800309BF801209A42C7D115
:1072D4002B68B8F1000F04D1019A9A4201D1002F12
:1072E40043D0002B79D0D3F800A0544D504BD5F89F
:1072F40004751C68DFF854813E1B98F8003026F0B2
:107304007F4603369BB94FF48033C5F84433C5F840
:1073140004334B4B4FF400324FF00109C3F8802182
:107324001A60C5F80090FFF7BDFE88F80090B245DA
:107334002CBF5444A41924F07F44C5F84045D5F823
:107344000435DB1B23F07F43E41B033324F07F4429
:10735400A3420AD9D5F80435C5F84035FFF7A2FE93
:10736400374B4FF40032C3F80021334B00221A701C
:1073740005B0BDE8F08F114691469FE71174D269BC
:107384000123002AFAD1002B9CD02A609AE700231B
:107394001946F6E7D31A23F07F43834234BFC31A56
:1073A4000023236050E721681368994213D8591ABF
:1073B4001160E26152E7091AD8691A4638B10346E6
:1073C40018688842F7D3401A18601846134621609B
:1073D400E061DC610FE71346F2E7FFF76BFEC4E7F9
:1073E4004C4511D1D3692B6073B9DFF844E0012017
:1073F400CDE90212CAF80800CEF800300E4B18701E
:10740400FFF750FEDDE902120B68C969C9F81C10C8
:1074140011B1086803440B602B68934218BF4FF006
:1074240001084DE72C3200202D3200203432002098
:10743400303200202432002020320020001001408D
:1074440000E100E014310020FEFF7F002132002023
:1074540008B5FFF72FFE104B00200B2218809A70FE
:107464000E4B18600E4B18700E4B18700E4B4FF4E9
:107474008012C021C3F8802183F814131A6002F12A
:107484008042A2F56F22C2F8080583F81113074B56
:10749400D2F804251A6008BD1431002034320020CB
:1074A4002C3200202D32002000E100E03032002098
:1074B400074B9B784BB132B128B10368187C20B9D3
:1074C40059745A617047072070470820704700BFFD
:1074D400143100202DE9F743DFF8848098F8023056
:1074E40005460E461746ABB3A0B3042930D9436909
:1074F40083B3437C0024012B0DF107000CBF8946A4
:10750400A1468DF8074000F047F90DF10600FFF79A
:107514008BFDD8B1012303700F4B4560D3F80435BC
:10752400C0E90497C0E902369DF8063088F80130B6
:107534009DF8070000F054F924B9084B4FF4801269
:10754400C3F80021204603B0BDE8F0830424EFE72C
:107554000724F7E70824F5E70010014000E100E004
:1075640014310020064A92783AB130B1426922B10E
:10757400002202740221FFF76DBD0820704700BF8E
:10758400143100200648074A03780749D35C0122D6
:1075940013B1043001F074BE0C3001F055BC00BFCF
:1075A400A02A00209C320020603200200648074AAE
:1075B40003780749D35C012213B1043001F012BEF1
:1075C4000C3001F0EFBB00BFA02A00209C32002049
:1075D4006132002037B50578012D0BD0022D2CD057
:1075E400F5B91D491D48FFF70EFD002830D1FFF7FE
:1075F400DDFF15E043681A4C19782046FFF7F1FCCB
:1076040080B18DF800500190164B68461B6898476E
:10761400A168E368A2885B1A9A420AD3FFF7B2FF13
:1076240003B030BDA268E3689A42F1D08DF800003F
:10763400EAE70D4B01221A70F2E7C3688DF8005097
:107644000193FFF79FFF074B68461B689847E7E7DE
:1076540003238DF80030F6E7613200205032002019
:107664003C320020383200204C320020F0B51F4656
:10767400234B89B004461A600D4600293DD08A8800
:1076840020480968FFF79EFC002834D1AA89A9681C
:107694001D48FFF797FC00282DD11C4E0FCE6D46D8
:1076A4000FC596E80F0085E80F0063690693237CF5
:1076B400174A18488DF81C70003B18BF01238DF839
:1076C4001430637C002B14BF0E2300238DF8153077
:1076D400E3680293A368039323680193694663688C
:1076E400009300F0FDFE30B90B4B18702368013392
:1076F40001D0FFF747FF09B0F0BD0720FBE700BF4B
:10770400383200203C3200205032002078C402007D
:10771400D9750200A02A00204C32002070B5084D13
:10772400014608482E78FFF76EFC044636B1002364
:107734002B70FFF727FF08B1FFF7FEFB204670BD53
:107744004C3200203C32002010B501460E48FFF7B1
:1077540048FC0446A8B90D480D4A0378D35C63B1CC
:10776400043001F081FD60B90A490748FFF74BFC7A
:1077740038B9BDE81040FFF719BF0C3001F058FBD1
:10778400F1E7204610BD00BF50320020A02A00209F
:107794009C3200206132002070B5EFF3108672B67F
:1077A4000C4A946801239CB993600B4B0B4DD3F89E
:1077B400801029401160C3F88050D3F884105160C0
:1077C4004FF0FF32C3F88420047006B962B670BD6E
:1077D4000370FAE76432002000E100E0FC06FFBD1C
:1077E400084B9A6810B55AB150B9EFF3108172B6CC
:1077F400054A1C6814605C685460986001B962B6FC
:1078040010BD00BF6432002000E100E001F01F025F
:107814004B090121914000EB830000F01EB801F0F8
:107824001F0301229A404B0900EB8300D14300F06F
:107834002CB84B0901F01F0150F82300C84000F098
:107844000100704710B5034653E8000F0A4643E8A9
:10785400002494F0000FF7D110BD10B5034653E88F
:10786400002F42EA010043E8000494F0000FF6D12F
:1078740010BD10B5034653E8000F00EA010243E8C7
:10788400002494F0000FF6D110BD10B5034653E860
:10789400002F02EA010043E8000494F0000FF6D13F
:1078A40010BD10B5034653E8002F02EB010043E876
:1078B400000494F0000FF6D110BD10B5034653E850
:1078C400002FA2EB010043E8000494F0000FF6D16E
:1078D40010BD0121FFF7C1BF0021FFF7CABF10B5DA
:1078E40090B1D0E9012301689B1ADBB20A60013B25
:1078F400DBB2FF2B026802D10020107110BD1168A9
:107904004C1C14600B70F2E70E20F7E737B5054600
:1079140000240DF107008DF80740FFF73DFF2A68AA
:107924006B68116899420ED9481E106011F8014C19
:10793400EB68298A01FB0434AB6811791B1ADBB2AA
:10794400994238BF13719DF80700FFF749FF20469D
:1079540003B030BD37B5054600230DF107000C46D2
:107964008DF80730FFF718FF2A681368591C116057
:10797400E968641A298AB4FBF1F41C709DF80700C5
:10798400FFF72EFF03B030BD826810B504462AB15C
:1079940043690168006998470023A36010BD0EB4D1
:1079A40003B5039921B104AB01AA019300F06EF869
:1079B40002B05DF804EB03B07047826830B4046829
:1079C400551C8560A154D0E901329A4202D330BCDF
:1079D400FFF7DABF30BC70472DE9F84F9846DDE970
:1079E4000A43154682460F460A464FF00109AA4249
:1079F4000FD2C14538BFC14613F0010B01D16CB998
:107A040000240126B8F1010F1BD908F1FF386E4399
:107A1400F8E709F10109B2FBF5F2E8E79B070ED597
:107A2400B8F1000F0CBF30262026A145E9D2013C55
:107A340031465046FFF7C1FF002CF6D1E0E720267F
:107A4400F3E7B7FBF6F39D42E1D9DFF83C80B7FBDF
:107A5400F6F3504618F8031006FB1377FFF7ADFF53
:107A64003346AB42B6FBF5F6F1D2BBF1000F02D0C0
:107A74000CB1A14501D3BDE8F88F20215046013C4B
:107A8400FFF79BFFF4E700BF98C402002DE9F74F0E
:107A9400054617468846002900F0428118F8011B64
:107AA40049B92B7B002B00F03B81284603B0BDE88D
:107AB400F04FFFF769BF252940F0B780002698F8FA
:107AC40000302D2B424608F1010823D0302B24D05E
:107AD4002B2B25D000242A2B02F1010123D13B6852
:107AE4001A1D1B683A601C440A4613782E2B26D1B3
:107AF40001324FF0000A104610F8011BA1F1300CBE
:107B0400BCF1090F1DD80A2303FB0A13A3F1300AA1
:107B14000246F0E746F00106D1E746F00206CEE75A
:107B240046F00406CBE711F8013CA3F13000092824
:107B3400DBD80A2202FB0434303C0A46CBE74FF080
:107B4400000A12F8011B01F0FB0068289046F8D0E7
:107B5400782909D86F290CD8632962D022D825291D
:107B640063D0582900F0888098F80030002B95D114
:107B740097E770390829F7D801A353F821F000BF1B
:107B8400FF7C02006D7B02006D7B02008D7C020095
:107B94006D7B02006B7C02006D7B02006D7B02003A
:107BA4007D7C0200642901D06929DDD13A68D2F8CC
:107BB4000090111D89EAE9723960A2EBE9724FF075
:107BC400010B092A35DCD34538BFD3462CB1B9F1B2
:107BD400000F01DB720700D5013CB30702D5BAF1EF
:107BE400000F03D0F00701D44CBB0024B9F1000FFF
:107BF4002DDAC9F100092D212846FFF7DEFE06F033
:107C04000302022A04D1BAF1000F01D11CBB0024E3
:107C1400CDE9004653460A2249462846FFF7DCFED2
:107C2400A2E73B681A1D19783A602846FFF7C5FE9B
:107C34009AE70A230BF1010BB2FBF3F2C1E7A34568
:107C4400D4D220212846013CFFF7B7FECCE77107C8
:107C5400D5D52B21D0E7A345DAD230212846013CE3
:107C6400FFF7ABFED2E73968CDE900460A1D3A605A
:107C740053460A220968D0E739680A1D3A60CDE9FB
:107C8400004653461022F5E73B681A1D3A6016F089
:107C94000106D3F8009028D1B9F1000F03D048466B
:107CA40003F069FF0646B44200D904BB09F1FF3969
:107CB40019F8011F00293FF457AF2846FFF77DFE4E
:107CC400F6E728460136FFF778FE19F80610002972
:107CD400F7D1A642BFF448AF002C3FF445AF2021B2
:107CE4002846013CFFF769FEF3E70026EDE7202173
:107CF4002846013CFFF761FED5E73B681A1D3A6050
:107D0400302128461C68FFF758FE78212846FFF7E3
:107D140054FE00220823CDE90032214610227CE7DC
:107D240003B0BDE8F08F00BF2DE9F84FB0F806A00E
:107D34004579D2F800B09DF828900AFB05F5043D7A
:107D440088460BEB0301A94203F1040488BFA5EBA9
:107D5400030BB4FBFAF607460AFB1644C2F800B05C
:107D64004EB9AAEB04055D4528BF5D46BBF1000F83
:107D740004D1BDE8F88F3F68013EF1E7043408EB15
:107D840006003C442A46B9F1000F0DD02146ABEB66
:107D9400050B03F072FEDA452E443F6855464FF05A
:107DA400000428BF5D46E1E701462046EFE7FFF700
:107DB40096BDF8B546790146721E054600239342E6
:107DC4002D6803D30024A64202D8F8BD0133F6E798
:107DD4000F682846FFF7BEFD01343946F3E72DE965
:107DE400F843068ACD1C0746FFF790FD043E354450
:107DF4000446B5FBF6F5F0B14FF48073EDB2838021
:107E0400C680013D076081464FF00008A84512D2A4
:107E14003846FFF77BFD064648B163790133637149
:107E240008F10108C9F8000007608146EEE7204622
:107E3400FFF7BFFF34462046BDE8F8830121043034
:107E4400FFF72FBD10B5012104460430FFF735FDBF
:107E540010F0FF0F04D12046BDE81040FFF7A9BF82
:107E640010BD1FB503920022009203AAFFF75CFF26
:107E740005B05DF804FB1FB503920122009203AA2A
:107E8400FFF752FF05B05DF804FB0000064B10B588
:107E940000241C70054B1C60BFF35F8F0449054828
:107EA40000F013F8204610BD783200207C32002008
:107EB400B4C4020070320020836800225A60C3E90F
:107EC40004229A60DA601A6070470B684A6843605B
:107ED400934208BF0023016008BF436070474368B2
:107EE40043B10268916852680B449342436004BFF3
:107EF400002343607047000010B50D49A1F594724A
:107F0400914201D800200FE08C1AE30F03EBE40345
:107F14005B1002EBC30452F83330834205D802D21B
:107F240004F10802ECE7606810BD2146E8E700BFF1
:107F3400B8C9020008B5FFF7DFFF024B002808BFED
:107F4400184608BD7AC8020010B50446C0B2FFF74F
:107F5400FBFB204610BD00000C4B1B78062B10D1F8
:107F64000B4B1B681A070CD10A4B186800F0F0037E
:107F7400302B08D000F0E000A0F1400358425841F3
:107F84007047002070470120704700BFE00F00F0E9
:107F9400E40F00F0E80F00F0094B1B78062B0CD11E
:107FA400084B1B681A0708D1074B186800F0F0004B
:107FB400A0F130035842584170470020704700BF79
:107FC400E00F00F0E40F00F0E80F00F008B5FFF751
:107FD400C3FF28B17D4B7E4A1B68C3F3042313609F
:107FE400FFF7DAFF10B17B4B7B4A1A60FFF7B4FF4F
:107FF40028B17A4B7A4A1B68C3F342331360FFF704
:10800400CBFF20B1774AD36823F08073D360FFF7A6
:10801400A3FF40B14FF080430022C3F80C21C3F802
:108024001021C3F83825FFF7B7FF10B16E4B0322B8
:108034001A60FFF7B1FF40B16C4B05221A600122B0
:108044009A6700229A603F225A60694B1B78062B7C
:1080540050D1684B1B6819074CD1674B1B6803F060
:10806400F003502B46D14FF08052644BD2F80414E5
:10807400C3F82015D2F80814C3F82415D2F80C1448
:10808400C3F82815D2F81014C3F82C15D2F8141418
:10809400C3F83015D2F81814C3F83415D2F81C14E8
:1080A400C3F84015D2F82014C3F84415D2F82414A8
:1080B400C3F84815D2F82814C3F84C15D2F82C1478
:1080C400C3F85015D2F83014C3F85415D2F8341448
:1080D400C3F86015D2F83814C3F86415D2F83C1408
:1080E400C3F86815D2F84014C3F86C15D2F84424C8
:1080F400C3F87025FFF730FF28B1414B414A1B6894
:1081040003F04F031360FFF727FF48B14FF080439C
:10811400D3F80024D20744BF6FF00102C3F800244F
:10812400394B1B68062B08D1384B1B68062B01BF43
:10813400374A136843F480631360364AD2F88830B0
:1081440043F47003C2F88830BFF34F8FBFF36F8FCF
:108154004FF01023D3F80022002A03DBD3F80432B3
:10816400002B2FDA2C4B0122C3F80425D3F800246A
:10817400002AFBD04FF010221521C2F80012D3F8C8
:108184000024002AFBD04FF010231522C3F8042248
:10819400214B1A46D3F800140029FBD00021C3F860
:1081A4000415D2F80034002BFBD0BFF34F8F1949CC
:1081B4001A4BCA6802F4E0621343CB60BFF34F8FDB
:1081C40000BFFDE7164B174A1A6008BD24030010D0
:1081D4004035014074C007400DF0ADBA44020010B0
:1081E4003C050040F0ED00E0A005004010560040C2
:1081F400E00F00F0E40F00F0E80F00F000C00040D2
:1082040058020010E40E0040300100103401001048
:108214003C17004000ED00E000E001400400FA05D6
:10822400B42A00200090D003054A4FF0A043105C0C
:10823400D3F8043523FA00F0C04300F0010070477E
:10824400BCC90200044B1A5C012393404FF0A042C6
:10825400C2F80C35704700BFBCC90200044B1A5C5D
:10826400012393404FF0A042C2F80835704700BF85
:10827400BCC9020008B50020FFF7F0FF0120FFF79A
:10828400EDFF0220FFF7EAFFBDE808400320FFF7F7
:10829400E5BF08B50020FFF7D5FF0120FFF7D2FFA7
:1082A4000220FFF7CFFFBDE808400320FFF7CABF55
:1082B400074A4FF0A041105CD1F8043501228240F6
:1082C40022EA03001340C1F80805C1F80C357047D1
:1082D400BCC90200054A4FF0A043105CD3F8103526
:1082E40023FA00F0C04300F001007047B8C902004F
:1082F4000D2809D00E2809D00F2809D010280CBF4A
:1083040003204FF0FF307047002070470120704772
:1083140002207047014B185C704700BFB8C90200C7
:10832400C20708B501460CD54FF0A0430322C3F899
:108334004427C3F84827C3F84C27C3F85027FFF74E
:1083440099FF8B070AD54FF0A0430C22C3F83427BA
:10835400C3F83827C3F83C27C3F8402708BD0000FA
:1083640038B5074C051E04F1080318BF1C462368E2
:108374002BB11A6822605B6828469847F7E738BD36
:108384008832002020B9054B01225A70FFF7E8BF5C
:10839400012802D1014A9070F8E77047803200202A
:1083A40020B9034B01225A70FFF7DABF704700BFB0
:1083B4008032002038B50B4C237883B90A486360B7
:1083C400A3602361E36000F0D3F8054603F09EF850
:1083D40008B900F0D9F801232370284638BD852553
:1083E400FBE700BF803200208983020037B50B4CC5
:1083F40000230DF107008DF80730FFF7CDF9E3688E
:10840400013BE360E56815B900F0D2F8A5709DF86A
:108414000700FFF7E5F903B030BD00BF803200204C
:10842400012813B508D003281CD018B9104B012219
:10843400C3F8802002B010BD0E4C00230DF10700DC
:108444008DF80730FFF7A8F923780BB9FFF7B2FFCF
:10845400E3689DF807000133E3600123A370FFF78D
:10846400BFF9E7E700F090F8FFF7C0FFE2E700BFCD
:1084740000E100E0803200201FB503788DF8003061
:1084840043680193037A8DF80830C368054A03935F
:10849400054B684653F8213052F82110984705B02F
:1084A4005DF804FB94320020983200201FB5037855
:1084B4008DF800304368019383688DF80830C368F1
:1084C400054A0393054B684653F8213052F82110AE
:1084D400984705B05DF804FB9432002098320020E0
:1084E400F0B5194B90F800C091F81DE043F82C202A
:1084F400164B16460A6943F82C20154B03F80CE07A
:108504000C4607460FCC89B06D460FC594E80F00A2
:1085140085E80F00CDF810C0BEF1000F09D0002E81
:108524000C4A694608BF3246381D00F093FD09B075
:10853400F0BD002E084A694608BF324607F10C0018
:1085440000F070FBF3E700BF983200209432002063
:108554009C3200207D840200B184020000F180403E
:10856400002382B0036003680193019B02B070474B
:10857400044A137923B90121106091801846704789
:1085840085207047A0320020084B1A68D20706D411
:10859400C02283F800230122C3F880211A604FF01F
:1085A40080430122C3F81825704700BF00E100E0B2
:1085B400044B01221A604FF08042D2F81834DB03D6
:1085C400FBD470470C000040124B1B6810B573B10C
:1085D4004FF48070FFF7C2FF4FF080430122C3F8CD
:1085E40008230D4B587910B95A711B6898470B4BE7
:1085F4001B6873B14FF48270FFF7B0FF4FF08043F4
:108604000222C3F80823044BBDE810401B68012074
:10861400184710BD00010040A032002004010040B2
:1086240000F1804000F5C040002382B0036003687D
:108634000193019B02B07047800000F1A040D0F884
:10864400002722F44032C0F80027D0F8003743EA6C
:108654000141C0F800177047054B4FF0FF3207285F
:1086640043F8202084BFC01880F84820704700BF1A
:10867400A832002010B5184C94F8583053BB04F1BC
:1086840030032021FF22013911F0FF0103F8012BEF
:10869400F9D1C8B2FFF7E0FF01310C29F9D1042266
:1086A40000210E4803F012FA0D4BC02283F8062372
:1086B4004022C3F880214FF4BE701A60FFF7B0FF68
:1086C400084B4FF00042C3F80423012384F85830C8
:1086D400002010BD0820FCE7A8320020FC32002056
:1086E40000E100E000600040034B93F858000038BC
:1086F40018BF0120704700BFA8320020F0B5364DE6
:108704002C1894F93040002C64DA8C78C4F34004BB
:10871400002C0BBF082300230C260826B34201D1EA
:108724000420F0BD55F8237001373FD12E1845F8C9
:10873400232086F8303014B9EA1882F848008A7881
:10874400540713D4D60733D5820002F1A042D2F8DD
:10875400004724F00204C2F80047204EC20800F08B
:1087640007070124BC40B75C3C43B4548A780C78B6
:1087740012F0020225D09B0003F1804303F5C043AD
:108784000202D3F8101521F4473121F44071C3F8E3
:1087940010152404D3F8101502F4F85204F44034EC
:1087A40022430A43C3F810250020BAE70133B5E792
:1087B4004C7800F5E0724FF0A046A40046F8224041
:1087C400CBE7083B2B4493F8501041EA841483F818
:1087D4005040E9E70820A4E7A8320020FC3200203A
:1087E40038B51F4C251895F93020072A16DD224488
:1087F40092F848309B09032B0BD14FF0A043D3F8D8
:108804001015C14001F001010231BDE83840FFF705
:1088140013BF012B0CBF02210321F6E7D3B2072BB0
:108824001CD8930003F1804303F5C043D3F810052B
:1088340040F00100C3F8100502F14000800080B24E
:10884400FFF7EEFE51B195F9303054F823302BB1D7
:10885400012303FA02F2034BC3F8042338BD00BF1B
:10886400A8320020006000404FF0A043D3F8103538
:1088740023FA00F000F00100704700002DE9F04FEA
:1088840087B000245A4D03944FF48072012102F101
:10889400804303F5C04390B21B68012B06D1D5F881
:1088A40004330B4202D0FFF7BBFE0C430432B2F593
:1088B400907F4FEA4101EAD14E4B1B68012B0AD14C
:1088C4004FF4BE70FFF7ACFE4FF0A04344F00044F9
:1088D400D3F81035039314F0FF0F1AD0464F002538
:1088E4000126344210D0AB0003F1804303F5C043AA
:1088F400D3F81005D3F8101557F8253023B1C1F378
:108904000141C0F3042098470135082D4FEA46067B
:10891400E7D1002C65DA00214FF0FF33CDE90413D1
:10892400354D01274FF0000A344ED1464FF0A04890
:1089340016F9013B5A1C45D0C3F3C20106AA5018CC
:10894400DCB210F8042C03F03F0B03F0070307FA22
:1089540003F31A4236D005EB0B02A40992F9302036
:1089640055F8222052B9032C2CD10DF1100E1EF80B
:1089740001C04CEA030C0EF801C001E0032CF4D052
:108984000BF5E07110F80C0C58F821101842C1F3E3
:10899400014105D0022915D1032C0FD1214604E051
:1089A40003290FD1032C09D102215846019209F160
:1089B4000109FFF741FE019A5FFA89F912B12146D4
:1089C400584690470AF1010ABAF1040FB0D1B9F13F
:1089D400000F06D04FF0A043039AD3F8103593420A
:1089E40002D107B0BDE8F08F0393049B059399E788
:1089F400006000407C610040A8320020F832002072
:108A0400014B1B68184700BF043300200E4B9842EB
:108A140037B50C4602D0002003B030BD00230DF161
:108A240007008DF80730FEF7B7FE084B1D7915B91E
:108A340001221C601A719DF80700FEF7D1FE002D7B
:108A4400E9D01120E8E700BF0020004004330020F3
:108A54000023435082B043580193019B02B07047F6
:108A64000A4610B54FF48E71FFF7F2FF136A91684E
:108A7400C95C136A01331362C0F81C1510BD0246A9
:108A840008B500684FF49271FFF7E2FF4FF4847168
:108A94001068FFF7DDFF136801221A6008BD8B69B7
:108AA4000A4610B54FF4847123B9FFF7D1FFD0F80B
:108AB400183510BDFFF7CCFF536AD168D0F81805FC
:108AC400C854536A01335362F3E700001FB501230E
:108AD4008DF80030044BCDE90110D3E9001268464B
:108AE400904705B05DF804FB0C33002030B54B48CB
:108AF400D0F8043313F4007F85B005464DD0D0F888
:108B04002431002B49D04FF49271FFF7A1FF4FF4A9
:108B14000173C0F80833424B93F829200AB90122A3
:108B240042603E4902228DF80020D1F88024C1F829
:108B3400802403929A690292DA6801920022C3E9BE
:108B440006226846D3E9001290473448D0F81C3115
:108B54005BB133490A6A4B699A420A464AD291F890
:108B64002830002B46D1FFF77BFF2C48D0F8443146
:108B74008BB14FF4A271FFF76BFF294B93F82920B7
:108B84000AB1012202609A692AB10022586AD9689E
:108B94009A61FFF79BFF05B030BDD5F804335B073E
:108BA400D3D5D5F80831002BCFD01D4C1B48214616
:108BB400FFF775FF636AA2699A422346C5D1E26949
:108BC400E1684AB12369E3600023606AA261E3615A
:108BD4006362FFF77BFFB8E794F829200AB9012202
:108BE4006A600E4A4FF40170C2F808030022586A02
:108BF4009A61EEE74FF48E710848FFF729FF516937
:108C04000029B2D00023029191688DF800300191BF
:108C140053616846D2E900139847A6E70020004054
:108C24000C3300202DE9F8435A4B057991462C2248
:108C340002FB0532064692F82A200C469846002A82
:108C440040F0A48054490068FFF7E0FE074600287E
:108C540040F09E8021683368481C0BD04FF0A04040
:108C640001228A40C0F8082501F5E0724FF0030C98
:108C740040F822C06068421C1FBF00F5E0724FF04C
:108C8400A04C4FF0000E4CF822E0A269C3F8242552
:108C940094F814C0627DBCF1010F4CEA0202C3F8DF
:108CA4006C25C3F81405C3F80C151DD1A1684A1C22
:108CB4001FBF01F5E0724FF0A0404FF0000C40F8E8
:108CC40022C0E268501C0BD04FF0A04C0120904011
:108CD400CCF8080502F5E0704FF0030E4CF820E0E4
:108CE400C3F80825C3F810152C236B4308EB0302C3
:108CF400C2F80490226948F80320B9F1000F32D079
:108D04003068227F4FF48E71FFF7A2FE30684FF473
:108D1400A271FFF79DFE33682049C3F80413190BB1
:108D240043F30733002BA8BF03F160404FEA53130A
:108D3400BCBF01F00F041A484FEA4212A8BF00F565
:108D440061404FEA8303D2B203F16043B4BF0255DA
:108D540080F8002303F5614301F01F0101228A40DA
:108D6400C3F880211A6033680422C3F800252C2339
:108D740003FB05830022C3E9062283F829205A61F4
:108D8400012283F82A203846BDE8F8830827FAE749
:108D94001127F8E70C330020F18A0200800002005A
:108DA40014ED00E02DE9F843204B07794FF02C092E
:108DB40009FB0734054666699846002E33D10068DE
:108DC4006261A16026624FF48E7184F82860FFF717
:108DD4003FFE2868012383602146FFF741FE636854
:108DE400A14683B92868226A63699A4211D32B6821
:108DF400D3F81C21002AFBD00122DA602C2303FBC8
:108E0400078300225A613046BDE8F88394F828307D
:108E14003BB9D0F81C31002BF8D04946FFF720FEAF
:108E2400E1E70F26EAE71126EDE700BF0C33002047
:108E34000379044A2C2101FB03235869003818BF25
:108E4400012070470C3300202DE9F843394F057990
:108E54002C2303FB057306465C6824B103684FF4B6
:108E64000170C3F808032C2303FB0573986950B100
:108E7400D86900283ED024B133684FF40172C3F896
:108E84000423112433E09A61D9605862D8612C23F9
:108E940003FB057393F829301BB910B93046FFF76B
:108EA400EEFD4FF02C0909FB05783068D8F8043042
:108EB400002B34D14FF4A271C146FFF7C9FD3068CD
:108EC400D0F82431D0F80821D0F84441B2B90CB913
:108ED400002BF4D02C2202FB05750022AA6123BBCF
:108EE4002CBB95F8291033680122B1B11A602046D1
:108EF400BDE8F8831961DA610120C8E7002BE9D1E4
:108F0400002CE7D14946FFF7CAFDD8F82430D8F839
:108F140018209A42D3D82346DCE75A60E7E74FF497
:108F24000173C0F804330024E1E70324DFE70F24CE
:108F3400DDE700BF0C3300200023435082B04358C8
:108F44000193019B02B070471FB501238DF80030D7
:108F5400054B8DF8080001916846D3E9001290474B
:108F640005B05DF804FB00BF383300207FB5374AF5
:108F7400D2F82461002E47D010464FF49271FFF7C7
:108F8400DBFF02238DF80030D2F88034C2F880343D
:108F94000393D2F83C358DF808302D4BDA680192F2
:108FA4000022C3E906226846D3E900129047274805
:108FB400D0F844316BB14FF4A271FFF7BDFF244BDD
:108FC4009A6932B100229A61D0F83C05D968FFF75A
:108FD400BBFF1E48D0F82031A3B14FF49071FFF7C6
:108FE400ABFF1B4B5A696AB1D0F84C158DF80810C9
:108FF400002299688DF8002001915A616846D3E9EE
:109004000012904704B070BDD2F81031002BCED0BE
:109014004FF488711046FFF78FFF0D4BD2F83C05D3
:1090240099698842C3D1DC69D96864B1D2F8005225
:1090340025F02005C2F800521A699C61DA60DE61ED
:10904400FFF782FFB3E79C61FAE700BF002000400E
:10905400383300202DE9F8435E4B067991462422EB
:1090640002FB0632044692F820200D469846002A58
:1090740040F0AC8058490068FFF7C8FC0746002858
:1090840040F0A68029682368481C0BD04FF0A0400C
:1090940001228A40C0F8082501F5E0724FF0030C64
:1090A40040F822C06868421C1FBF00F5E0724FF010
:1090B400A04C4FF0000E4CF822E0AA69C3F8242516
:1090C40095F814C06A7DBCF1010F4CEA0202C3F8A2
:1090D4006C25C3F80C15C3F814051DD1A9684A1CE6
:1090E4001FBF01F5E0724FF0A0404FF0000C40F8B4
:1090F40022C0EA68501C0BD04FF0A04C01209040D5
:10910400CCF8080502F5E0704FF0030E4CF820E0AF
:10911400C3F80825C3F810152423734308EB03028E
:10912400C2F804902A6948F80320B9F1000F3CD032
:1091340020682A7F4FF48871FFF7FEFE20684FF401
:109144009071FFF7F9FE20684FF49271FFF7F4FE77
:1091540020684FF4A271FFF7EFFE23681F49C3F89C
:109164000413190B43F30733002BA8BF03F160402A
:109174004FEA5313BCBF01F00F0519484FEA4212DE
:10918400A8BF00F561404FEA8303D2B203F1604304
:10919400B4BF425580F8002303F5614301F01F0179
:1091A40001228A40C3F880211A6023680822C3F888
:1091B4000025242303FB06830022C3E906225A6107
:1091C400012283F820203846BDE8F8830827FAE70F
:1091D4001127F8E738330020718F020010030200D2
:1091E40014ED00E001F06043B3F1005F2DE9F041BC
:1091F400064632D11B4B0779242505FB07359846D3
:109204006C6964BB6A610068A9604FF49071FFF7F0
:1092140093FE4FF4AC713068FFF78EFE33686A69D1
:10922400A968C3F84415C3F8482501229A606A68FE
:1092340062B9D3F82021D3F8584152B9002CF8D0A0
:109244000F24242303FB078700237B612046BDE80A
:10925400F081002C18BF0F24F3E71024F6E7112443
:10926400F4E700BF383300200379044A242101FBCA
:1092740003235869003818BF012070473833002091
:10928400F8B501F06043B3F1005F04460F465ED1C8
:109294000379304D242101FB0351496821B1006851
:1092A4004FF40476C0F80863242000FB03539E693E
:1092B40056B1D869002839D021B123684FF404721B
:1092C400C3F80423112030E09A61DF60DE61206876
:1092D4004FF48871FFF730FE20684FF4A271FFF756
:1092E4002BFE2368C3F83475C3F8382516BB012256
:1092F4001A602179242202FB015252680ABBD3F876
:109304001041D3F84421D3F82401144302D1002896
:10931400F5D02246242303FB01550023984218BFAD
:1093240003209A42AB6118BF0F20F8BD1F61DA61B8
:109334000126CCE7D3F8002242F02002C3F8002231
:10934400D7E74FF40472C3F804230020EDE710209C
:10935400EBE700BF383300200220FEF7A9BF00006E
:109364002DE9F04780460D46FEF7C2FF0328044668
:1093740010D8012D10D0022D30D05DB91A48FEF757
:10938400F1F81A4B04EB440213449E78184B1B5D0E
:10939400B34219D0BDE8F087144D00EB4002A91880
:1093A400AE5C4A78470052B1DFF84C900E484A460A
:1093B4004FF40041FEF78EF808B989F800803B1994
:1093C4002B449A780A4B1A55002EE3D0094B1B689C
:1093D400002BDFD03046BDE8F047184700EB4004CF
:1093E400024804446678EFE780330020C03300204D
:1093F400D9330020D43300205C33002000780221CC
:10940400FFF7AEBF08B5094B1B7853B10020FEF738
:1094140025FF0120FEF722FFBDE808400320FEF7E8
:109424001DBFBDE80840FEF725BF00BF5D33002027
:10943400F8B57B4C237805461BB100232370FFF756
:10944400E1FF172D00F28880DFE805F00C171743C1
:1094540054657680888D888D959A9A9A9A9AC4C90B
:10946400D1D9E4E4FFF7CEFF6E48FEF77BF86E4BEC
:10947400002204461A702046F8BD0020FEF7D4FEF0
:10948400F8B10020FEF7EAFE022D0CBF4FF4E161B3
:109494004FF47A61644B1D704FF400404FF4FA743A
:1094A4000025E0FB01454FF47A720023204629464B
:1094B40002F0B8F900220146BDE8F8405948FEF729
:1094C40009B8FEF7BFFE022D0CBFC8214FF4C871C6
:1094D400E0E70020FEF7A8FE40B10020FEF7BEFE44
:1094E4004FF44871504B03221A70D5E7FEF7AAFED9
:1094F400C821F7E70020FEF797FE38B10020FEF7F9
:10950400ADFE4FF47A61484B0422EDE7FEF79AFE74
:109514004FF4C871F7E70020FEF786FE48B100203B
:10952400FEF79CFE404B05221A7041F69A11002268
:10953400C2E7FEF787FEF5E70020FEF7B9FE3A4BD7
:1095440006221A70002240F6CD41B5E70020FEF74E
:1095540079FE354B07221A7000248CE70120207015
:10956400FEF7A6FEEEE701202070FEF7A1FE002222
:109574004FF48041A0E7FEF78CFE2B4B0C22EAE768
:109584002A482B4EFDF7EEFFD5F1110504461CD0F9
:10959400D8B9012D13D0C8235D434FF400474FF4CD
:1095A400FA7000214FF47A720023C7FB050102F020
:1095B40039F9224601461D48FDF78CFF0446022076
:1095C400FEF740FE0123337055E70220FEF746FE06
:1095D4000023F8E7FFF716FF134B1222BBE7FFF750
:1095E40011FF0020FEF72EFE0F4B1322B3E7FFF707
:1095F40009FF0120FEF726FE0B4B1422ABE7FFF711
:1096040001FF0020FEF71EFE0120FEF71BFE064BA5
:109614001522A0E7FEF73DFE034B1D709CE700BF3B
:10962400D0330020A0330020D83300206033002042
:109634005D330020044B1B68DB0703D5034B18780C
:10964400FFF7F6BE704700BFCC330020D8330020AC
:10965400032801D8FEF73EBE00207047044B1B6868
:1096640013F0010301D0FFF7E3BE1846704700BFB3
:10967400CC33002038B51C4B18601C4B10F002048E
:10968400054619601AD01A4B1A480E221A700F2276
:10969400DA7010229A7111225A72042140F2666221
:1096A400FDF7E0FB044648B9FDF730FC044628B951
:1096B4000146114A1148FDF7FBFE0446EB0711D59C
:1096C4000120FEF72DFE6CB921460D4A0D48FDF729
:1096D400EFFE044630B9BDE838400B4A0B4801217F
:1096E400FDF7E6BE204638BDCC330020D43300203D
:1096F400C0330020E0C902000194020004CA020041
:109704003996020008CA02005D93020000CA0200F2
:10971400032811D8012A0AD101290FD100F10E0220
:10972400D2B20D4B00EB40001A54002070470129BF
:10973400F7D0022904D049B1072070470022F8E786
:10974400054B00EB400018444270EEE7024B00EB7F
:10975400400018448270E8E7C0330020032808B5AD
:1097640012D8FEF7D7FD800000F1A040D0F80037F2
:1097740023F44033C0F80037D0F8003743F44033C3
:10978400C0F80037002008BD0620FCE708B5012218
:1097940002210020FFF7BCFF08B1072810D10722DF
:1097A40002210120FFF7B4FF08B1072808D10021E6
:1097B4000A220846FFF7ACFF10B1072808BF0020B3
:1097C40008BD00000388102B10B502D0112B1ED049
:1097D40010BD1A4C2168B1B901220846FFF798FF61
:1097E40008B1072824D1072202210120FFF790FFA6
:1097F40008B107281CD1042202210020FFF788FFAA
:1098040008B1072814D1236801332360E0E70B4A29
:109814001368013B1360002BDAD1FFF7B7FF002870
:10982400D6D0074B1B68002BD2D0BDE81040184798
:10983400034B1B68002BE6D09847E4E7E433002091
:10984400E033002008B50020FFF788FF08B10628A0
:1098540006D10120FFF782FF10B1062808BF0020BF
:1098640008BD00000D4B10B518600C4629B101204D
:10987400FFF7EEFE40B102232370094B1B6853B976
:10988400BDE81040FFF782BFFFF7E2FE08B10B23EB
:10989400F2E72070F1E7002010BD00BFE0330020A4
:1098A400E433002076DF70477ADF70477CDF70474F
:1098B4007FDF70478FDF7047B1DF704733DF70475A
:1098C400FDF73ABB08B50020FFF7C8FE08B1FDF765
:1098D40033FBFFF7B7FF08B1FDF72EFBFFF7EEFFF1
:1098E40018B1BDE80840FDF727BB08BD0388212B4C
:1098F40013B504463DD007D8112B2BD0132B40D0E1
:10990400102B0CD002B010BD522B42D0562B01D0DC
:109914003B2BF7D1A0881321FFF7C4FF15E0214B9F
:1099240021482249C01AC008000440F00300FDF792
:109934006BF80720FFF792FE08B1FDF7FDFA1C4B08
:10994400A1881C48198001F0AFFB0028DAD0FDF78C
:10995400F3FAD7E7134B14481749C01AC008000498
:1099640040F00300FDF750F8114B4FF6FF721A80D8
:10997400C8E7002301A98088ADF80430FFF79AFFF7
:10998400E3E70B4800231A4685210088FFF790FF80
:10999400DBE7074800231A4619460088FFF78CFFC7
:1099A400D3E700BFC0C20200E8C202000CCA020032
:1099B400C82A00205037002016CA02000D4B4A88DE
:1099C4001B889A4214D10A8840F677239A420FD111
:1099D4008B88094A09480A49033B9BB21380094A08
:1099E400801AC00800041A4640F00300FDF719B8B5
:1099F400704700BFC82A0020C62A0020E8C202001F
:109A040023CA0200C0C2020008B503784BB9054B53
:109A14003B211888FFF746FF18B1BDE80840FDF761
:109A24008BBA08BDC82A0020072808B513D00A2815
:109A34000DD0042819D10D4B13211888FFF732FFDC
:109A440030F0080311D0BDE80840FDF775BABDE851
:109A54000840FFF737BF054B1A884FF6FF739A4249
:109A640003D1034800F0EDFEEAE708BDC82A002050
:109A7400E034002008B548B103280BD10220FFF7D9
:109A8400EDFD38B1BDE80840FDF756BABDE8084021
:109A9400FFF718BF08BD0000F7B50378012B33D0DA
:109AA400022B31D073BB1A4C1A4D20782844FDF791
:109AB40035FE23780133DBB21D44237015F8012CE5
:109AC4000A2A05D00D2A03D0134A12889A4219D8BB
:109AD400012B15D9114D0F4E114F2378ADF80630D7
:109AE4000DF106022B883146384601F053FC082854
:109AF40006D01328F1D0052802D008B1FDF71CFACE
:109B04000023237003B0F0BD4068FDF715FAF9E7B0
:109B1400DC340020E8330020C62A0020C82A0020B4
:109B2400CC2A00202DE9F0410578064645BB154CAA
:109B3400154BDFF85880E41AE408240444F00104C7
:109B4400B28A95420AD33369134413F8013C0D2BAE
:109B540016D10A20FDF7F8FD1128F9E73369585D9D
:109B6400FDF7F2FD074648B11128F7D002464146F9
:109B74002046FCF74DFF3846FDF7DEF90135DFE7F7
:109B8400BDE8F081E8C20200C0C202003FCA020080
:109B9400FDF7D2B908B50849084801F071F908B1D0
:109BA400FDF7CAF90548F72101F07EF918B1BDE8BF
:109BB4000840FDF7C1B908BDC1990200383700203B
:109BC4002DE9F041824D0FCDB0B005AC0FC495E83E
:109BD4000300804B804A01934FF4807384E80300B0
:109BE400CDE9032302937D4A072301A905A8FDF7C4
:109BF4003DFD08B1FDF7A0F94FF400410020FCF74A
:109C04004DFD08B1FDF798F9FCF77EFCFDF720FC4B
:109C140008B1FDF791F972490320FFF72BFD08B154
:109C2400FDF78AF905A90020FFF71CFE08B1FDF72E
:109C340083F9FEF72BF908B1FDF77EF901F028FC52
:109C440008B1FDF779F9002305A90120059301F076
:109C5400ADFC08B1FDF770F905A801F077FD08B176
:109C6400FDF76AF911235F488DF8043001F083FF92
:109C74005C4982B201A8FFF719FE08B1FDF75CF94F
:109C84000021082205A801F021FF57494FF0C873AD
:109C940005A8CDE90513FFF707FE08B1FDF74CF958
:109CA400FFF778FF514B5248059305A901F0EAF9F3
:109CB40008B1FDF741F9042200210DEB020001F087
:109CC40005FF4C4B4C48019301A901F0E9FA08B196
:109CD400FDF732F9AC22002105A801F0F7FE0223BA
:109CE4008DF814304FF4A063444AADF816300123C4
:109CF400ADF8603019928DF89030402244F25063F0
:109D0400CDE927233E483F4B2E9305A900F0D7FB0E
:109D140008B1FDF711F93A48012100F0CDFB1C22EE
:109D2400002105A801F0D2FE00234FF42032CDE932
:109D34000532ADF822304FF470228DF82430324BC6
:109D440007920A930322314B8DF8202005A80B9328
:109D540000F094FE08B1FDF7EFF82D4801F05CFE29
:109D64002C4B2D482D49C01AC008000440F00300B4
:109D7400FCF74AFE2248032100F020FC08B1FDF75D
:109D8400DBF8274C274FDFF8A0800A23ADF8143006
:109D940044F001043B881848234E05AA414601F0CB
:109DA400F9FA0025BDF81430AB420ADC0120FEF7B5
:109DB4007FFA4FF47A754FF47A40A047013DFAD107
:109DC400E8E716F8010BFDF7BFFC0135EAE700BF31
:109DD400B4CA02005C3700205C3800209D9A02005F
:109DE4002D9A02006ACA020010003C00C5980200C5
:109DF40050370020299B0200CC2A0020C22A0020D0
:109E0400E0340020799A02000D9A0200959B02002A
:109E140076CA0200C0C20200E8C2020088CA020078
:109E2400D0CA0200C82A0020B82A00200369C168E9
:109E34008B429DBF8268D21802F1FF3203F1FF33D7
:109E440094BF501A581A70472DE9F843D0E9029488
:109E54000546A9EB04084068904520440F46144485
:109E640004D901F00AFEEC60BDE8F8834246A4EB95
:109E7400090401F002FE6868224607EB0801F0E7D6
:109E84002DE9F843C5680646894617464FF0000891
:109E94003469B3687068A54228BFE418013C621BAA
:109EA4005C1BBC4228BF3C46944228BF144649462A
:109EB4002844224601F0E1FDB3682544AB4208BFC3
:109EC40000253F1BA044A144F560E1D14046BDE814
:109ED400F883000010B5114C114AA2610223C4E9B1
:109EE4000433104BE361A2644FF400730E4A0F492C
:109EF4002362E26400231022E01DA3626362E36232
:109F0400A3656365E365226501F013FE08492046F5
:109F140001F00FFE2023A37110BD00BF5C390020A7
:109F2400D6CA0200E4390020D4390020DFCA020076
:109F3400E3CA0200F8B5184C182300FB033503FBF1
:109F440000402544C46A012C0F4616460FD0022C4B
:109F54001AD0F4B92846FFF769FF864205D832467D
:109F640039462846FFF770FF34462046F8BD284698
:109F7400FFF75CFF8642344628BF04462246394632
:109F84002846FFF761FFF0E72846BDE8F840FFF7F1
:109F940077BF0024E9E700BF5C390020FFF79ABFD0
:109FA4006DDF704779DF70477DDF704764DF70478E
:109FB4002DE9F04F85B000250E9CBDF83CB0B4F8F7
:109FC40000A00191074690461E46A9463A884A4594
:109FD4000DDC45B12388013BA3EB0A039BB2FF2BA5
:109FE4003AD806F80A30002005B0BDE8F08F7A6848
:109FF40052F82900039000220DF10B0103A8FFF78A
:10A00400D5FF0028F0D19DF80B20424521D12288AC
:10A01400002D14BF0020022002EB08010144594521
:10A024001ADC3DB9013292B2019B2280B3542288DA
:10A034000132228022880DF10B01324403A8FFF77C
:10A04400B5FF0028D0D121889DF80B200A44228036
:10A05400012509F10109B9E70C20C5E72DE9F34110
:10A06400089FBDF824801546CDE9007802220446F5
:10A074001E46FFF79DFF50B933461022294620465D
:10A08400CDE9087802B0BDE8F041FFF791BF02B016
:10A09400BDE8F0812DE9F04F00231788138090F874
:10A0A4002D3085B006460D46144653B3082F01D80B
:10A0B4000C2027E102A8FFF773FF002840F022815B
:10A0C40023880822EA54238801339BB21B2223806D
:10A0D400EA542088013080B2208006220DF1090163
:10A0E400284401F0CAFC23889DF8082006339BB25B
:10A0F40012F0FE0218BF01222380EA5423880133A0
:10A104002380B378FBB123880433BB42D0D802A8A0
:10A11400FFF748FF002840F0F58023880322EA5423
:10A12400238801339BB219222380EA542388BDF883
:10A13400082001339BB2E9182380EA54120A4A70BA
:10A14400238802332380F2789AB12388D91CB94238
:10A15400AED80221E954238801339BB20121238024
:10A16400E95423880B449BB22380EA5423880B448C
:10A1740023807268AAB12388D91CB94298D80221D5
:10A1840092F90020E954238801339BB20A212380E9
:10A19400E954238801339BB22380EA542388013392
:10A1A40023803389002B40F0A180338A5BB1CDE951
:10A1B40000472B460722032106F11000FFF74EFF4C
:10A1C400002840F09F80338B5BB1CDE900472B46DC
:10A1D4001522142106F11800FFF740FF002840F073
:10A1E4009180326A002A40F09080D6F82480B8F139
:10A1F400000F30D0B8F804302188981C8A1C02441F
:10A20400BA423FF655AFFE283FF652AF03336B54C4
:10A21400238801339BB2FF222380EA54238801332D
:10A224009BB22380B8F80020EA54E918120A4A7055
:10A234002088023080B22080B8F804205AB1D8F8BF
:10A24400081000296BD0284401F017FC2388B8F8C3
:10A2540004201344238096F82C30002B40F09A807D
:10A26400307800284ED03388012B58D0228802F150
:10A27400020CBC453FF61CAF012805D173780233AC
:10A2840013449F42FFF414AF023FBF1ABFB202A9A6
:10A2940005EB0C00ADF80870FFF786FE90BB317833
:10A2A400BDF80830022900F0BA8072789A4202D3CD
:10A2B400BB4240F2B280012940F0B380974293B28E
:10A2C400C0F0AF80ADF808300821BDF80830FE2B8F
:10A2D4003FF6EEAE22880133AB542288013292B2AB
:10A2E4002280A9542288134423800BE0CDE900473F
:10A2F4002B460622022106F10800FFF7AFFE0028D4
:10A304003FF453AF05B0BDE8F08FB4F800C00CF1D2
:10A314000603BB423FF6CCAE1188052901D80720BD
:10A32400F0E76FF4486E01EB0E039BB24FF27D3EF3
:10A334007345F4D95388052BF1D96FF44860181884
:10A3440080B27045EBD94FF6FF70814203D083424F
:10A3540001D09942E3D8052305F80C302388013352
:10A364009BB212212380E954238801339BB22380BA
:10A374001188E954E818090A4170238802339BB212
:10A3840023805288EA54E918120A4A702388023357
:10A3940023802AE7B36A002BC1D04FF000094FF0A5
:10A3A4000C0A4FF0160B96F82C305FFA89F29342A0
:10A3B4007FF656AFB16A0AFB02F201EB0208B8F865
:10A3C4000430981CFE283FF673AE208803332B54C8
:10A3D400238801339BB2238005F803B0238801331B
:10A3E4009BB223808A5AEA54E918120A4A702088D8
:10A3F400023080B22080B8F804205AB1D8F808108E
:10A4040000298CD0284401F038FB2388B8F80420B4
:10A414001344238009F10109C5E7092155E7BB422B
:10A42400FBD9ADF808704FE770B5C0B14AB11688D2
:10A434000024B44203D305196D789D4208D0A1428B
:10A4440001D800200BE0055D01352C44A4B2F0E7EF
:10A45400A142F6D9A31C1380005D013880B270BDFF
:10A4640013B513460022ADF806200DF1060204468A
:10A47400FFF7DAFF10B1BDF80630E01802B010BDE6
:10A4840072DF704773DF704774DF704738B501229D
:10A4940004460D46B0F83812D0F83402FFF7E0FF56
:10A4A40000B1057004F13C0204F50D7104F154008F
:10A4B400BDE83840FFF7E4BF80F830107047F8B5C6
:10A4C40004460F46002975D0002873D091F87A30DD
:10A4D4001BB191F89830002B6ED1D7F8A030042B23
:10A4E4006AD0D7F89C30042B66D04FF0000C84F867
:10A4F40002C007F178060FCE251D0FC50FCE0FC57C
:10A5040096E8070085E8070084F830C0D7F8A4303F
:10A514006363D7F8A830A3634FF6FF7504F50D7392
:10A52400C4F84432A4F848520722614604F24A208F
:10A5340001F0CCFA23780BB984F8545094F8243001
:10A54400002B14BFEE231F2304F15501C4F8341269
:10A55400A4F8383204F50E723846FFF79BFD40BB71
:10A5640094F82430002B14BFEE231F2304F243116C
:10A57400C4F83C12A4F8403204F5107207F13C0010
:10A58400FFF788FDA8B9A369A4F848304FF4807395
:10A594000125A4F8503063692064014684F83C50D6
:10A5A400636404F13C0204F15400FFF769FF00B94D
:10A5B4002570F8BD0E20FCE70720FAE7F8B5077808
:10A5C40004460D46002F00F0048100F24A268170F3
:10A5D40007220021304601F079FAE38813B1A37809
:10A5E400012B04D0E3794BB1A378022B06D1636B22
:10A5F400A3B1012284F8512208209847334604F578
:10A60400147113F8012F12B99942FAD117466B1E2F
:10A61400032B52D8DFE803F0050B0F1284F85132F4
:10A62400ECE7A3791BB194F8243003B95FB9E3795B
:10A634000BB1002F43D1237A002B42D1637A002B34
:10A644000CBF00250425636BA570002B3BD0033D94
:10A65400012D38D86279002A35D094F8522292BB61
:10A6640084F85422012284F853220720984704F1E5
:10A674003C0518220021284601F028FAE36A94F8E0
:10A684002420581E0121022828BF0B4684F83C10C0
:10A6940084F8513032B1884296BFA36A84F85210CC
:10A6A40084F85230A178002384F8503004291BD850
:10A6B400DFE801F0770D223559000025C3E70225B4
:10A6C400C1E70325BFE7002384F85332CFE7C4E989
:10A6D4001063C4F844320223012284F83C308023FE
:10A6E40084F83120A4F84830A378002B5CD1636B44
:10A6F400002B6AD1002067E00223002A84F831305D
:10A7040014BF0723032384F83C302369A4F848309A
:10A714000023C4F84432E36826646364E4E76369AD
:10A724006364A369A4F8483012B1062384F83C306A
:10A734006379B3B194F852329BB994F8543283B12B
:10A74400022384F8503004212046FFF79FFE00289E
:10A75400CAD1052384F8313004F50D73C4F84432AA
:10A76400C2E70323F6E7E3696364236AA4F8483085
:10A7740012B1062384F83C30637983B194F85232E1
:10A784006BB994F8543253B1022384F85030042145
:10A794002046FFF77BFE0028A6D10623DAE7042330
:10A7A400D8E784F831309FE7D4F844122A4604F1FC
:10A7B4005400FFF765FE38B994F8301094F854004B
:10A7C400FFF760FE002892D0F8BD94F83100984756
:10A7D40090E70820F8E70388112B10B50C460AD03F
:10A7E400262B1FD0102B05D1C37B012B02D18388CC
:10A7F400A1F8483210BD0022838881F85222B1F8B2
:10A8040048229A42F6D10B79002BF3D1012120463C
:10A81400FFF7D4FE0028EDD0A36B002BEAD0BDE8EF
:10A8240010401847037A013B012BE3D889780523AC
:10A834000131B1FBF3F303EB8303C91AC9B2E6E7B1
:10A84400704738B5044690F85400FFF71DFE012305
:10A8540084F85232002384F8543284F850300621AC
:10A864002046FFF713FE054638B9A1782046FFF7C6
:10A87400A5FE10B1A36B03B19847284638BD75DF18
:10A88400704776DF70477ADF70477BDF70470000E0
:10A89400034B1A8882420CBF18460020704700BF41
:10A8A400003C0020024B9B6903B11847704700BF6E
:10A8B400E43B002073B585B22846FFF7E9FF044660
:10A8C40070B1164E027A337B9A420BD200F10A0120
:10A8D4002846FFF7D4FFE8B1112801D0FFF7E2FFC3
:10A8E40002B070BD00230372337C43B13B21284680
:10A8F400FFF7C7FF30F0080301D0FFF7D3FF7369F8
:10A90400002BEDD000228DF80420ADF8065001A8EC
:10A914009847E5E7237A01332372E1E7E43B00201B
:10A9240037B50B46497A0F4A71B9D2E901141D7A39
:10A934000246002D18BF21465868FCF7CBFD08B12C
:10A94400FFF7B0FF03B030BD002119725369002B2B
:10A95400F8D00122ADF806008DF8042001A898472C
:10A96400F0E700BFE43B00204B8802889A4213D8EA
:10A9740042889A4210D380888A8840F2F31398421E
:10A9840094BF031AC31A934206D800F2F3109042FC
:10A9940034BF002001207047002070470388122B29
:10A9A40070B5014659D004D8102B1ED0112B44D0B9
:10A9B40070BD502BFCD12F4BC288DB899A42F7D152
:10A9C400038A022BF4D186883046FFF761FF0546DF
:10A9D4000028EDD001F1120000F05DF938BB686881
:10A9E400FCF7C0FD0028E3D009E0C37B012BDFD1D5
:10A9F4004FF6FF70FFF74CFF054620B90420BDE871
:10AA04007040FFF74FBF1C4A8E88068000230372F4
:10AA14001368C0F80A305368C0F80E3010310A3099
:10AA2400FFF7A2FF134B6872DB89002BC0D12946C4
:10AA34003046BDE87040FFF773BF8088FFF728FFFA
:10AA440004460028B4D04068FCF78CFD08B1FFF739
:10AA540029FF4FF6FF732380AAE786883046FFF765
:10AA640017FF05460028A3D008310A30FFF77CFF02
:10AA74006872DCE7E43B0020143C0020F8B506468D
:10AA840048B305460FCD154F3C460FC495E8070063
:10AA940084E807003068124C3C60B0B1FFF7F3FE65
:10AAA400C0B9326813682360536863600D480E4A66
:10AAB4004FF6FF7303800D4B40F8043F0021FCF771
:10AAC400F7FC002818BF032004E02046FFF7DDFE52
:10AAD4000028EBD0F8BD0E20FCE700BFE43B0020CB
:10AAE400143C0020003C0020B9A802001C3C0020BB
:10AAF40073B50191019C06466CB100252C4629468C
:10AB040001A8FCF796FE18B106EB440301349D80BE
:10AB14000135142DF3D13046346002B070BD00000D
:10AB24002DE9F04703888488112B8CB005463CD06E
:10AB34001A2B3FD0102B17D1284EB368DB43009358
:10AB440071686846FCF7A1FE009901A8FFF7D0FFE1
:10AB54000DF108094FF00008019B984507D3132C09
:10AB640013D90420FCF7E8F90CB0BDE8F08739F8F4
:10AB740002AB00270137514606EB8700FCF74FFE76
:10AB84001D2FF7D108F10108E6E715482146FCF727
:10AB94003DFE14482146FCF739FEEB7B012BE3D044
:10ABA40011482146FCF732FEDEE70D482146FCF74A
:10ABB40036FED9E7037A0D481F2B4FEA13152146B9
:10ABC40006D9FCF723FE022D09482146EAD1EEE717
:10ABD400FCF725FE06482146E9E700BF3C3C00207F
:10ABE400443C0020403C0020483C00204C3C0020D9
:10ABF400503C00201328014602D80248FCF719BE35
:10AC040000207047403C002010B50446FFF7F2FFD7
:10AC1400002814BF2046142010BD70B50546164602
:10AC240008460AB90E2070BD00231360002DF9D028
:10AC34002B68002BF6D0EB8813F003040ED1FFF73A
:10AC4400E3FFC0B214280BD02B7983420AD9EB88D6
:10AC54002A6800FB032030602046E4E70720E2E78F
:10AC64000520E0E70420DEE7AADF7047002301386F
:10AC74000B70042806D8DFE800F00306080A0C006D
:10AC840011230B7070472123FBE73123F9E71223CB
:10AC9400F7E72223F5E7007800F001007047F0B5EC
:10ACA4008B7891B0012B0C4638BF01238DF80E3000
:10ACB40005460B88ADF80C30002116466846032281
:10ACC40000F004FF607C6946FFF7D0FFA07C0DF123
:10ACD4000101FFF7CBFFE27B237B217D43EAC20323
:10ACE400227C43EA02139DF80220002922F0190273
:10ACF40003F0190314BF02210121134361F342033A
:10AD04001C22002109A88DF8023000F0DFFE637BCD
:10AD140013F0300F15D002AF03220021384600F0A3
:10AD2400D5FEE07C0DF10901FFF7A0FF11238DF89A
:10AD340008309DF80A300E97012262F342038DF821
:10AD44000A30637B8DF824301422A37B8DF82530E0
:10AD5400002104A800F0BAFE03AB0493A388ADF865
:10AD64001C30A368CDF814D01BB1E288ADF81820CC
:10AD74000893A369002B31D001AF03220021384688
:10AD840000F0A4FEA3691A88ADF82C205A88ADF807
:10AD94002E205A680D97187B0A923946FFF766FFF2
:10ADA400A3690DF10501587BFFF760FFA269917A51
:10ADB400137A43EAC103D17A927B43EA01139DF8E3
:10ADC4000610002A03F0190321F0190114BF02220E
:10ADD40001220B4362F342038DF80630E36903B1A9
:10ADE4000C93334604AA09A92846FFF73DFF11B086
:10ADF400F0BD90DF7047A5DF7047B5DF70470000F6
:10AE04007FB50023ADF80810ADF80A106A4602A910
:10AE1400064603930093ADF80430FFF7EAFF0546B6
:10AE240000B3124B124CE41AE408FDF783F824042F
:10AE340044F0010403460F4932462046FBF7F1FD76
:10AE4400BDF80020BDF8023052EA030103D00A49DC
:10AE54002046FBF7E6FDBDF804201AB10749204659
:10AE6400FBF7D6FD284604B070BD00BFC0C2020087
:10AE740000C30200EACA020034CB020073CB020012
:10AE840080B14FF0F7130360FB230371F723C380F2
:10AE94001723038141F6FB32002301614381828140
:10AEA400184670470E20704730B1A1F11703E02B0C
:10AEB40004D80180002070470E2070470720704797
:10AEC40013B5034680880C46B8B91A88242A00F0C2
:10AED400968014D8112A71D0232A00F09E80102A5B
:10AEE4003BD0A37A4BB1E1880020FFF784FF002810
:10AEF40040F099804FF48073638102B010BD3A2A08
:10AF040065D0552AEDD1DB88C988A072172B38BFCC
:10AF140017238B4228BF0B462381FFF76EFF60B1D6
:10AF2400FDF708F8484B4949024649481B1ADB0813
:10AF34001B0443F00100FBF76BFDE37A002BD0D137
:10AF44002369002BCDD040F6772200922289ADF8F8
:10AF54000420694620469847C3E7DB7B0A790A73D5
:10AF6400012B13D0022B14D0E18823898B4205D204
:10AF74000020FFF740FF70B90123E372217B637B5C
:10AF84008B42AED20020FFF73BFFAAE70B88E38099
:10AF9400EAE74B88FBE7112802D10123A372EDE70E
:10AFA400FCF7C8FF284B2B49024629481B1ADB082B
:10AFB4001B0443F00100FBF72BFDDFE7F723CB80F5
:10AFC40017230B8141F6FB3348818B8189E75B8929
:10AFD400CA88934228BF1346172B0A6938BF172320
:10AFE4000B814AB1C97A39B140F677210091ADF8A5
:10AFF40004306946204690470023638171E71A7A3A
:10B004000B694A73002B3FF46CAF4DF67A218DF82F
:10B01400050000918DF804209BE7197A237B99425F
:10B0240028BF1946AFE711283FF467AFFCF782FF4A
:10B03400054B0849024606481B1ADB081B0443F06B
:10B044000100FBF7E5FC58E700C30200FACB02005D
:10B05400C0C20200C9CB0200B0DF704766DF704790
:10B0640010B5002104464088FFF7F8FF034608B9ED
:10B07400237210BD112801D10123F9E76368BDE8EB
:10B084001040184760B159B10378DE2B0AD00B6821
:10B094004360DE2303704FF6FF7343800020704744
:10B0A4000E2070470820704728B10378DE2B04D1A6
:10B0B4004180002070470E20704708207047F0B58B
:10B0C400054685B00C46F1B1E8B10B78DE2B1AD1F8
:10B0D40082884B889A4204D10B7A13B10846FFF751
:10B0E400BFFF2B88112B32D0512B0ED0012B0AD14C
:10B0F4002B7A012B07D1A9886288914203D123724C
:10B104002046FFF7ADFF05B0F0BDAE886388B342BB
:10B11400F9D1AF79022FF6D1AD7B2B1F022BF2D8D8
:10B1240000211022684600F0D1FC052D14BF4FF415
:10B13400C0730023694630468DF80070ADF80430C2
:10B14400FFF78AFF0028DED063689847DBE763884F
:10B15400AA889A4204BF4FF6FF736380D3E7A8DF3F
:10B164007047ADDF7047AEDF704762DF704770B580
:10B1740005468AB00C46002962D0002860D00388B6
:10B18400502B37D0572B72D0102B59D1818860693E
:10B19400002601AA0196FFF740FD082231460DEB77
:10B1A400020000F093FC0223218AA888CDF80CD079
:10B1B40002AA0293FFF7D5FF002841D1A369002B0F
:10B1C4003ED00398FFF767FD002839D0019B0BB1EF
:10B1D40001221A701822002104A800F077FC02232F
:10B1E4008DF81030AB88ADF81830019B05940793A7
:10B1F400A36923E08188606902AAFFF70EFD182283
:10B20400002104A800F062FCAB882189ADF8183055
:10B21400EB88029A05949942079218D12E8A022E3D
:10B2240015D16AB105F11200FFF735FD029B48B153
:10B2340001221A708DF81060A3690BB104A8984715
:10B244000AB070BD187003238DF81030F4E7A2899A
:10B254009A42F5D1A369002BF2D000228DF8102078
:10B2640005F1120208922A8AADF82420E6E78188C3
:10B27400606902AAFFF7D1FC01460028E0D1029BD5
:10B284001B78002BDCD0182204A800F01FFC01233B
:10B294008DF81030AB88ADF818300594029BA6E702
:10B2A400F0B53A4B8FB002AD04460A4603F1100CD8
:10B2B4002F46186859682E4603C608336345354639
:10B2C400F7D1002C5FD0002A5DD01368A36121461A
:10B2D4003846FFF74AFF002853D12246012512F8C9
:10B2E400023B8DF8063001A92846ADF80450FFF75B
:10B2F40036FF002845D10146202206A800F0E6FBCF
:10B3040022460223ADF8183012F80C3B8DF81A309F
:10B31400BDF824301E4E6088079623F44F6323F053
:10B324000F0343F440632B4306A9ADF824308DF892
:10B3340029508DF82A50FFF7B2FC10BB0146202299
:10B3440006A800F0C3FB22460323ADF8183012F818
:10B35400043B8DF81A30BDF824306088079623F436
:10B36400875323F01F0343F480532B43ADF8243059
:10B3740006A940F201138DF82950ADF82A30FFF7E1
:10B384008EFC0FB0F0BD0E20FBE700BF3ECC0200E8
:10B39400F4000100F0B50F4687B016461C4605467A
:10B3A40018B3406901AA1946FFF737FCD8B94FF61C
:10B3B400FF739C421BD0019BCBB11B78CBB133886C
:10B3C400F42B18D80146102202A800F07FFBAB88AA
:10B3D400ADF8083002A901232046CDE904678DF8B1
:10B3E4000A30FFF7C0FE07B0F0BD0E20FBE70520D2
:10B3F400F9E70820F7E70720F5E710DF70470000BA
:10B4040013B5044609496846FCF75FFD019808B97D
:10B4140002B010BDD0E900212046904718B168461B
:10B42400FCF75DFDF2E71120F2E700BF5CCC0200FF
:10B4340013B5044607496846FCF747FD019B0BB961
:10B4440002B010BD2046D3E9002190476846FCF7BE
:10B4540046FDF3E774CC02000B4991F816335A0900
:10B46400EC231341DB0706D5084B9A683AB94FF42D
:10B4740080030B60704742F20200FBF75DBD1A685F
:10B4840042F480021A60704700E100E06432002058
:10B49400F7B5194F3C7864BB184E0125204635702A
:10B4A400FFF7AEFF112821D02046FFF7C1FF144B50
:10B4B4008DF80340186801900DF10300FCF76CF956
:10B4C400104901A8FFF799FF0446B0FA80F040093B
:10B4D40038709DF80300FCF783F93CB90A4B3470CB
:10B4E4001C70FFF7B9FF2846FFF7A2FF204603B000
:10B4F400F0BD0824FAE700BFB53C0020B43C0020AE
:10B5040056CC0200596F0200B63C0020014B18785B
:10B51400704700BFB53C002007B508496846FCF7F2
:10B52400D4FC019B13B903B05DF804FBD3E90020FC
:10B5340090476846FCF7D3FCF3E700BF68CC0200F1
:10B54400FFF7EABF60DF704769DF704761DF70476C
:10B5540030B5114DADF5017D4FF4FA740DF10201D2
:10B5640003A8ADF80240FFF7F1FF70B9294601A81E
:10B57400FCF7ABFC029B002BF0D003A8D3E900211D
:10B58400904701A8FCF7ABFCF4E7052801D0FBF7D2
:10B59400D3FC0DF5017D30BDFCCE0200024B1B78BF
:10B5A4000BB1FFF7D5BF7047B73C002030B5054657
:10B5B40085B00C46002900F0B5805B4B0B600C2273
:10B5C400002101A800F082FA01238DF806302268D8
:10B5D4008DF80450062301A92020ADF80830FFF7A8
:10B5E400B3FF60B1FCF7A6FC504B514902465148E9
:10B5F4001B1ADB081B0443F00100FBF709FA0C22B9
:10B60400002101A800F062FA01238DF805302268B8
:10B61400002301A94020ADF80630FFF795FF60B183
:10B62400FCF788FC414B4449024642481B1ADB089C
:10B634001B0443F00100FBF7EBF90C22002101A8E5
:10B6440000F044FAF72322688DF8045001A923205E
:10B65400ADF80630FFF778FF60B1FCF76BFC334BB5
:10B664003649024633481B1ADB081B0443F0010029
:10B67400FBF7CEF90C22002101A800F027FA0120E3
:10B6840022688DF8040001A9FFF75EFF60B1FCF7A2
:10B6940051FC264B2A49024626481B1ADB081B0488
:10B6A40043F00100FBF7B4F90C22002101A800F0DB
:10B6B4000DFA4FF4B0632268019301A9A120FFF7AA
:10B6C40043FF60B1FCF736FC184B1E49024619488B
:10B6D4001B1ADB081B0443F00100FBF799F90C2249
:10B6E400002101A800F0F2F99DF8043022686FF3FC
:10B6F400000301A9A0208DF80430FFF725FF0346BD
:10B7040068B1FCF717FC094B0F49024609481B1A9C
:10B71400DB081B0443F00100FBF77AF90023184609
:10B7240005B030BD0E23FAE7982A002010C30200AA
:10B7340080CC0200C0C20200C6CC020012CD0200BE
:10B7440059CD0200A5CD0200F6CD020073B5054621
:10B754000668FFF7F7FE2B68B34204461DD91A4862
:10B764001A4B1B491B1ADB081B0443F0020001900F
:10B77400FBF74AF92B68174901983246FBF751F950
:10B784004FF080532A68D3F80C31134901989B0277
:10B7940003F100539A1AFBF73BF92CB90F4B012222
:10B7A4001A70204602B070BD2046FCF7C3FB074B5D
:10B7B4000B49024604481B1ADB081B0443F0010032
:10B7C400FBF726F9EDE700BFC0C2020010C3020078
:10B7D40049CE020078CE0200A9CE0200B73C002078
:10B7E400D3CE02004BDF70471FB50D4C01A8FFF705
:10B7F400F9FF70B9214602A8FCF767FB039B002BF5
:10B80400F4D00198D3E90021904702A8FCF767FB24
:10B81400F4E7052801D0FBF78FFB04B010BD00BF8F
:10B8240014CF020053EA020C61D02DE9F04BB3FAB5
:10B8340083F51E0007BFB2FA82F502FA05F403FA93
:10B8440005F41646C5F120051EBF22FA05F73C4350
:10B85400203556EA044C4FEA144418BF0134A34679
:10B864004FF00009C846904271EB030C39D30942EA
:10B8740007BFB0FA80F700FA07F6B1FA81F701FAC8
:10B8840007F6C7F120071EBF20FA07FC46EA0C069C
:10B894002037B6FBFBFC7F1B103F07F01F04C4F1ED
:10B8A40020060CFA04F42CFA06F644BF34460026AB
:10B8B400202FA4BF2646002454EA060C08BF012406
:10B8C40018EB040849EB0609A4FB027CC01B06FB29
:10B8D40002CC04FB03CC71EB0C01904271EB030C22
:10B8E400C5D20B46024649464046BDE8F08BB2FB42
:10B8F400F3F200007F2805D8034B185C034B5B5C14
:10B9040018407047002070472CCF0200ACCF0200D3
:10B91400A0F16103192B98BF20387047A0F14103AF
:10B92400192B98BF203070477F2805D8034B185C2B
:10B93400034B5B5C18407047002070472CCF02001B
:10B94400ACCF0200A0F16103192B98BF20387047D7
:10B95400A0F14103192B98BF203070477F299ABF6B
:10B96400017001206FF02E0070475AB10A787F2AC7
:10B974000AD800B10260002119605960501A18BF3A
:10B9840001207047002070476FF02E00704738B5D3
:10B9940004460846A26842B1236861685D1C8D4272
:10B9A40008BF00208B4208D2D054E3682BB1216831
:10B9B4006268914201D2214698472368013323608B
:10B9C40038BD70B54C1E09D41646C5B2294630465A
:10B9D400FFF7DDFF013CB4F1FF3FF7D170BD10F07C
:10B9E400100F08D108B510F4007F14BF30202020B8
:10B9F400FFF7E7FF08BD704708B5034B5B689B681A
:10BA04001B68984708BD00BFF02A002008B509212B
:10BA1400FFF7F2FF08BD00000FB410B586B008AB05
:10BA240053F8044B0593002303936FF000430293F0
:10BA3400084B049300F0CFF8059A214601A800F0C2
:10BA4400CDF8044600F0C8F8204606B0BDE8104022
:10BA540004B070474D7F0200037853B159B10144DB
:10BA6400034613F8012F12B18B42FAD10B46181A70
:10BA740070470346FBE70346F9E7844640EA0103BF
:10BA840013F0030F18D18446202A0BD32DE9F007B5
:10BA9400B1E8F807A0E8F807A2F12002202AF7D2BB
:10BAA400BDE8F007042A07D351F8043B40F8043BEF
:10BAB400A2F10402042AF7D2002A05D011F8013BAE
:10BAC40000F8013B013AF9D1604670478446002AE8
